{
  "_format": "hh-sol-artifact-1",
  "contractName": "Leb128Generated4Test",
  "sourceName": "contracts/zondax/filecoin-solidity/contracts/v0.8/tests/leb128.generated4.test.sol",
  "abi": [
    {
      "inputs": [],
      "name": "unsiged_integer_leb128_encoding_generated",
      "outputs": [],
      "stateMutability": "pure",
      "type": "function"
    }
  ],
  "bytecode": "0x608060405234801561001057600080fd5b5061690280620000216000396000f3fe608060405234801561001057600080fd5b506004361061002b5760003560e01c8063cb3dcfa714610030575b600080fd5b61003861003a565b005b60006040518060400160405280600381526020017fb9b701000000000000000000000000000000000000000000000000000000000081525090506000615bb99050600061008682613705565b90508280519060200120816000015180519060200120146100dc576040517f08c379a00000000000000000000000000000000000000000000000000000000081526004016100d390613a2d565b60405180910390fd5b60006040518060400160405280600381526020017fb4b30300000000000000000000000000000000000000000000000000000000008152509050600061d9b49050600061012882613705565b905082805190602001208160000151805190602001201461017e576040517f08c379a000000000000000000000000000000000000000000000000000000000815260040161017590613abf565b60405180910390fd5b60006040518060400160405280600381526020017fcea60200000000000000000000000000000000000000000000000000000000008152509050600061934e905060006101ca82613705565b9050828051906020012081600001518051906020012014610220576040517f08c379a000000000000000000000000000000000000000000000000000000000815260040161021790613b51565b60405180910390fd5b60006040518060400160405280600381526020017fc79f02000000000000000000000000000000000000000000000000000000000081525090506000618fc79050600061026c82613705565b90508280519060200120816000015180519060200120146102c2576040517f08c379a00000000000000000000000000000000000000000000000000000000081526004016102b990613be3565b60405180910390fd5b60006040518060400160405280600381526020017f9ad70200000000000000000000000000000000000000000000000000000000008152509050600061ab9a9050600061030e82613705565b9050828051906020012081600001518051906020012014610364576040517f08c379a000000000000000000000000000000000000000000000000000000000815260040161035b90613c75565b60405180910390fd5b60006040518060400160405280600381526020017fd69b01000000000000000000000000000000000000000000000000000000000081525090506000614dd6905060006103b082613705565b9050828051906020012081600001518051906020012014610406576040517f08c379a00000000000000000000000000000000000000000000000000000000081526004016103fd90613d07565b60405180910390fd5b60006040518060400160405280600381526020017fbd880100000000000000000000000000000000000000000000000000000000008152509050600061443d9050600061045282613705565b90508280519060200120816000015180519060200120146104a8576040517f08c379a000000000000000000000000000000000000000000000000000000000815260040161049f90613d99565b60405180910390fd5b60006040518060400160405280600281526020017fb66e00000000000000000000000000000000000000000000000000000000000081525090506000613736905060006104f482613705565b905082805190602001208160000151805190602001201461054a576040517f08c379a000000000000000000000000000000000000000000000000000000000815260040161054190613e05565b60405180910390fd5b60006040518060400160405280600281526020017fff49000000000000000000000000000000000000000000000000000000000000815250905060006124ff9050600061059682613705565b90508280519060200120816000015180519060200120146105ec576040517f08c379a00000000000000000000000000000000000000000000000000000000081526004016105e390613e71565b60405180910390fd5b60006040518060400160405280600381526020017fbfe3010000000000000000000000000000000000000000000000000000000000815250905060006171bf9050600061063882613705565b905082805190602001208160000151805190602001201461068e576040517f08c379a000000000000000000000000000000000000000000000000000000000815260040161068590613f03565b60405180910390fd5b60006040518060400160405280600281526020017fcd0e0000000000000000000000000000000000000000000000000000000000008152509050600061074d905060006106da82613705565b9050828051906020012081600001518051906020012014610730576040517f08c379a000000000000000000000000000000000000000000000000000000000815260040161072790613f6f565b60405180910390fd5b60006040518060400160405280600281526020017fe85e00000000000000000000000000000000000000000000000000000000000081525090506000612f689050600061077c82613705565b90508280519060200120816000015180519060200120146107d2576040517f08c379a00000000000000000000000000000000000000000000000000000000081526004016107c990613fdb565b60405180910390fd5b60006040518060400160405280600381526020017fb8ab020000000000000000000000000000000000000000000000000000000000815250905060006195b89050600061081e82613705565b9050828051906020012081600001518051906020012014610874576040517f08c379a000000000000000000000000000000000000000000000000000000000815260040161086b9061406d565b60405180910390fd5b60006040518060400160405280600281526020017fc043000000000000000000000000000000000000000000000000000000000000815250905060006121c0905060006108c082613705565b9050828051906020012081600001518051906020012014610916576040517f08c379a000000000000000000000000000000000000000000000000000000000815260040161090d906140d9565b60405180910390fd5b60006040518060400160405280600381526020017fc6ee0200000000000000000000000000000000000000000000000000000000008152509050600061b7469050600061096282613705565b90508280519060200120816000015180519060200120146109b8576040517f08c379a00000000000000000000000000000000000000000000000000000000081526004016109af9061416b565b60405180910390fd5b60006040518060400160405280600381526020017fc3b40300000000000000000000000000000000000000000000000000000000008152509050600061da4390506000610a0482613705565b9050828051906020012081600001518051906020012014610a5a576040517f08c379a0000000000000000000000000000000000000000000000000000000008152600401610a51906141fd565b60405180910390fd5b60006040518060400160405280600281526020017f9e050000000000000000000000000000000000000000000000000000000000008152509050600061029e90506000610aa682613705565b9050828051906020012081600001518051906020012014610afc576040517f08c379a0000000000000000000000000000000000000000000000000000000008152600401610af390614269565b60405180910390fd5b60006040518060400160405280600381526020017fd4d60300000000000000000000000000000000000000000000000000000000008152509050600061eb5490506000610b4882613705565b9050828051906020012081600001518051906020012014610b9e576040517f08c379a0000000000000000000000000000000000000000000000000000000008152600401610b95906142fb565b60405180910390fd5b60006040518060400160405280600381526020017fa4d801000000000000000000000000000000000000000000000000000000000081525090506000616c2490506000610bea82613705565b9050828051906020012081600001518051906020012014610c40576040517f08c379a0000000000000000000000000000000000000000000000000000000008152600401610c379061438d565b60405180910390fd5b60006040518060400160405280600381526020017fd6980300000000000000000000000000000000000000000000000000000000008152509050600061cc5690506000610c8c82613705565b9050828051906020012081600001518051906020012014610ce2576040517f08c379a0000000000000000000000000000000000000000000000000000000008152600401610cd99061441f565b60405180910390fd5b60006040518060400160405280600381526020017ffc8d0300000000000000000000000000000000000000000000000000000000008152509050600061c6fc90506000610d2e82613705565b9050828051906020012081600001518051906020012014610d84576040517f08c379a0000000000000000000000000000000000000000000000000000000008152600401610d7b906144b1565b60405180910390fd5b60006040518060400160405280600281526020017f93520000000000000000000000000000000000000000000000000000000000008152509050600061291390506000610dd082613705565b9050828051906020012081600001518051906020012014610e26576040517f08c379a0000000000000000000000000000000000000000000000000000000008152600401610e1d9061451d565b60405180910390fd5b60006040518060400160405280600381526020017fe787010000000000000000000000000000000000000000000000000000000000815250905060006143e790506000610e7282613705565b9050828051906020012081600001518051906020012014610ec8576040517f08c379a0000000000000000000000000000000000000000000000000000000008152600401610ebf906145af565b60405180910390fd5b60006040518060400160405280600381526020017fccd00200000000000000000000000000000000000000000000000000000000008152509050600061a84c90506000610f1482613705565b9050828051906020012081600001518051906020012014610f6a576040517f08c379a0000000000000000000000000000000000000000000000000000000008152600401610f6190614641565b60405180910390fd5b60006040518060400160405280600381526020017fb0fa0200000000000000000000000000000000000000000000000000000000008152509050600061bd3090506000610fb682613705565b905082805190602001208160000151805190602001201461100c576040517f08c379a0000000000000000000000000000000000000000000000000000000008152600401611003906146d3565b60405180910390fd5b60006040518060400160405280600381526020017ff4d40300000000000000000000000000000000000000000000000000000000008152509050600061ea749050600061105882613705565b90508280519060200120816000015180519060200120146110ae576040517f08c379a00000000000000000000000000000000000000000000000000000000081526004016110a590614765565b60405180910390fd5b60006040518060400160405280600281526020017fc40e00000000000000000000000000000000000000000000000000000000000081525090506000610744905060006110fa82613705565b9050828051906020012081600001518051906020012014611150576040517f08c379a0000000000000000000000000000000000000000000000000000000008152600401611147906147d1565b60405180910390fd5b60006040518060400160405280600381526020017fbcff0200000000000000000000000000000000000000000000000000000000008152509050600061bfbc9050600061119c82613705565b90508280519060200120816000015180519060200120146111f2576040517f08c379a00000000000000000000000000000000000000000000000000000000081526004016111e990614863565b60405180910390fd5b60006040518060400160405280600281526020017fc17c00000000000000000000000000000000000000000000000000000000000081525090506000613e419050600061123e82613705565b9050828051906020012081600001518051906020012014611294576040517f08c379a000000000000000000000000000000000000000000000000000000000815260040161128b906148cf565b60405180910390fd5b60006040518060400160405280600381526020017f8ba50100000000000000000000000000000000000000000000000000000000008152509050600061528b905060006112e082613705565b9050828051906020012081600001518051906020012014611336576040517f08c379a000000000000000000000000000000000000000000000000000000000815260040161132d90614961565b60405180910390fd5b60006040518060400160405280600381526020017fe6f801000000000000000000000000000000000000000000000000000000000081525090506000617c669050600061138282613705565b90508280519060200120816000015180519060200120146113d8576040517f08c379a00000000000000000000000000000000000000000000000000000000081526004016113cf906149f3565b60405180910390fd5b60006040518060400160405280600381526020017f9e850200000000000000000000000000000000000000000000000000000000008152509050600061829e9050600061142482613705565b905082805190602001208160000151805190602001201461147a576040517f08c379a000000000000000000000000000000000000000000000000000000000815260040161147190614a85565b60405180910390fd5b60006040518060400160405280600381526020017f8ffb01000000000000000000000000000000000000000000000000000000000081525090506000617d8f905060006114c682613705565b905082805190602001208160000151805190602001201461151c576040517f08c379a000000000000000000000000000000000000000000000000000000000815260040161151390614b17565b60405180910390fd5b60006040518060400160405280600381526020017fc2c90300000000000000000000000000000000000000000000000000000000008152509050600061e4c29050600061156882613705565b90508280519060200120816000015180519060200120146115be576040517f08c379a00000000000000000000000000000000000000000000000000000000081526004016115b590614ba9565b60405180910390fd5b60006040518060400160405280600381526020017fdcaf010000000000000000000000000000000000000000000000000000000000815250905060006157dc9050600061160a82613705565b9050828051906020012081600001518051906020012014611660576040517f08c379a000000000000000000000000000000000000000000000000000000000815260040161165790614c3b565b60405180910390fd5b60006040518060400160405280600381526020017fe1b802000000000000000000000000000000000000000000000000000000000081525090506000619c61905060006116ac82613705565b9050828051906020012081600001518051906020012014611702576040517f08c379a00000000000000000000000000000000000000000000000000000000081526004016116f990614ccd565b60405180910390fd5b60006040518060400160405280600381526020017f84fa0200000000000000000000000000000000000000000000000000000000008152509050600061bd049050600061174e82613705565b90508280519060200120816000015180519060200120146117a4576040517f08c379a000000000000000000000000000000000000000000000000000000000815260040161179b90614d5f565b60405180910390fd5b60006040518060400160405280600381526020017feae40100000000000000000000000000000000000000000000000000000000008152509050600061726a905060006117f082613705565b9050828051906020012081600001518051906020012014611846576040517f08c379a000000000000000000000000000000000000000000000000000000000815260040161183d90614df1565b60405180910390fd5b60006040518060400160405280600381526020017fa8a40300000000000000000000000000000000000000000000000000000000008152509050600061d2289050600061189282613705565b90508280519060200120816000015180519060200120146118e8576040517f08c379a00000000000000000000000000000000000000000000000000000000081526004016118df90614e83565b60405180910390fd5b60006040518060400160405280600381526020017fa2c00300000000000000000000000000000000000000000000000000000000008152509050600061e0229050600061193482613705565b905082805190602001208160000151805190602001201461198a576040517f08c379a000000000000000000000000000000000000000000000000000000000815260040161198190614f15565b60405180910390fd5b60006040518060400160405280600381526020017fb9f40200000000000000000000000000000000000000000000000000000000008152509050600061ba39905060006119d682613705565b9050828051906020012081600001518051906020012014611a2c576040517f08c379a0000000000000000000000000000000000000000000000000000000008152600401611a2390614fa7565b60405180910390fd5b60006040518060400160405280600381526020017f82ce0300000000000000000000000000000000000000000000000000000000008152509050600061e70290506000611a7882613705565b9050828051906020012081600001518051906020012014611ace576040517f08c379a0000000000000000000000000000000000000000000000000000000008152600401611ac590615039565b60405180910390fd5b60006040518060400160405280600381526020017fd2a20200000000000000000000000000000000000000000000000000000000008152509050600061915290506000611b1a82613705565b9050828051906020012081600001518051906020012014611b70576040517f08c379a0000000000000000000000000000000000000000000000000000000008152600401611b67906150cb565b60405180910390fd5b60006040518060400160405280600381526020017fa7ff0200000000000000000000000000000000000000000000000000000000008152509050600061bfa790506000611bbc82613705565b9050828051906020012081600001518051906020012014611c12576040517f08c379a0000000000000000000000000000000000000000000000000000000008152600401611c099061515d565b60405180910390fd5b60006040518060400160405280600381526020017fcbf50200000000000000000000000000000000000000000000000000000000008152509050600061bacb90506000611c5e82613705565b9050828051906020012081600001518051906020012014611cb4576040517f08c379a0000000000000000000000000000000000000000000000000000000008152600401611cab906151ef565b60405180910390fd5b60006040518060400160405280600381526020017fe09c0300000000000000000000000000000000000000000000000000000000008152509050600061ce6090506000611d0082613705565b9050828051906020012081600001518051906020012014611d56576040517f08c379a0000000000000000000000000000000000000000000000000000000008152600401611d4d90615281565b60405180910390fd5b60006040518060400160405280600381526020017fccd60300000000000000000000000000000000000000000000000000000000008152509050600061eb4c90506000611da282613705565b9050828051906020012081600001518051906020012014611df8576040517f08c379a0000000000000000000000000000000000000000000000000000000008152600401611def90615313565b60405180910390fd5b60006040518060400160405280600381526020017fcfb00300000000000000000000000000000000000000000000000000000000008152509050600061d84f90506000611e4482613705565b9050828051906020012081600001518051906020012014611e9a576040517f08c379a0000000000000000000000000000000000000000000000000000000008152600401611e91906153a5565b60405180910390fd5b60006040518060400160405280600281526020017fef3b00000000000000000000000000000000000000000000000000000000000081525090506000611def90506000611ee682613705565b9050828051906020012081600001518051906020012014611f3c576040517f08c379a0000000000000000000000000000000000000000000000000000000008152600401611f3390615411565b60405180910390fd5b60006040518060400160405280600281526020017fa23700000000000000000000000000000000000000000000000000000000000081525090506000611ba290506000611f8882613705565b9050828051906020012081600001518051906020012014611fde576040517f08c379a0000000000000000000000000000000000000000000000000000000008152600401611fd59061547d565b60405180910390fd5b60006040518060400160405280600381526020017f86c50300000000000000000000000000000000000000000000000000000000008152509050600061e2869050600061202a82613705565b9050828051906020012081600001518051906020012014612080576040517f08c379a00000000000000000000000000000000000000000000000000000000081526004016120779061550f565b60405180910390fd5b60006040518060400160405280600381526020017f899401000000000000000000000000000000000000000000000000000000000081525090506000614a09905060006120cc82613705565b9050828051906020012081600001518051906020012014612122576040517f08c379a0000000000000000000000000000000000000000000000000000000008152600401612119906155a1565b60405180910390fd5b60006040518060400160405280600281526020017fbd280000000000000000000000000000000000000000000000000000000000008152509050600061143d9050600061216e82613705565b90508280519060200120816000015180519060200120146121c4576040517f08c379a00000000000000000000000000000000000000000000000000000000081526004016121bb9061560d565b60405180910390fd5b60006040518060400160405280600281526020017fb646000000000000000000000000000000000000000000000000000000000000815250905060006123369050600061221082613705565b9050828051906020012081600001518051906020012014612266576040517f08c379a000000000000000000000000000000000000000000000000000000000815260040161225d90615679565b60405180910390fd5b60006040518060400160405280600281526020017fc953000000000000000000000000000000000000000000000000000000000000815250905060006129c9905060006122b282613705565b9050828051906020012081600001518051906020012014612308576040517f08c379a00000000000000000000000000000000000000000000000000000000081526004016122ff906156e5565b60405180910390fd5b60006040518060400160405280600381526020017fe7f00300000000000000000000000000000000000000000000000000000000008152509050600061f8679050600061235482613705565b90508280519060200120816000015180519060200120146123aa576040517f08c379a00000000000000000000000000000000000000000000000000000000081526004016123a190615777565b60405180910390fd5b60006040518060400160405280600381526020017fb1ed0200000000000000000000000000000000000000000000000000000000008152509050600061b6b1905060006123f682613705565b905082805190602001208160000151805190602001201461244c576040517f08c379a000000000000000000000000000000000000000000000000000000000815260040161244390615809565b60405180910390fd5b60006040518060400160405280600381526020017fedbc0300000000000000000000000000000000000000000000000000000000008152509050600061de6d9050600061249882613705565b90508280519060200120816000015180519060200120146124ee576040517f08c379a00000000000000000000000000000000000000000000000000000000081526004016124e59061589b565b60405180910390fd5b60006040518060400160405280600381526020017f8fc90200000000000000000000000000000000000000000000000000000000008152509050600061a48f9050600061253a82613705565b9050828051906020012081600001518051906020012014612590576040517f08c379a00000000000000000000000000000000000000000000000000000000081526004016125879061592d565b60405180910390fd5b60006040518060400160405280600381526020017fb99601000000000000000000000000000000000000000000000000000000000081525090506000614b39905060006125dc82613705565b9050828051906020012081600001518051906020012014612632576040517f08c379a0000000000000000000000000000000000000000000000000000000008152600401612629906159bf565b60405180910390fd5b60006040518060400160405280600381526020017f948a010000000000000000000000000000000000000000000000000000000000815250905060006145149050600061267e82613705565b90508280519060200120816000015180519060200120146126d4576040517f08c379a00000000000000000000000000000000000000000000000000000000081526004016126cb90615a51565b60405180910390fd5b60006040518060400160405280600281526020017fad0a0000000000000000000000000000000000000000000000000000000000008152509050600061052d9050600061272082613705565b9050828051906020012081600001518051906020012014612776576040517f08c379a000000000000000000000000000000000000000000000000000000000815260040161276d90615abd565b60405180910390fd5b60006040518060400160405280600381526020017f90e30300000000000000000000000000000000000000000000000000000000008152509050600061f190905060006127c282613705565b9050828051906020012081600001518051906020012014612818576040517f08c379a000000000000000000000000000000000000000000000000000000000815260040161280f90615b4f565b60405180910390fd5b60006040518060400160405280600381526020017f86be02000000000000000000000000000000000000000000000000000000000081525090506000619f069050600061286482613705565b90508280519060200120816000015180519060200120146128ba576040517f08c379a00000000000000000000000000000000000000000000000000000000081526004016128b190615be1565b60405180910390fd5b60006040518060400160405280600381526020017f82e50300000000000000000000000000000000000000000000000000000000008152509050600061f2829050600061290682613705565b905082805190602001208160000151805190602001201461295c576040517f08c379a000000000000000000000000000000000000000000000000000000000815260040161295390615c73565b60405180910390fd5b60006040518060400160405280600381526020017faeb601000000000000000000000000000000000000000000000000000000000081525090506000615b2e905060006129a882613705565b90508280519060200120816000015180519060200120146129fe576040517f08c379a00000000000000000000000000000000000000000000000000000000081526004016129f590615d05565b60405180910390fd5b60006040518060400160405280600381526020017ff291020000000000000000000000000000000000000000000000000000000000815250905060006188f290506000612a4a82613705565b9050828051906020012081600001518051906020012014612aa0576040517f08c379a0000000000000000000000000000000000000000000000000000000008152600401612a9790615d97565b60405180910390fd5b60006040518060400160405280600381526020017fdfb902000000000000000000000000000000000000000000000000000000000081525090506000619cdf90506000612aec82613705565b9050828051906020012081600001518051906020012014612b42576040517f08c379a0000000000000000000000000000000000000000000000000000000008152600401612b3990615e29565b60405180910390fd5b60006040518060400160405280600381526020017f9dd90200000000000000000000000000000000000000000000000000000000008152509050600061ac9d90506000612b8e82613705565b9050828051906020012081600001518051906020012014612be4576040517f08c379a0000000000000000000000000000000000000000000000000000000008152600401612bdb90615ebb565b60405180910390fd5b60006040518060400160405280600381526020017fd4e40300000000000000000000000000000000000000000000000000000000008152509050600061f25490506000612c3082613705565b9050828051906020012081600001518051906020012014612c86576040517f08c379a0000000000000000000000000000000000000000000000000000000008152600401612c7d90615f4d565b60405180910390fd5b60006040518060400160405280600381526020017f9fc20200000000000000000000000000000000000000000000000000000000008152509050600061a11f90506000612cd282613705565b9050828051906020012081600001518051906020012014612d28576040517f08c379a0000000000000000000000000000000000000000000000000000000008152600401612d1f90615fdf565b60405180910390fd5b60006040518060400160405280600381526020017fd8d00300000000000000000000000000000000000000000000000000000000008152509050600061e85890506000612d7482613705565b9050828051906020012081600001518051906020012014612dca576040517f08c379a0000000000000000000000000000000000000000000000000000000008152600401612dc190616071565b60405180910390fd5b60006040518060400160405280600381526020017fa8aa0200000000000000000000000000000000000000000000000000000000008152509050600061952890506000612e1682613705565b9050828051906020012081600001518051906020012014612e6c576040517f08c379a0000000000000000000000000000000000000000000000000000000008152600401612e6390616103565b60405180910390fd5b60006040518060400160405280600281526020017f967a00000000000000000000000000000000000000000000000000000000000081525090506000613d1690506000612eb882613705565b9050828051906020012081600001518051906020012014612f0e576040517f08c379a0000000000000000000000000000000000000000000000000000000008152600401612f059061616f565b60405180910390fd5b60006040518060400160405280600381526020017fb1d00300000000000000000000000000000000000000000000000000000000008152509050600061e83190506000612f5a82613705565b9050828051906020012081600001518051906020012014612fb0576040517f08c379a0000000000000000000000000000000000000000000000000000000008152600401612fa790616201565b60405180910390fd5b60006040518060400160405280600381526020017f85920200000000000000000000000000000000000000000000000000000000008152509050600061890590506000612ffc82613705565b9050828051906020012081600001518051906020012014613052576040517f08c379a000000000000000000000000000000000000000000000000000000000815260040161304990616293565b60405180910390fd5b60006040518060400160405280600281526020017f8b1d00000000000000000000000000000000000000000000000000000000000081525090506000610e8b9050600061309e82613705565b90508280519060200120816000015180519060200120146130f4576040517f08c379a00000000000000000000000000000000000000000000000000000000081526004016130eb906162ff565b60405180910390fd5b60006040518060400160405280600381526020017fe79601000000000000000000000000000000000000000000000000000000000081525090506000614b679050600061314082613705565b9050828051906020012081600001518051906020012014613196576040517f08c379a000000000000000000000000000000000000000000000000000000000815260040161318d90616391565b60405180910390fd5b60006040518060400160405280600281526020017f821e00000000000000000000000000000000000000000000000000000000000081525090506000610f02905060006131e282613705565b9050828051906020012081600001518051906020012014613238576040517f08c379a000000000000000000000000000000000000000000000000000000000815260040161322f906163fd565b60405180910390fd5b60006040518060400160405280600381526020017fb1d0010000000000000000000000000000000000000000000000000000000000815250905060006168319050600061328482613705565b90508280519060200120816000015180519060200120146132da576040517f08c379a00000000000000000000000000000000000000000000000000000000081526004016132d19061648f565b60405180910390fd5b60006040518060400160405280600381526020017fe0fe0300000000000000000000000000000000000000000000000000000000008152509050600061ff609050600061332682613705565b905082805190602001208160000151805190602001201461337c576040517f08c379a000000000000000000000000000000000000000000000000000000000815260040161337390616521565b60405180910390fd5b60006040518060400160405280600381526020017ffdc60200000000000000000000000000000000000000000000000000000000008152509050600061a37d905060006133c882613705565b905082805190602001208160000151805190602001201461341e576040517f08c379a0000000000000000000000000000000000000000000000000000000008152600401613415906165b3565b60405180910390fd5b60006040518060400160405280600381526020017ff8e9010000000000000000000000000000000000000000000000000000000000815250905060006174f89050600061346a82613705565b90508280519060200120816000015180519060200120146134c0576040517f08c379a00000000000000000000000000000000000000000000000000000000081526004016134b790616645565b60405180910390fd5b60006040518060400160405280600381526020017f8ba80200000000000000000000000000000000000000000000000000000000008152509050600061940b9050600061350c82613705565b9050828051906020012081600001518051906020012014613562576040517f08c379a0000000000000000000000000000000000000000000000000000000008152600401613559906166d7565b60405180910390fd5b60006040518060400160405280600381526020017f81c90300000000000000000000000000000000000000000000000000000000008152509050600061e481905060006135ae82613705565b9050828051906020012081600001518051906020012014613604576040517f08c379a00000000000000000000000000000000000000000000000000000000081526004016135fb90616769565b60405180910390fd5b505050505050505050505050505050505050505050505050505050505050505050505050505050505050505050505050505050505050505050505050505050505050505050505050505050505050505050505050505050505050505050505050505050505050505050505050505050505050505050505050505050505050505050505050505050505050505050505050505050505050505050505050505050505050505050505050505050505050505050505050505050505050505050505050505050505050505050505050505050505050505050505050505050505050505050505050505050505050505050505050505050505050505050505050505050565b61370d613990565b613715613990565b5b600115613783576000607f8416905060078467ffffffffffffffff16901c935060008467ffffffffffffffff16036137665761375b818361378a90919063ffffffff16565b508192505050613785565b61377c608082178361378a90919063ffffffff16565b5050613716565b505b919050565b613792613990565b6000836000015151905060006001826137ab91906167c2565b9050846020015182106137cf576137ce856002836137c991906167f6565b6137f4565b5b845160208382010185815381518311156137e7578282525b5050849250505092915050565b6000826000015190506138078383613818565b506138128382613891565b50505050565b613820613990565b600060208361382f9190616867565b1461385b576020826138419190616867565b602061384d9190616898565b8261385891906167c2565b91505b81836020018181525050604051808452600081528281016020018181101561388257600080fd5b80604052505082905092915050565b613899613990565b6138a5838384516138ad565b905092915050565b6138b5613990565b82518211156138c357600080fd5b60008460000151519050600083826138db91906167c2565b90508560200151811115613900576138ff866002836138fa91906167f6565b6137f4565b5b6000808751805185602083010193508085111561391b578482525b60208901925050505b60208610613962578051825260208261393d91906167c2565b915060208161394c91906167c2565b905060208661395b9190616898565b9550613924565b60006001876020036101000a0390508019825116818451168181178552505050879450505050509392505050565b604051806040016040528060608152602001600081525090565b600082825260208201905092915050565b7f27323334383127206973206e6f742072657475726e696e67202762396237303160008201527f2700000000000000000000000000000000000000000000000000000000000000602082015250565b6000613a176021836139aa565b9150613a22826139bb565b604082019050919050565b60006020820190508181036000830152613a4681613a0a565b9050919050565b7f27353537333227206973206e6f742072657475726e696e67202762346233303360008201527f2700000000000000000000000000000000000000000000000000000000000000602082015250565b6000613aa96021836139aa565b9150613ab482613a4d565b604082019050919050565b60006020820190508181036000830152613ad881613a9c565b9050919050565b7f27333737313027206973206e6f742072657475726e696e67202763656136303260008201527f2700000000000000000000000000000000000000000000000000000000000000602082015250565b6000613b3b6021836139aa565b9150613b4682613adf565b604082019050919050565b60006020820190508181036000830152613b6a81613b2e565b9050919050565b7f27333638303727206973206e6f742072657475726e696e67202763373966303260008201527f2700000000000000000000000000000000000000000000000000000000000000602082015250565b6000613bcd6021836139aa565b9150613bd882613b71565b604082019050919050565b60006020820190508181036000830152613bfc81613bc0565b9050919050565b7f27343339333027206973206e6f742072657475726e696e67202739616437303260008201527f2700000000000000000000000000000000000000000000000000000000000000602082015250565b6000613c5f6021836139aa565b9150613c6a82613c03565b604082019050919050565b60006020820190508181036000830152613c8e81613c52565b9050919050565b7f27313939323627206973206e6f742072657475726e696e67202764363962303160008201527f2700000000000000000000000000000000000000000000000000000000000000602082015250565b6000613cf16021836139aa565b9150613cfc82613c95565b604082019050919050565b60006020820190508181036000830152613d2081613ce4565b9050919050565b7f27313734363927206973206e6f742072657475726e696e67202762643838303160008201527f2700000000000000000000000000000000000000000000000000000000000000602082015250565b6000613d836021836139aa565b9150613d8e82613d27565b604082019050919050565b60006020820190508181036000830152613db281613d76565b9050919050565b7f27313431333427206973206e6f742072657475726e696e672027623636652700600082015250565b6000613def601f836139aa565b9150613dfa82613db9565b602082019050919050565b60006020820190508181036000830152613e1e81613de2565b9050919050565b7f273934373127206973206e6f742072657475726e696e67202766663439270000600082015250565b6000613e5b601e836139aa565b9150613e6682613e25565b602082019050919050565b60006020820190508181036000830152613e8a81613e4e565b9050919050565b7f27323931313927206973206e6f742072657475726e696e67202762666533303160008201527f2700000000000000000000000000000000000000000000000000000000000000602082015250565b6000613eed6021836139aa565b9150613ef882613e91565b604082019050919050565b60006020820190508181036000830152613f1c81613ee0565b9050919050565b7f273138363927206973206e6f742072657475726e696e67202763643065270000600082015250565b6000613f59601e836139aa565b9150613f6482613f23565b602082019050919050565b60006020820190508181036000830152613f8881613f4c565b9050919050565b7f27313231333627206973206e6f742072657475726e696e672027653835652700600082015250565b6000613fc5601f836139aa565b9150613fd082613f8f565b602082019050919050565b60006020820190508181036000830152613ff481613fb8565b9050919050565b7f27333833323827206973206e6f742072657475726e696e67202762386162303260008201527f2700000000000000000000000000000000000000000000000000000000000000602082015250565b60006140576021836139aa565b915061406282613ffb565b604082019050919050565b600060208201905081810360008301526140868161404a565b9050919050565b7f273836343027206973206e6f742072657475726e696e67202763303433270000600082015250565b60006140c3601e836139aa565b91506140ce8261408d565b602082019050919050565b600060208201905081810360008301526140f2816140b6565b9050919050565b7f27343639313827206973206e6f742072657475726e696e67202763366565303260008201527f2700000000000000000000000000000000000000000000000000000000000000602082015250565b60006141556021836139aa565b9150614160826140f9565b604082019050919050565b6000602082019050818103600083015261418481614148565b9050919050565b7f27353538373527206973206e6f742072657475726e696e67202763336234303360008201527f2700000000000000000000000000000000000000000000000000000000000000602082015250565b60006141e76021836139aa565b91506141f28261418b565b604082019050919050565b60006020820190508181036000830152614216816141da565b9050919050565b7f2736373027206973206e6f742072657475726e696e6720273965303527000000600082015250565b6000614253601d836139aa565b915061425e8261421d565b602082019050919050565b6000602082019050818103600083015261428281614246565b9050919050565b7f27363032343427206973206e6f742072657475726e696e67202764346436303360008201527f2700000000000000000000000000000000000000000000000000000000000000602082015250565b60006142e56021836139aa565b91506142f082614289565b604082019050919050565b60006020820190508181036000830152614314816142d8565b9050919050565b7f27323736383427206973206e6f742072657475726e696e67202761346438303160008201527f2700000000000000000000000000000000000000000000000000000000000000602082015250565b60006143776021836139aa565b91506143828261431b565b604082019050919050565b600060208201905081810360008301526143a68161436a565b9050919050565b7f27353233313027206973206e6f742072657475726e696e67202764363938303360008201527f2700000000000000000000000000000000000000000000000000000000000000602082015250565b60006144096021836139aa565b9150614414826143ad565b604082019050919050565b60006020820190508181036000830152614438816143fc565b9050919050565b7f27353039343027206973206e6f742072657475726e696e67202766633864303360008201527f2700000000000000000000000000000000000000000000000000000000000000602082015250565b600061449b6021836139aa565b91506144a68261443f565b604082019050919050565b600060208201905081810360008301526144ca8161448e565b9050919050565b7f27313035313527206973206e6f742072657475726e696e672027393335322700600082015250565b6000614507601f836139aa565b9150614512826144d1565b602082019050919050565b60006020820190508181036000830152614536816144fa565b9050919050565b7f27313733383327206973206e6f742072657475726e696e67202765373837303160008201527f2700000000000000000000000000000000000000000000000000000000000000602082015250565b60006145996021836139aa565b91506145a48261453d565b604082019050919050565b600060208201905081810360008301526145c88161458c565b9050919050565b7f27343330383427206973206e6f742072657475726e696e67202763636430303260008201527f2700000000000000000000000000000000000000000000000000000000000000602082015250565b600061462b6021836139aa565b9150614636826145cf565b604082019050919050565b6000602082019050818103600083015261465a8161461e565b9050919050565b7f27343834333227206973206e6f742072657475726e696e67202762306661303260008201527f2700000000000000000000000000000000000000000000000000000000000000602082015250565b60006146bd6021836139aa565b91506146c882614661565b604082019050919050565b600060208201905081810360008301526146ec816146b0565b9050919050565b7f27363030323027206973206e6f742072657475726e696e67202766346434303360008201527f2700000000000000000000000000000000000000000000000000000000000000602082015250565b600061474f6021836139aa565b915061475a826146f3565b604082019050919050565b6000602082019050818103600083015261477e81614742565b9050919050565b7f273138363027206973206e6f742072657475726e696e67202763343065270000600082015250565b60006147bb601e836139aa565b91506147c682614785565b602082019050919050565b600060208201905081810360008301526147ea816147ae565b9050919050565b7f27343930383427206973206e6f742072657475726e696e67202762636666303260008201527f2700000000000000000000000000000000000000000000000000000000000000602082015250565b600061484d6021836139aa565b9150614858826147f1565b604082019050919050565b6000602082019050818103600083015261487c81614840565b9050919050565b7f27313539333727206973206e6f742072657475726e696e672027633137632700600082015250565b60006148b9601f836139aa565b91506148c482614883565b602082019050919050565b600060208201905081810360008301526148e8816148ac565b9050919050565b7f27323131333127206973206e6f742072657475726e696e67202738626135303160008201527f2700000000000000000000000000000000000000000000000000000000000000602082015250565b600061494b6021836139aa565b9150614956826148ef565b604082019050919050565b6000602082019050818103600083015261497a8161493e565b9050919050565b7f27333138343627206973206e6f742072657475726e696e67202765366638303160008201527f2700000000000000000000000000000000000000000000000000000000000000602082015250565b60006149dd6021836139aa565b91506149e882614981565b604082019050919050565b60006020820190508181036000830152614a0c816149d0565b9050919050565b7f27333334333827206973206e6f742072657475726e696e67202739653835303260008201527f2700000000000000000000000000000000000000000000000000000000000000602082015250565b6000614a6f6021836139aa565b9150614a7a82614a13565b604082019050919050565b60006020820190508181036000830152614a9e81614a62565b9050919050565b7f27333231343327206973206e6f742072657475726e696e67202738666662303160008201527f2700000000000000000000000000000000000000000000000000000000000000602082015250565b6000614b016021836139aa565b9150614b0c82614aa5565b604082019050919050565b60006020820190508181036000830152614b3081614af4565b9050919050565b7f27353835363227206973206e6f742072657475726e696e67202763326339303360008201527f2700000000000000000000000000000000000000000000000000000000000000602082015250565b6000614b936021836139aa565b9150614b9e82614b37565b604082019050919050565b60006020820190508181036000830152614bc281614b86565b9050919050565b7f27323234393227206973206e6f742072657475726e696e67202764636166303160008201527f2700000000000000000000000000000000000000000000000000000000000000602082015250565b6000614c256021836139aa565b9150614c3082614bc9565b604082019050919050565b60006020820190508181036000830152614c5481614c18565b9050919050565b7f27343030333327206973206e6f742072657475726e696e67202765316238303260008201527f2700000000000000000000000000000000000000000000000000000000000000602082015250565b6000614cb76021836139aa565b9150614cc282614c5b565b604082019050919050565b60006020820190508181036000830152614ce681614caa565b9050919050565b7f27343833383827206973206e6f742072657475726e696e67202738346661303260008201527f2700000000000000000000000000000000000000000000000000000000000000602082015250565b6000614d496021836139aa565b9150614d5482614ced565b604082019050919050565b60006020820190508181036000830152614d7881614d3c565b9050919050565b7f27323932393027206973206e6f742072657475726e696e67202765616534303160008201527f2700000000000000000000000000000000000000000000000000000000000000602082015250565b6000614ddb6021836139aa565b9150614de682614d7f565b604082019050919050565b60006020820190508181036000830152614e0a81614dce565b9050919050565b7f27353338303027206973206e6f742072657475726e696e67202761386134303360008201527f2700000000000000000000000000000000000000000000000000000000000000602082015250565b6000614e6d6021836139aa565b9150614e7882614e11565b604082019050919050565b60006020820190508181036000830152614e9c81614e60565b9050919050565b7f27353733373827206973206e6f742072657475726e696e67202761326330303360008201527f2700000000000000000000000000000000000000000000000000000000000000602082015250565b6000614eff6021836139aa565b9150614f0a82614ea3565b604082019050919050565b60006020820190508181036000830152614f2e81614ef2565b9050919050565b7f27343736373327206973206e6f742072657475726e696e67202762396634303260008201527f2700000000000000000000000000000000000000000000000000000000000000602082015250565b6000614f916021836139aa565b9150614f9c82614f35565b604082019050919050565b60006020820190508181036000830152614fc081614f84565b9050919050565b7f27353931333827206973206e6f742072657475726e696e67202738326365303360008201527f2700000000000000000000000000000000000000000000000000000000000000602082015250565b60006150236021836139aa565b915061502e82614fc7565b604082019050919050565b6000602082019050818103600083015261505281615016565b9050919050565b7f27333732303227206973206e6f742072657475726e696e67202764326132303260008201527f2700000000000000000000000000000000000000000000000000000000000000602082015250565b60006150b56021836139aa565b91506150c082615059565b604082019050919050565b600060208201905081810360008301526150e4816150a8565b9050919050565b7f27343930363327206973206e6f742072657475726e696e67202761376666303260008201527f2700000000000000000000000000000000000000000000000000000000000000602082015250565b60006151476021836139aa565b9150615152826150eb565b604082019050919050565b600060208201905081810360008301526151768161513a565b9050919050565b7f27343738313927206973206e6f742072657475726e696e67202763626635303260008201527f2700000000000000000000000000000000000000000000000000000000000000602082015250565b60006151d96021836139aa565b91506151e48261517d565b604082019050919050565b60006020820190508181036000830152615208816151cc565b9050919050565b7f27353238333227206973206e6f742072657475726e696e67202765303963303360008201527f2700000000000000000000000000000000000000000000000000000000000000602082015250565b600061526b6021836139aa565b91506152768261520f565b604082019050919050565b6000602082019050818103600083015261529a8161525e565b9050919050565b7f27363032333627206973206e6f742072657475726e696e67202763636436303360008201527f2700000000000000000000000000000000000000000000000000000000000000602082015250565b60006152fd6021836139aa565b9150615308826152a1565b604082019050919050565b6000602082019050818103600083015261532c816152f0565b9050919050565b7f27353533373527206973206e6f742072657475726e696e67202763666230303360008201527f2700000000000000000000000000000000000000000000000000000000000000602082015250565b600061538f6021836139aa565b915061539a82615333565b604082019050919050565b600060208201905081810360008301526153be81615382565b9050919050565b7f273736363327206973206e6f742072657475726e696e67202765663362270000600082015250565b60006153fb601e836139aa565b9150615406826153c5565b602082019050919050565b6000602082019050818103600083015261542a816153ee565b9050919050565b7f273730373427206973206e6f742072657475726e696e67202761323337270000600082015250565b6000615467601e836139aa565b915061547282615431565b602082019050919050565b600060208201905081810360008301526154968161545a565b9050919050565b7f27353739393027206973206e6f742072657475726e696e67202738366335303360008201527f2700000000000000000000000000000000000000000000000000000000000000602082015250565b60006154f96021836139aa565b91506155048261549d565b604082019050919050565b60006020820190508181036000830152615528816154ec565b9050919050565b7f27313839353327206973206e6f742072657475726e696e67202738393934303160008201527f2700000000000000000000000000000000000000000000000000000000000000602082015250565b600061558b6021836139aa565b91506155968261552f565b604082019050919050565b600060208201905081810360008301526155ba8161557e565b9050919050565b7f273531383127206973206e6f742072657475726e696e67202762643238270000600082015250565b60006155f7601e836139aa565b9150615602826155c1565b602082019050919050565b60006020820190508181036000830152615626816155ea565b9050919050565b7f273930313427206973206e6f742072657475726e696e67202762363436270000600082015250565b6000615663601e836139aa565b915061566e8261562d565b602082019050919050565b6000602082019050818103600083015261569281615656565b9050919050565b7f27313036393727206973206e6f742072657475726e696e672027633935332700600082015250565b60006156cf601f836139aa565b91506156da82615699565b602082019050919050565b600060208201905081810360008301526156fe816156c2565b9050919050565b7f27363335393127206973206e6f742072657475726e696e67202765376630303360008201527f2700000000000000000000000000000000000000000000000000000000000000602082015250565b60006157616021836139aa565b915061576c82615705565b604082019050919050565b6000602082019050818103600083015261579081615754565b9050919050565b7f27343637363927206973206e6f742072657475726e696e67202762316564303260008201527f2700000000000000000000000000000000000000000000000000000000000000602082015250565b60006157f36021836139aa565b91506157fe82615797565b604082019050919050565b60006020820190508181036000830152615822816157e6565b9050919050565b7f27353639343127206973206e6f742072657475726e696e67202765646263303360008201527f2700000000000000000000000000000000000000000000000000000000000000602082015250565b60006158856021836139aa565b915061589082615829565b604082019050919050565b600060208201905081810360008301526158b481615878565b9050919050565b7f27343231323727206973206e6f742072657475726e696e67202738666339303260008201527f2700000000000000000000000000000000000000000000000000000000000000602082015250565b60006159176021836139aa565b9150615922826158bb565b604082019050919050565b600060208201905081810360008301526159468161590a565b9050919050565b7f27313932353727206973206e6f742072657475726e696e67202762393936303160008201527f2700000000000000000000000000000000000000000000000000000000000000602082015250565b60006159a96021836139aa565b91506159b48261594d565b604082019050919050565b600060208201905081810360008301526159d88161599c565b9050919050565b7f27313736383427206973206e6f742072657475726e696e67202739343861303160008201527f2700000000000000000000000000000000000000000000000000000000000000602082015250565b6000615a3b6021836139aa565b9150615a46826159df565b604082019050919050565b60006020820190508181036000830152615a6a81615a2e565b9050919050565b7f273133323527206973206e6f742072657475726e696e67202761643061270000600082015250565b6000615aa7601e836139aa565b9150615ab282615a71565b602082019050919050565b60006020820190508181036000830152615ad681615a9a565b9050919050565b7f27363138343027206973206e6f742072657475726e696e67202739306533303360008201527f2700000000000000000000000000000000000000000000000000000000000000602082015250565b6000615b396021836139aa565b9150615b4482615add565b604082019050919050565b60006020820190508181036000830152615b6881615b2c565b9050919050565b7f27343037313027206973206e6f742072657475726e696e67202738366265303260008201527f2700000000000000000000000000000000000000000000000000000000000000602082015250565b6000615bcb6021836139aa565b9150615bd682615b6f565b604082019050919050565b60006020820190508181036000830152615bfa81615bbe565b9050919050565b7f27363230383227206973206e6f742072657475726e696e67202738326535303360008201527f2700000000000000000000000000000000000000000000000000000000000000602082015250565b6000615c5d6021836139aa565b9150615c6882615c01565b604082019050919050565b60006020820190508181036000830152615c8c81615c50565b9050919050565b7f27323333343227206973206e6f742072657475726e696e67202761656236303160008201527f2700000000000000000000000000000000000000000000000000000000000000602082015250565b6000615cef6021836139aa565b9150615cfa82615c93565b604082019050919050565b60006020820190508181036000830152615d1e81615ce2565b9050919050565b7f27333530353827206973206e6f742072657475726e696e67202766323931303260008201527f2700000000000000000000000000000000000000000000000000000000000000602082015250565b6000615d816021836139aa565b9150615d8c82615d25565b604082019050919050565b60006020820190508181036000830152615db081615d74565b9050919050565b7f27343031353927206973206e6f742072657475726e696e67202764666239303260008201527f2700000000000000000000000000000000000000000000000000000000000000602082015250565b6000615e136021836139aa565b9150615e1e82615db7565b604082019050919050565b60006020820190508181036000830152615e4281615e06565b9050919050565b7f27343431383927206973206e6f742072657475726e696e67202739646439303260008201527f2700000000000000000000000000000000000000000000000000000000000000602082015250565b6000615ea56021836139aa565b9150615eb082615e49565b604082019050919050565b60006020820190508181036000830152615ed481615e98565b9050919050565b7f27363230333627206973206e6f742072657475726e696e67202764346534303360008201527f2700000000000000000000000000000000000000000000000000000000000000602082015250565b6000615f376021836139aa565b9150615f4282615edb565b604082019050919050565b60006020820190508181036000830152615f6681615f2a565b9050919050565b7f27343132343727206973206e6f742072657475726e696e67202739666332303260008201527f2700000000000000000000000000000000000000000000000000000000000000602082015250565b6000615fc96021836139aa565b9150615fd482615f6d565b604082019050919050565b60006020820190508181036000830152615ff881615fbc565b9050919050565b7f27353934383027206973206e6f742072657475726e696e67202764386430303360008201527f2700000000000000000000000000000000000000000000000000000000000000602082015250565b600061605b6021836139aa565b915061606682615fff565b604082019050919050565b6000602082019050818103600083015261608a8161604e565b9050919050565b7f27333831383427206973206e6f742072657475726e696e67202761386161303260008201527f2700000000000000000000000000000000000000000000000000000000000000602082015250565b60006160ed6021836139aa565b91506160f882616091565b604082019050919050565b6000602082019050818103600083015261611c816160e0565b9050919050565b7f27313536333827206973206e6f742072657475726e696e672027393637612700600082015250565b6000616159601f836139aa565b915061616482616123565b602082019050919050565b600060208201905081810360008301526161888161614c565b9050919050565b7f27353934343127206973206e6f742072657475726e696e67202762316430303360008201527f2700000000000000000000000000000000000000000000000000000000000000602082015250565b60006161eb6021836139aa565b91506161f68261618f565b604082019050919050565b6000602082019050818103600083015261621a816161de565b9050919050565b7f27333530373727206973206e6f742072657475726e696e67202738353932303260008201527f2700000000000000000000000000000000000000000000000000000000000000602082015250565b600061627d6021836139aa565b915061628882616221565b604082019050919050565b600060208201905081810360008301526162ac81616270565b9050919050565b7f273337323327206973206e6f742072657475726e696e67202738623164270000600082015250565b60006162e9601e836139aa565b91506162f4826162b3565b602082019050919050565b60006020820190508181036000830152616318816162dc565b9050919050565b7f27313933303327206973206e6f742072657475726e696e67202765373936303160008201527f2700000000000000000000000000000000000000000000000000000000000000602082015250565b600061637b6021836139aa565b91506163868261631f565b604082019050919050565b600060208201905081810360008301526163aa8161636e565b9050919050565b7f273338343227206973206e6f742072657475726e696e67202738323165270000600082015250565b60006163e7601e836139aa565b91506163f2826163b1565b602082019050919050565b60006020820190508181036000830152616416816163da565b9050919050565b7f27323636373327206973206e6f742072657475726e696e67202762316430303160008201527f2700000000000000000000000000000000000000000000000000000000000000602082015250565b60006164796021836139aa565b91506164848261641d565b604082019050919050565b600060208201905081810360008301526164a88161646c565b9050919050565b7f27363533373627206973206e6f742072657475726e696e67202765306665303360008201527f2700000000000000000000000000000000000000000000000000000000000000602082015250565b600061650b6021836139aa565b9150616516826164af565b604082019050919050565b6000602082019050818103600083015261653a816164fe565b9050919050565b7f27343138353327206973206e6f742072657475726e696e67202766646336303260008201527f2700000000000000000000000000000000000000000000000000000000000000602082015250565b600061659d6021836139aa565b91506165a882616541565b604082019050919050565b600060208201905081810360008301526165cc81616590565b9050919050565b7f27323939343427206973206e6f742072657475726e696e67202766386539303160008201527f2700000000000000000000000000000000000000000000000000000000000000602082015250565b600061662f6021836139aa565b915061663a826165d3565b604082019050919050565b6000602082019050818103600083015261665e81616622565b9050919050565b7f27333738393927206973206e6f742072657475726e696e67202738626138303260008201527f2700000000000000000000000000000000000000000000000000000000000000602082015250565b60006166c16021836139aa565b91506166cc82616665565b604082019050919050565b600060208201905081810360008301526166f0816166b4565b9050919050565b7f27353834393727206973206e6f742072657475726e696e67202738316339303360008201527f2700000000000000000000000000000000000000000000000000000000000000602082015250565b60006167536021836139aa565b915061675e826166f7565b604082019050919050565b6000602082019050818103600083015261678281616746565b9050919050565b6000819050919050565b7f4e487b7100000000000000000000000000000000000000000000000000000000600052601160045260246000fd5b60006167cd82616789565b91506167d883616789565b92508282019050808211156167f0576167ef616793565b5b92915050565b600061680182616789565b915061680c83616789565b925082820261681a81616789565b9150828204841483151761683157616830616793565b5b5092915050565b7f4e487b7100000000000000000000000000000000000000000000000000000000600052601260045260246000fd5b600061687282616789565b915061687d83616789565b92508261688d5761688c616838565b5b828206905092915050565b60006168a382616789565b91506168ae83616789565b92508282039050818111156168c6576168c5616793565b5b9291505056fea26469706673582212207252866e2dfecd233ae4703d1e42b31b064e850c8c1fa3969ab2905d731505e564736f6c63430008110033",
  "linkReferences": {},
  "deployedLinkReferences": {}
}