{
  "_format": "hh-sol-artifact-1",
  "contractName": "VerifRegApiTest",
  "sourceName": "contracts/zondax/filecoin-solidity/contracts/v0.8/tests/verifreg.test.sol",
  "abi": [
    {
      "inputs": [
        {
          "internalType": "int256",
          "name": "errorCode",
          "type": "int256"
        }
      ],
      "name": "ActorError",
      "type": "error"
    },
    {
      "inputs": [],
      "name": "FailToCallActor",
      "type": "error"
    },
    {
      "inputs": [
        {
          "internalType": "uint64",
          "name": "",
          "type": "uint64"
        }
      ],
      "name": "InvalidCodec",
      "type": "error"
    },
    {
      "inputs": [],
      "name": "InvalidResponseLength",
      "type": "error"
    },
    {
      "inputs": [
        {
          "internalType": "uint256",
          "name": "balance",
          "type": "uint256"
        },
        {
          "internalType": "uint256",
          "name": "value",
          "type": "uint256"
        }
      ],
      "name": "NotEnoughBalance",
      "type": "error"
    },
    {
      "inputs": [
        {
          "components": [
            {
              "components": [
                {
                  "internalType": "bytes",
                  "name": "data",
                  "type": "bytes"
                }
              ],
              "internalType": "struct CommonTypes.FilAddress",
              "name": "addr",
              "type": "tuple"
            },
            {
              "internalType": "bytes",
              "name": "allowance",
              "type": "bytes"
            }
          ],
          "internalType": "struct VerifRegTypes.AddVerifiedClientParams",
          "name": "params",
          "type": "tuple"
        }
      ],
      "name": "add_verified_client",
      "outputs": [],
      "stateMutability": "nonpayable",
      "type": "function"
    },
    {
      "inputs": [
        {
          "components": [
            {
              "components": [
                {
                  "internalType": "CommonTypes.FilActorId",
                  "name": "provider",
                  "type": "uint64"
                },
                {
                  "internalType": "CommonTypes.FilActorId",
                  "name": "claim_id",
                  "type": "uint64"
                },
                {
                  "internalType": "int64",
                  "name": "term_max",
                  "type": "int64"
                }
              ],
              "internalType": "struct VerifRegTypes.ClaimTerm[]",
              "name": "terms",
              "type": "tuple[]"
            }
          ],
          "internalType": "struct VerifRegTypes.ExtendClaimTermsParams",
          "name": "params",
          "type": "tuple"
        }
      ],
      "name": "extend_claim_terms",
      "outputs": [
        {
          "components": [
            {
              "internalType": "uint32",
              "name": "success_count",
              "type": "uint32"
            },
            {
              "components": [
                {
                  "internalType": "uint32",
                  "name": "idx",
                  "type": "uint32"
                },
                {
                  "internalType": "uint32",
                  "name": "code",
                  "type": "uint32"
                }
              ],
              "internalType": "struct CommonTypes.FailCode[]",
              "name": "fail_codes",
              "type": "tuple[]"
            }
          ],
          "internalType": "struct CommonTypes.BatchReturn",
          "name": "",
          "type": "tuple"
        }
      ],
      "stateMutability": "nonpayable",
      "type": "function"
    },
    {
      "inputs": [
        {
          "components": [
            {
              "internalType": "CommonTypes.FilActorId",
              "name": "provider",
              "type": "uint64"
            },
            {
              "internalType": "CommonTypes.FilActorId[]",
              "name": "claim_ids",
              "type": "uint64[]"
            }
          ],
          "internalType": "struct VerifRegTypes.GetClaimsParams",
          "name": "params",
          "type": "tuple"
        }
      ],
      "name": "get_claims",
      "outputs": [
        {
          "components": [
            {
              "components": [
                {
                  "internalType": "uint32",
                  "name": "success_count",
                  "type": "uint32"
                },
                {
                  "components": [
                    {
                      "internalType": "uint32",
                      "name": "idx",
                      "type": "uint32"
                    },
                    {
                      "internalType": "uint32",
                      "name": "code",
                      "type": "uint32"
                    }
                  ],
                  "internalType": "struct CommonTypes.FailCode[]",
                  "name": "fail_codes",
                  "type": "tuple[]"
                }
              ],
              "internalType": "struct CommonTypes.BatchReturn",
              "name": "batch_info",
              "type": "tuple"
            },
            {
              "components": [
                {
                  "internalType": "CommonTypes.FilActorId",
                  "name": "provider",
                  "type": "uint64"
                },
                {
                  "internalType": "CommonTypes.FilActorId",
                  "name": "client",
                  "type": "uint64"
                },
                {
                  "internalType": "bytes",
                  "name": "data",
                  "type": "bytes"
                },
                {
                  "internalType": "uint64",
                  "name": "size",
                  "type": "uint64"
                },
                {
                  "internalType": "int64",
                  "name": "term_min",
                  "type": "int64"
                },
                {
                  "internalType": "int64",
                  "name": "term_max",
                  "type": "int64"
                },
                {
                  "internalType": "int64",
                  "name": "term_start",
                  "type": "int64"
                },
                {
                  "internalType": "CommonTypes.FilActorId",
                  "name": "sector",
                  "type": "uint64"
                }
              ],
              "internalType": "struct VerifRegTypes.Claim[]",
              "name": "claims",
              "type": "tuple[]"
            }
          ],
          "internalType": "struct VerifRegTypes.GetClaimsReturn",
          "name": "",
          "type": "tuple"
        }
      ],
      "stateMutability": "nonpayable",
      "type": "function"
    },
    {
      "inputs": [
        {
          "components": [
            {
              "internalType": "CommonTypes.FilActorId",
              "name": "client",
              "type": "uint64"
            },
            {
              "internalType": "CommonTypes.FilActorId[]",
              "name": "allocation_ids",
              "type": "uint64[]"
            }
          ],
          "internalType": "struct VerifRegTypes.RemoveExpiredAllocationsParams",
          "name": "params",
          "type": "tuple"
        }
      ],
      "name": "remove_expired_allocations",
      "outputs": [
        {
          "components": [
            {
              "internalType": "CommonTypes.FilActorId[]",
              "name": "considered",
              "type": "uint64[]"
            },
            {
              "components": [
                {
                  "internalType": "uint32",
                  "name": "success_count",
                  "type": "uint32"
                },
                {
                  "components": [
                    {
                      "internalType": "uint32",
                      "name": "idx",
                      "type": "uint32"
                    },
                    {
                      "internalType": "uint32",
                      "name": "code",
                      "type": "uint32"
                    }
                  ],
                  "internalType": "struct CommonTypes.FailCode[]",
                  "name": "fail_codes",
                  "type": "tuple[]"
                }
              ],
              "internalType": "struct CommonTypes.BatchReturn",
              "name": "results",
              "type": "tuple"
            },
            {
              "components": [
                {
                  "internalType": "bytes",
                  "name": "val",
                  "type": "bytes"
                },
                {
                  "internalType": "bool",
                  "name": "neg",
                  "type": "bool"
                }
              ],
              "internalType": "struct CommonTypes.BigInt",
              "name": "datacap_recovered",
              "type": "tuple"
            }
          ],
          "internalType": "struct VerifRegTypes.RemoveExpiredAllocationsReturn",
          "name": "",
          "type": "tuple"
        }
      ],
      "stateMutability": "nonpayable",
      "type": "function"
    },
    {
      "inputs": [
        {
          "components": [
            {
              "internalType": "CommonTypes.FilActorId",
              "name": "provider",
              "type": "uint64"
            },
            {
              "internalType": "CommonTypes.FilActorId[]",
              "name": "claim_ids",
              "type": "uint64[]"
            }
          ],
          "internalType": "struct VerifRegTypes.RemoveExpiredClaimsParams",
          "name": "params",
          "type": "tuple"
        }
      ],
      "name": "remove_expired_claims",
      "outputs": [
        {
          "components": [
            {
              "internalType": "CommonTypes.FilActorId[]",
              "name": "considered",
              "type": "uint64[]"
            },
            {
              "components": [
                {
                  "internalType": "uint32",
                  "name": "success_count",
                  "type": "uint32"
                },
                {
                  "components": [
                    {
                      "internalType": "uint32",
                      "name": "idx",
                      "type": "uint32"
                    },
                    {
                      "internalType": "uint32",
                      "name": "code",
                      "type": "uint32"
                    }
                  ],
                  "internalType": "struct CommonTypes.FailCode[]",
                  "name": "fail_codes",
                  "type": "tuple[]"
                }
              ],
              "internalType": "struct CommonTypes.BatchReturn",
              "name": "results",
              "type": "tuple"
            }
          ],
          "internalType": "struct VerifRegTypes.RemoveExpiredClaimsReturn",
          "name": "",
          "type": "tuple"
        }
      ],
      "stateMutability": "nonpayable",
      "type": "function"
    }
  ],
  "bytecode": "0x608060405234801561001057600080fd5b50613f8f806100206000396000f3fe608060405234801561001057600080fd5b50600436106100575760003560e01c806352ef93431461005c578063b465cbb614610078578063d8308b8c146100a8578063dbcb98ab146100d8578063df55272514610108575b600080fd5b61007660048036038101906100719190612901565b610138565b005b610092600480360381019061008d9190612b47565b610144565b60405161009f9190612cca565b60405180910390f35b6100c260048036038101906100bd9190612e1b565b61015c565b6040516100cf9190612fcf565b60405180910390f35b6100f260048036038101906100ed919061305d565b610174565b6040516100ff91906132f9565b60405180910390f35b610122600480360381019061011d9190613387565b61018c565b60405161012f9190613486565b60405180910390f35b610141816101a4565b50565b61014c61253e565b6101558261020a565b9050919050565b61016461255e565b61016d8261024a565b9050919050565b61017c61257e565b6101858261028a565b9050919050565b61019461259e565b61019d826102cb565b9050919050565b60006101af8261030b565b905060006101c8600663e96cc6f0605185600080610372565b90506000815114610205576040517f0e74990700000000000000000000000000000000000000000000000000000000815260040160405180910390fd5b505050565b61021261253e565b600061021d836104c7565b905060006102366006636871926a605185600080610372565b9050610241816105ec565b92505050919050565b61025261255e565b600061025d836107ac565b90506000610276600663ab4434cb605185600080610372565b905061028181610866565b92505050919050565b61029261257e565b600061029d83610b3b565b905060006102b7600663831f5ed360518560006001610372565b90506102c281610bf5565b92505050919050565b6102d361259e565b60006102de83611104565b905060006102f7600663904e91ec605185600080610372565b9050610302816111be565b92505050919050565b6060600061031960406114c2565b905061032f6002826114e990919063ffffffff16565b61034a836000015160000151826114f990919063ffffffff16565b6103618360200151826114f990919063ffffffff16565b61036a81611522565b915050919050565b60606000479050838110156103c05780846040517f8f0f42060000000000000000000000000000000000000000000000000000000081526004016103b79291906134c1565b60405180910390fd5b60008073fe0000000000000000000000000000000000000573ffffffffffffffffffffffffffffffffffffffff168987876103fc5760006103ff565b60015b8b8b8f60405160200161041796959493929190613552565b60405160208183030381529060405260405161043391906135f6565b600060405180830381855af49150503d806000811461046e576040519150601f19603f3d011682016040523d82523d6000602084013e610473565b606091505b5091509150816104af576040517f8a7db5bf00000000000000000000000000000000000000000000000000000000815260040160405180910390fd5b6104b88161157b565b93505050509695505050505050565b606060006104d560406114c2565b9050600083600001515190506104f56001836114e990919063ffffffff16565b61050881836114e990919063ffffffff16565b60005b818110156105d9576105276003846114e990919063ffffffff16565b61055c856000015182815181106105415761054061360d565b5b6020026020010151600001518461170290919063ffffffff16565b610591856000015182815181106105765761057561360d565b5b6020026020010151602001518461170290919063ffffffff16565b6105c6856000015182815181106105ab576105aa61360d565b5b6020026020010151604001518461171990919063ffffffff16565b80806105d19061366b565b91505061050b565b506105e382611522565b92505050919050565b6105f461253e565b60008061060a828561177190919063ffffffff16565b809350819250505060028114610623576106226136b3565b5b61063682856117f290919063ffffffff16565b846000018194508263ffffffff1663ffffffff168152505050610662828561177190919063ffffffff16565b80935081925050508067ffffffffffffffff811115610684576106836126e7565b5b6040519080825280602002602001820160405280156106bd57816020015b6106aa6125cb565b8152602001906001900390816106a25790505b50836020018190525060005b818110156107a4576106e4838661177190919063ffffffff16565b8094508193505050600282146106fd576106fc6136b3565b5b61071083866117f290919063ffffffff16565b856020015183815181106107275761072661360d565b5b60200260200101516000018195508263ffffffff1663ffffffff16815250505061075a83866117f290919063ffffffff16565b856020015183815181106107715761077061360d565b5b60200260200101516020018195508263ffffffff1663ffffffff168152505050808061079c9061366b565b9150506106c9565b505050919050565b606060006107ba60406114c2565b9050600083602001515190506107da6002836114e990919063ffffffff16565b6107f184600001518361170290919063ffffffff16565b61080481836114e990919063ffffffff16565b60005b8181101561085357610840856020015182815181106108295761082861360d565b5b60200260200101518461170290919063ffffffff16565b808061084b9061366b565b915050610807565b5061085d82611522565b92505050919050565b61086e61255e565b600080610884828561177190919063ffffffff16565b80935081925050506002811461089d5761089c6136b3565b5b6108b0828561177190919063ffffffff16565b80935081925050508067ffffffffffffffff8111156108d2576108d16126e7565b5b6040519080825280602002602001820160405280156109005781602001602082028036833780820191505090505b50836000018190525060005b8181101561097557610927838661187390919063ffffffff16565b8560000151838151811061093e5761093d61360d565b5b602002602001018195508267ffffffffffffffff1667ffffffffffffffff168152505050808061096d9061366b565b91505061090c565b50610989828561177190919063ffffffff16565b8093508192505050600281146109a2576109a16136b3565b5b6109b582856117f290919063ffffffff16565b84602001516000018194508263ffffffff1663ffffffff1681525050506109e5828561177190919063ffffffff16565b80935081925050508067ffffffffffffffff811115610a0757610a066126e7565b5b604051908082528060200260200182016040528015610a4057816020015b610a2d6125cb565b815260200190600190039081610a255790505b5083602001516020018190525060005b81811015610b3357610a6b838661177190919063ffffffff16565b809450819350505060028214610a8457610a836136b3565b5b610a9783866117f290919063ffffffff16565b8560200151602001518381518110610ab257610ab161360d565b5b60200260200101516000018195508263ffffffff1663ffffffff168152505050610ae583866117f290919063ffffffff16565b8560200151602001518381518110610b0057610aff61360d565b5b60200260200101516020018195508263ffffffff1663ffffffff1681525050508080610b2b9061366b565b915050610a50565b505050919050565b60606000610b4960406114c2565b905060008360200151519050610b696002836114e990919063ffffffff16565b610b8084600001518361170290919063ffffffff16565b610b9381836114e990919063ffffffff16565b60005b81811015610be257610bcf85602001518281518110610bb857610bb761360d565b5b60200260200101518461170290919063ffffffff16565b8080610bda9061366b565b915050610b96565b50610bec82611522565b92505050919050565b610bfd61257e565b600080610c13828561177190919063ffffffff16565b809350819250505060028114610c2c57610c2b6136b3565b5b610c3f828561177190919063ffffffff16565b809350819250505060028114610c5857610c576136b3565b5b610c6b82856117f290919063ffffffff16565b84600001516000018194508263ffffffff1663ffffffff168152505050610c9b828561177190919063ffffffff16565b80935081925050508067ffffffffffffffff811115610cbd57610cbc6126e7565b5b604051908082528060200260200182016040528015610cf657816020015b610ce36125cb565b815260200190600190039081610cdb5790505b5083600001516020018190525060005b81811015610de957610d21838661177190919063ffffffff16565b809450819350505060028214610d3a57610d396136b3565b5b610d4d83866117f290919063ffffffff16565b8560000151602001518381518110610d6857610d6761360d565b5b60200260200101516000018195508263ffffffff1663ffffffff168152505050610d9b83866117f290919063ffffffff16565b8560000151602001518381518110610db657610db561360d565b5b60200260200101516020018195508263ffffffff1663ffffffff1681525050508080610de19061366b565b915050610d06565b50610dfd828561177190919063ffffffff16565b80935081925050508067ffffffffffffffff811115610e1f57610e1e6126e7565b5b604051908082528060200260200182016040528015610e5857816020015b610e456125f1565b815260200190600190039081610e3d5790505b50836020018190525060005b818110156110fc57610e7f838661177190919063ffffffff16565b809450819350505060088214610e9857610e976136b3565b5b610eab838661187390919063ffffffff16565b85602001518381518110610ec257610ec161360d565b5b60200260200101516000018195508267ffffffffffffffff1667ffffffffffffffff168152505050610efd838661187390919063ffffffff16565b85602001518381518110610f1457610f1361360d565b5b60200260200101516020018195508267ffffffffffffffff1667ffffffffffffffff168152505050610f4f83866118a190919063ffffffff16565b85602001518381518110610f6657610f6561360d565b5b60200260200101516040018195508290525050610f8c8386611a7d90919063ffffffff16565b85602001518381518110610fa357610fa261360d565b5b60200260200101516060018195508267ffffffffffffffff1667ffffffffffffffff168152505050610fde8386611afe90919063ffffffff16565b85602001518381518110610ff557610ff461360d565b5b60200260200101516080018195508260070b60070b81525050506110228386611afe90919063ffffffff16565b856020015183815181106110395761103861360d565b5b602002602001015160a0018195508260070b60070b81525050506110668386611afe90919063ffffffff16565b8560200151838151811061107d5761107c61360d565b5b602002602001015160c0018195508260070b60070b81525050506110aa838661187390919063ffffffff16565b856020015183815181106110c1576110c061360d565b5b602002602001015160e0018195508267ffffffffffffffff1667ffffffffffffffff16815250505080806110f49061366b565b915050610e64565b505050919050565b6060600061111260406114c2565b9050600083602001515190506111326002836114e990919063ffffffff16565b61114984600001518361170290919063ffffffff16565b61115c81836114e990919063ffffffff16565b60005b818110156111ab57611198856020015182815181106111815761118061360d565b5b60200260200101518461170290919063ffffffff16565b80806111a39061366b565b91505061115f565b506111b582611522565b92505050919050565b6111c661259e565b6000806111dc828561177190919063ffffffff16565b8093508192505050600381146111f5576111f46136b3565b5b611208828561177190919063ffffffff16565b80935081925050508067ffffffffffffffff81111561122a576112296126e7565b5b6040519080825280602002602001820160405280156112585781602001602082028036833780820191505090505b50836000018190525060005b818110156112cd5761127f838661187390919063ffffffff16565b856000015183815181106112965761129561360d565b5b602002602001018195508267ffffffffffffffff1667ffffffffffffffff16815250505080806112c59061366b565b915050611264565b506112e1828561177190919063ffffffff16565b8093508192505050600281146112fa576112f96136b3565b5b61130d82856117f290919063ffffffff16565b84602001516000018194508263ffffffff1663ffffffff16815250505061133d828561177190919063ffffffff16565b80935081925050508067ffffffffffffffff81111561135f5761135e6126e7565b5b60405190808252806020026020018201604052801561139857816020015b6113856125cb565b81526020019060019003908161137d5790505b5083602001516020018190525060005b8181101561148b576113c3838661177190919063ffffffff16565b8094508193505050600282146113dc576113db6136b3565b5b6113ef83866117f290919063ffffffff16565b856020015160200151838151811061140a5761140961360d565b5b60200260200101516000018195508263ffffffff1663ffffffff16815250505061143d83866117f290919063ffffffff16565b85602001516020015183815181106114585761145761360d565b5b60200260200101516020018195508263ffffffff1663ffffffff16815250505080806114839061366b565b9150506113a8565b5060606114a183866118a190919063ffffffff16565b80945081925050506114b281611b90565b8460400181905250505050919050565b6114ca612667565b6114d8816000015183611d37565b506000816020018181525050919050565b6114f582600483611db0565b5050565b6115068260028351611dc0565b61151d818360000151611f6990919063ffffffff16565b505050565b6060600082602001511461156b576040517f08c379a00000000000000000000000000000000000000000000000000000000081526004016115629061373f565b60405180910390fd5b8160000151600001519050919050565b60606000806000848060200190518101906115969190613831565b925092509250600067ffffffffffffffff168267ffffffffffffffff16036115f85760008151146115f3576040517f0e74990700000000000000000000000000000000000000000000000000000000815260040160405180910390fd5b6116b2565b605167ffffffffffffffff168267ffffffffffffffff16148061162f5750607167ffffffffffffffff168267ffffffffffffffff16145b1561167457600081510361166f576040517f0e74990700000000000000000000000000000000000000000000000000000000815260040160405180910390fd5b6116b1565b816040517ff1f6bced0000000000000000000000000000000000000000000000000000000081526004016116a891906138a0565b60405180910390fd5b5b600083146116f757826040517fd4bb66710000000000000000000000000000000000000000000000000000000081526004016116ee91906138ca565b60405180910390fd5b809350505050919050565b6117158183611f8590919063ffffffff16565b5050565b60008160070b126117355761173082600083611dc0565b61176d565b61176c826001837fffffffffffffffffffffffffffffffffffffffffffffffffffffffffffffffff61176791906138e5565b611dc0565b5b5050565b6000806000806117818686611f95565b8167ffffffffffffffff169150809750819350829450505050600460ff168260ff16146117e3576040517f08c379a00000000000000000000000000000000000000000000000000000000081526004016117da90613991565b60405180910390fd5b80859350935050509250929050565b6000806000806118028686611f95565b8167ffffffffffffffff169150809750819350829450505050600060ff168260ff1614611864576040517f08c379a000000000000000000000000000000000000000000000000000000000815260040161185b90613a23565b60405180910390fd5b80859350935050509250929050565b600080600061188b8486611a7d90919063ffffffff16565b8095508192505050808492509250509250929050565b606060008060006118b28686611f95565b8167ffffffffffffffff169150809750819350829450505050600660ff168260ff1614806118e65750600260ff168260ff16145b611925576040517f08c379a000000000000000000000000000000000000000000000000000000000815260040161191c90613ab5565b60405180910390fd5b600660ff168260ff160361196e5761193d8686611f95565b8167ffffffffffffffff169150809750819350829450505050600260ff168260ff161461196d5761196c6136b3565b5b5b6000818661197c9190613ad5565b905060008267ffffffffffffffff81111561199a576119996126e7565b5b6040519080825280601f01601f1916602001820160405280156119cc5781602001600182028036833780820191505090505b5090506000808890505b83811015611a5f578981815181106119f1576119f061360d565b5b602001015160f81c60f81b838381518110611a0f57611a0e61360d565b5b60200101907effffffffffffffffffffffffffffffffffffffffffffffffffffffffffffff1916908160001a9053508180611a499061366b565b9250508080611a579061366b565b9150506119d6565b50818489611a6d9190613ad5565b9650965050505050509250929050565b600080600080611a8d8686611f95565b8167ffffffffffffffff169150809750819350829450505050600060ff168260ff1614611aef576040517f08c379a0000000000000000000000000000000000000000000000000000000008152600401611ae690613a23565b60405180910390fd5b80859350935050509250929050565b600080600080611b0e8686611f95565b8167ffffffffffffffff169150809750819350829450505050600160ff168260ff161480611b425750600060ff168260ff16145b611b81576040517f08c379a0000000000000000000000000000000000000000000000000000000008152600401611b7890613b7b565b60405180910390fd5b80859350935050509250929050565b611b98612687565b6000825103611bd657604051806040016040528060405180604001604052806001815260200160008152508152602001600015158152509050611d32565b600060018351611be69190613b9b565b67ffffffffffffffff811115611bff57611bfe6126e7565b5b6040519080825280601f01601f191660200182016040528015611c315781602001600182028036833780820191505090505b5090506000600160f81b84600081518110611c4f57611c4e61360d565b5b602001015160f81c60f81b7effffffffffffffffffffffffffffffffffffffffffffffffffffffffffffff191603611c8657600190505b6000600190505b8451811015611d1557848181518110611ca957611ca861360d565b5b602001015160f81c60f81b83600183611cc29190613b9b565b81518110611cd357611cd261360d565b5b60200101907effffffffffffffffffffffffffffffffffffffffffffffffffffffffffffff1916908160001a9053508080611d0d9061366b565b915050611c8d565b506040518060400160405280838152602001821515815250925050505b919050565b611d3f6126a3565b6000602083611d4e9190613bfe565b14611d7a57602082611d609190613bfe565b6020611d6c9190613b9b565b82611d779190613ad5565b91505b818360200181815250506040518084526000815282810160200181811015611da157600080fd5b80604052505082905092915050565b611dbb838383611dc0565b505050565b60178167ffffffffffffffff1611611dfb57611df58160058460ff16901b60ff1617846000015161218790919063ffffffff16565b50611f64565b60ff8167ffffffffffffffff1611611e5957611e2e601860058460ff16901b17846000015161218790919063ffffffff16565b50611e538167ffffffffffffffff16600185600001516121f19092919063ffffffff16565b50611f63565b61ffff8167ffffffffffffffff1611611eb857611e8d601960058460ff16901b17846000015161218790919063ffffffff16565b50611eb28167ffffffffffffffff16600285600001516121f19092919063ffffffff16565b50611f62565b63ffffffff8167ffffffffffffffff1611611f1957611eee601a60058460ff16901b17846000015161218790919063ffffffff16565b50611f138167ffffffffffffffff16600485600001516121f19092919063ffffffff16565b50611f61565b611f3a601b60058460ff16901b17846000015161218790919063ffffffff16565b50611f5f8167ffffffffffffffff16600885600001516121f19092919063ffffffff16565b505b5b5b5b505050565b611f716126a3565b611f7d8383845161227e565b905092915050565b611f9182600083611dc0565b5050565b600080600080611fa58686612361565b9050600185611fb49190613ad5565b94506000600560e0831660ff16901c90506000601f83169050601c8160ff1610612013576040517f08c379a000000000000000000000000000000000000000000000000000000000815260040161200a90613ca1565b60405180910390fd5b60188160ff161015612036578181888160ff169150955095509550505050612180565b60188160ff16036120bd57600061204d8989612361565b905060018861205c9190613ad5565b975060188160ff1610156120a5576040517f08c379a000000000000000000000000000000000000000000000000000000000815260040161209c90613d0d565b60405180910390fd5b8281898160ff16915096509650965050505050612180565b60198160ff16036120fe5760006120d489896123dc565b90506002886120e39190613ad5565b97508281898161ffff16915096509650965050505050612180565b601a8160ff16036121415760006121158989612446565b90506004886121249190613ad5565b97508281898163ffffffff16915096509650965050505050612180565b601b8160ff1614612155576121546136b3565b5b600061216189896124b0565b90506008886121709190613ad5565b9750828189965096509650505050505b9250925092565b61218f6126a3565b6000836000015151905060006001826121a89190613ad5565b9050846020015182106121cc576121cb856002836121c69190613d2d565b61251a565b5b845160208382010185815381518311156121e4578282525b5050849250505092915050565b6121f96126a3565b60008460000151519050600081846122119190613ad5565b9050856020015181111561223657612235866002836122309190613d2d565b61251a565b5b60006001856101006122489190613ea2565b6122529190613b9b565b90508651828101878319825116178152815184111561226f578382525b50508693505050509392505050565b6122866126a3565b825182111561229457600080fd5b60008460000151519050600083826122ac9190613ad5565b905085602001518111156122d1576122d0866002836122cb9190613d2d565b61251a565b5b600080875180518560208301019350808511156122ec578482525b60208901925050505b60208610612333578051825260208261230e9190613ad5565b915060208161231d9190613ad5565b905060208661232c9190613b9b565b95506122f5565b60006001876020036101000a0390508019825116818451168181178552505050879450505050509392505050565b60006001826123709190613ad5565b835110156123b3576040517f08c379a00000000000000000000000000000000000000000000000000000000081526004016123aa90613f39565b60405180910390fd5b8282815181106123c6576123c561360d565b5b602001015160f81c60f81b60f81c905092915050565b60006002826123eb9190613ad5565b8351101561242e576040517f08c379a000000000000000000000000000000000000000000000000000000000815260040161242590613f39565b60405180910390fd5b60008260200184015190508060f01c91505092915050565b60006004826124559190613ad5565b83511015612498576040517f08c379a000000000000000000000000000000000000000000000000000000000815260040161248f90613f39565b60405180910390fd5b60008260200184015190508060e01c91505092915050565b60006008826124bf9190613ad5565b83511015612502576040517f08c379a00000000000000000000000000000000000000000000000000000000081526004016124f990613f39565b60405180910390fd5b60008260200184015190508060c01c91505092915050565b60008260000151905061252d8383611d37565b506125388382611f69565b50505050565b6040518060400160405280600063ffffffff168152602001606081525090565b60405180604001604052806060815260200161257861253e565b81525090565b604051806040016040528061259161253e565b8152602001606081525090565b6040518060600160405280606081526020016125b861253e565b81526020016125c5612687565b81525090565b6040518060400160405280600063ffffffff168152602001600063ffffffff1681525090565b604051806101000160405280600067ffffffffffffffff168152602001600067ffffffffffffffff16815260200160608152602001600067ffffffffffffffff168152602001600060070b8152602001600060070b8152602001600060070b8152602001600067ffffffffffffffff1681525090565b604051806040016040528061267a6126a3565b8152602001600081525090565b6040518060400160405280606081526020016000151581525090565b604051806040016040528060608152602001600081525090565b6000604051905090565b600080fd5b600080fd5b600080fd5b6000601f19601f8301169050919050565b7f4e487b7100000000000000000000000000000000000000000000000000000000600052604160045260246000fd5b61271f826126d6565b810181811067ffffffffffffffff8211171561273e5761273d6126e7565b5b80604052505050565b60006127516126bd565b905061275d8282612716565b919050565b600080fd5b600080fd5b600080fd5b600067ffffffffffffffff82111561278c5761278b6126e7565b5b612795826126d6565b9050602081019050919050565b82818337600083830152505050565b60006127c46127bf84612771565b612747565b9050828152602081018484840111156127e0576127df61276c565b5b6127eb8482856127a2565b509392505050565b600082601f83011261280857612807612767565b5b81356128188482602086016127b1565b91505092915050565b600060208284031215612837576128366126d1565b5b6128416020612747565b9050600082013567ffffffffffffffff81111561286157612860612762565b5b61286d848285016127f3565b60008301525092915050565b60006040828403121561288f5761288e6126d1565b5b6128996040612747565b9050600082013567ffffffffffffffff8111156128b9576128b8612762565b5b6128c584828501612821565b600083015250602082013567ffffffffffffffff8111156128e9576128e8612762565b5b6128f5848285016127f3565b60208301525092915050565b600060208284031215612917576129166126c7565b5b600082013567ffffffffffffffff811115612935576129346126cc565b5b61294184828501612879565b91505092915050565b600067ffffffffffffffff821115612965576129646126e7565b5b602082029050602081019050919050565b600080fd5b600067ffffffffffffffff82169050919050565b6129988161297b565b81146129a357600080fd5b50565b6000813590506129b58161298f565b92915050565b60008160070b9050919050565b6129d1816129bb565b81146129dc57600080fd5b50565b6000813590506129ee816129c8565b92915050565b600060608284031215612a0a57612a096126d1565b5b612a146060612747565b90506000612a24848285016129a6565b6000830152506020612a38848285016129a6565b6020830152506040612a4c848285016129df565b60408301525092915050565b6000612a6b612a668461294a565b612747565b90508083825260208201905060608402830185811115612a8e57612a8d612976565b5b835b81811015612ab75780612aa388826129f4565b845260208401935050606081019050612a90565b5050509392505050565b600082601f830112612ad657612ad5612767565b5b8135612ae6848260208601612a58565b91505092915050565b600060208284031215612b0557612b046126d1565b5b612b0f6020612747565b9050600082013567ffffffffffffffff811115612b2f57612b2e612762565b5b612b3b84828501612ac1565b60008301525092915050565b600060208284031215612b5d57612b5c6126c7565b5b600082013567ffffffffffffffff811115612b7b57612b7a6126cc565b5b612b8784828501612aef565b91505092915050565b600063ffffffff82169050919050565b612ba981612b90565b82525050565b600081519050919050565b600082825260208201905092915050565b6000819050602082019050919050565b604082016000820151612bf16000850182612ba0565b506020820151612c046020850182612ba0565b50505050565b6000612c168383612bdb565b60408301905092915050565b6000602082019050919050565b6000612c3a82612baf565b612c448185612bba565b9350612c4f83612bcb565b8060005b83811015612c80578151612c678882612c0a565b9750612c7283612c22565b925050600181019050612c53565b5085935050505092915050565b6000604083016000830151612ca56000860182612ba0565b5060208301518482036020860152612cbd8282612c2f565b9150508091505092915050565b60006020820190508181036000830152612ce48184612c8d565b905092915050565b600067ffffffffffffffff821115612d0757612d066126e7565b5b602082029050602081019050919050565b6000612d2b612d2684612cec565b612747565b90508083825260208201905060208402830185811115612d4e57612d4d612976565b5b835b81811015612d775780612d6388826129a6565b845260208401935050602081019050612d50565b5050509392505050565b600082601f830112612d9657612d95612767565b5b8135612da6848260208601612d18565b91505092915050565b600060408284031215612dc557612dc46126d1565b5b612dcf6040612747565b90506000612ddf848285016129a6565b600083015250602082013567ffffffffffffffff811115612e0357612e02612762565b5b612e0f84828501612d81565b60208301525092915050565b600060208284031215612e3157612e306126c7565b5b600082013567ffffffffffffffff811115612e4f57612e4e6126cc565b5b612e5b84828501612daf565b91505092915050565b600081519050919050565b600082825260208201905092915050565b6000819050602082019050919050565b6000819050919050565b6000612eb5612eb0612eab8461297b565b612e90565b61297b565b9050919050565b612ec581612e9a565b82525050565b6000612ed78383612ebc565b60208301905092915050565b6000602082019050919050565b6000612efb82612e64565b612f058185612e6f565b9350612f1083612e80565b8060005b83811015612f41578151612f288882612ecb565b9750612f3383612ee3565b925050600181019050612f14565b5085935050505092915050565b6000604083016000830151612f666000860182612ba0565b5060208301518482036020860152612f7e8282612c2f565b9150508091505092915050565b60006040830160008301518482036000860152612fa88282612ef0565b91505060208301518482036020860152612fc28282612f4e565b9150508091505092915050565b60006020820190508181036000830152612fe98184612f8b565b905092915050565b600060408284031215613007576130066126d1565b5b6130116040612747565b90506000613021848285016129a6565b600083015250602082013567ffffffffffffffff81111561304557613044612762565b5b61305184828501612d81565b60208301525092915050565b600060208284031215613073576130726126c7565b5b600082013567ffffffffffffffff811115613091576130906126cc565b5b61309d84828501612ff1565b91505092915050565b600081519050919050565b600082825260208201905092915050565b6000819050602082019050919050565b600081519050919050565b600082825260208201905092915050565b60005b8381101561310c5780820151818401526020810190506130f1565b60008484015250505050565b6000613123826130d2565b61312d81856130dd565b935061313d8185602086016130ee565b613146816126d6565b840191505092915050565b61315a8161297b565b82525050565b613169816129bb565b82525050565b6000610100830160008301516131886000860182612ebc565b50602083015161319b6020860182612ebc565b50604083015184820360408601526131b38282613118565b91505060608301516131c86060860182613151565b5060808301516131db6080860182613160565b5060a08301516131ee60a0860182613160565b5060c083015161320160c0860182613160565b5060e083015161321460e0860182612ebc565b508091505092915050565b600061322b838361316f565b905092915050565b6000602082019050919050565b600061324b826130a6565b61325581856130b1565b935083602082028501613267856130c2565b8060005b858110156132a35784840389528151613284858261321f565b945061328f83613233565b925060208a0199505060018101905061326b565b50829750879550505050505092915050565b600060408301600083015184820360008601526132d28282612f4e565b915050602083015184820360208601526132ec8282613240565b9150508091505092915050565b6000602082019050818103600083015261331381846132b5565b905092915050565b600060408284031215613331576133306126d1565b5b61333b6040612747565b9050600061334b848285016129a6565b600083015250602082013567ffffffffffffffff81111561336f5761336e612762565b5b61337b84828501612d81565b60208301525092915050565b60006020828403121561339d5761339c6126c7565b5b600082013567ffffffffffffffff8111156133bb576133ba6126cc565b5b6133c78482850161331b565b91505092915050565b60008115159050919050565b6133e5816133d0565b82525050565b600060408301600083015184820360008601526134088282613118565b915050602083015161341d60208601826133dc565b508091505092915050565b600060608301600083015184820360008601526134458282612ef0565b9150506020830151848203602086015261345f8282612f4e565b9150506040830151848203604086015261347982826133eb565b9150508091505092915050565b600060208201905081810360008301526134a08184613428565b905092915050565b6000819050919050565b6134bb816134a8565b82525050565b60006040820190506134d660008301856134b2565b6134e360208301846134b2565b9392505050565b6134f38161297b565b82525050565b600082825260208201905092915050565b6000613515826130d2565b61351f81856134f9565b935061352f8185602086016130ee565b613538816126d6565b840191505092915050565b61354c81612e9a565b82525050565b600060c08201905061356760008301896134ea565b61357460208301886134b2565b61358160408301876134ea565b61358e60608301866134ea565b81810360808301526135a0818561350a565b90506135af60a0830184613543565b979650505050505050565b600081905092915050565b60006135d0826130d2565b6135da81856135ba565b93506135ea8185602086016130ee565b80840191505092915050565b600061360282846135c5565b915081905092915050565b7f4e487b7100000000000000000000000000000000000000000000000000000000600052603260045260246000fd5b7f4e487b7100000000000000000000000000000000000000000000000000000000600052601160045260246000fd5b6000613676826134a8565b91507fffffffffffffffffffffffffffffffffffffffffffffffffffffffffffffffff82036136a8576136a761363c565b5b600182019050919050565b7f4e487b7100000000000000000000000000000000000000000000000000000000600052600160045260246000fd5b600082825260208201905092915050565b7f496e76616c69642043424f520000000000000000000000000000000000000000600082015250565b6000613729600c836136e2565b9150613734826136f3565b602082019050919050565b600060208201905081810360008301526137588161371c565b9050919050565b6000819050919050565b6137728161375f565b811461377d57600080fd5b50565b60008151905061378f81613769565b92915050565b61379e8161297b565b81146137a957600080fd5b50565b6000815190506137bb81613795565b92915050565b60006137d46137cf84612771565b612747565b9050828152602081018484840111156137f0576137ef61276c565b5b6137fb8482856130ee565b509392505050565b600082601f83011261381857613817612767565b5b81516138288482602086016137c1565b91505092915050565b60008060006060848603121561384a576138496126c7565b5b600061385886828701613780565b9350506020613869868287016137ac565b925050604084015167ffffffffffffffff81111561388a576138896126cc565b5b61389686828701613803565b9150509250925092565b60006020820190506138b560008301846134ea565b92915050565b6138c48161375f565b82525050565b60006020820190506138df60008301846138bb565b92915050565b60006138f0826129bb565b91506138fb836129bb565b92508282039050677fffffffffffffff81137fffffffffffffffffffffffffffffffffffffffffffffffff80000000000000008212171561393f5761393e61363c565b5b92915050565b7f696e76616c6964206d616a20286578706563746564204d616a41727261792900600082015250565b600061397b601f836136e2565b915061398682613945565b602082019050919050565b600060208201905081810360008301526139aa8161396e565b9050919050565b7f696e76616c6964206d616a20286578706563746564204d616a556e7369676e6560008201527f64496e7429000000000000000000000000000000000000000000000000000000602082015250565b6000613a0d6025836136e2565b9150613a18826139b1565b604082019050919050565b60006020820190508181036000830152613a3c81613a00565b9050919050565b7f696e76616c6964206d616a20286578706563746564204d616a546167206f722060008201527f4d616a42797465537472696e6729000000000000000000000000000000000000602082015250565b6000613a9f602e836136e2565b9150613aaa82613a43565b604082019050919050565b60006020820190508181036000830152613ace81613a92565b9050919050565b6000613ae0826134a8565b9150613aeb836134a8565b9250828201905080821115613b0357613b0261363c565b5b92915050565b7f696e76616c6964206d616a20286578706563746564204d616a5369676e65644960008201527f6e74206f72204d616a556e7369676e6564496e74290000000000000000000000602082015250565b6000613b656035836136e2565b9150613b7082613b09565b604082019050919050565b60006020820190508181036000830152613b9481613b58565b9050919050565b6000613ba6826134a8565b9150613bb1836134a8565b9250828203905081811115613bc957613bc861363c565b5b92915050565b7f4e487b7100000000000000000000000000000000000000000000000000000000600052601260045260246000fd5b6000613c09826134a8565b9150613c14836134a8565b925082613c2457613c23613bcf565b5b828206905092915050565b7f63616e6e6f742068616e646c652068656164657273207769746820657874726160008201527f203e203237000000000000000000000000000000000000000000000000000000602082015250565b6000613c8b6025836136e2565b9150613c9682613c2f565b604082019050919050565b60006020820190508181036000830152613cba81613c7e565b9050919050565b7f696e76616c69642063626f720000000000000000000000000000000000000000600082015250565b6000613cf7600c836136e2565b9150613d0282613cc1565b602082019050919050565b60006020820190508181036000830152613d2681613cea565b9050919050565b6000613d38826134a8565b9150613d43836134a8565b9250828202613d51816134a8565b91508282048414831517613d6857613d6761363c565b5b5092915050565b60008160011c9050919050565b6000808291508390505b6001851115613dc657808604811115613da257613da161363c565b5b6001851615613db15780820291505b8081029050613dbf85613d6f565b9450613d86565b94509492505050565b600082613ddf5760019050613e9b565b81613ded5760009050613e9b565b8160018114613e035760028114613e0d57613e3c565b6001915050613e9b565b60ff841115613e1f57613e1e61363c565b5b8360020a915084821115613e3657613e3561363c565b5b50613e9b565b5060208310610133831016604e8410600b8410161715613e715782820a905083811115613e6c57613e6b61363c565b5b613e9b565b613e7e8484846001613d7c565b92509050818404811115613e9557613e9461363c565b5b81810290505b9392505050565b6000613ead826134a8565b9150613eb8836134a8565b9250613ee57fffffffffffffffffffffffffffffffffffffffffffffffffffffffffffffffff8484613dcf565b905092915050565b7f736c6963696e67206f7574206f662072616e6765000000000000000000000000600082015250565b6000613f236014836136e2565b9150613f2e82613eed565b602082019050919050565b60006020820190508181036000830152613f5281613f16565b905091905056fea26469706673582212207ff1f15763c0e0b3e95f7e043c0aa5a2233934231381b026dac657808348a7e964736f6c63430008110033",
  "linkReferences": {},
  "deployedLinkReferences": {}
}