{
  "_format": "hh-sol-artifact-1",
  "contractName": "MarketApiTest",
  "sourceName": "contracts/zondax/filecoin-solidity/contracts/v0.8/tests/market.test.sol",
  "abi": [
    {
      "inputs": [
        {
          "internalType": "int256",
          "name": "errorCode",
          "type": "int256"
        }
      ],
      "name": "ActorError",
      "type": "error"
    },
    {
      "inputs": [],
      "name": "FailToCallActor",
      "type": "error"
    },
    {
      "inputs": [
        {
          "internalType": "uint64",
          "name": "",
          "type": "uint64"
        }
      ],
      "name": "InvalidCodec",
      "type": "error"
    },
    {
      "inputs": [],
      "name": "InvalidResponseLength",
      "type": "error"
    },
    {
      "inputs": [
        {
          "internalType": "uint256",
          "name": "balance",
          "type": "uint256"
        },
        {
          "internalType": "uint256",
          "name": "value",
          "type": "uint256"
        }
      ],
      "name": "NotEnoughBalance",
      "type": "error"
    },
    {
      "inputs": [
        {
          "components": [
            {
              "internalType": "bytes",
              "name": "data",
              "type": "bytes"
            }
          ],
          "internalType": "struct CommonTypes.FilAddress",
          "name": "providerOrClient",
          "type": "tuple"
        },
        {
          "internalType": "uint256",
          "name": "value",
          "type": "uint256"
        }
      ],
      "name": "add_balance",
      "outputs": [],
      "stateMutability": "payable",
      "type": "function"
    },
    {
      "inputs": [
        {
          "components": [
            {
              "internalType": "bytes",
              "name": "data",
              "type": "bytes"
            }
          ],
          "internalType": "struct CommonTypes.FilAddress",
          "name": "addr",
          "type": "tuple"
        }
      ],
      "name": "get_balance",
      "outputs": [
        {
          "components": [
            {
              "components": [
                {
                  "internalType": "bytes",
                  "name": "val",
                  "type": "bytes"
                },
                {
                  "internalType": "bool",
                  "name": "neg",
                  "type": "bool"
                }
              ],
              "internalType": "struct CommonTypes.BigInt",
              "name": "balance",
              "type": "tuple"
            },
            {
              "components": [
                {
                  "internalType": "bytes",
                  "name": "val",
                  "type": "bytes"
                },
                {
                  "internalType": "bool",
                  "name": "neg",
                  "type": "bool"
                }
              ],
              "internalType": "struct CommonTypes.BigInt",
              "name": "locked",
              "type": "tuple"
            }
          ],
          "internalType": "struct MarketTypes.GetBalanceReturn",
          "name": "",
          "type": "tuple"
        }
      ],
      "stateMutability": "nonpayable",
      "type": "function"
    },
    {
      "inputs": [
        {
          "internalType": "uint64",
          "name": "dealID",
          "type": "uint64"
        }
      ],
      "name": "get_deal_activation",
      "outputs": [
        {
          "components": [
            {
              "internalType": "int64",
              "name": "activated",
              "type": "int64"
            },
            {
              "internalType": "int64",
              "name": "terminated",
              "type": "int64"
            }
          ],
          "internalType": "struct MarketTypes.GetDealActivationReturn",
          "name": "",
          "type": "tuple"
        }
      ],
      "stateMutability": "nonpayable",
      "type": "function"
    },
    {
      "inputs": [
        {
          "internalType": "uint64",
          "name": "dealID",
          "type": "uint64"
        }
      ],
      "name": "get_deal_client",
      "outputs": [
        {
          "internalType": "uint64",
          "name": "",
          "type": "uint64"
        }
      ],
      "stateMutability": "nonpayable",
      "type": "function"
    },
    {
      "inputs": [
        {
          "internalType": "uint64",
          "name": "dealID",
          "type": "uint64"
        }
      ],
      "name": "get_deal_client_collateral",
      "outputs": [
        {
          "components": [
            {
              "internalType": "bytes",
              "name": "val",
              "type": "bytes"
            },
            {
              "internalType": "bool",
              "name": "neg",
              "type": "bool"
            }
          ],
          "internalType": "struct CommonTypes.BigInt",
          "name": "",
          "type": "tuple"
        }
      ],
      "stateMutability": "nonpayable",
      "type": "function"
    },
    {
      "inputs": [
        {
          "internalType": "uint64",
          "name": "dealID",
          "type": "uint64"
        }
      ],
      "name": "get_deal_data_commitment",
      "outputs": [
        {
          "components": [
            {
              "internalType": "bytes",
              "name": "data",
              "type": "bytes"
            },
            {
              "internalType": "uint64",
              "name": "size",
              "type": "uint64"
            }
          ],
          "internalType": "struct MarketTypes.GetDealDataCommitmentReturn",
          "name": "",
          "type": "tuple"
        }
      ],
      "stateMutability": "nonpayable",
      "type": "function"
    },
    {
      "inputs": [
        {
          "internalType": "uint64",
          "name": "dealID",
          "type": "uint64"
        }
      ],
      "name": "get_deal_label",
      "outputs": [
        {
          "internalType": "string",
          "name": "",
          "type": "string"
        }
      ],
      "stateMutability": "nonpayable",
      "type": "function"
    },
    {
      "inputs": [
        {
          "internalType": "uint64",
          "name": "dealID",
          "type": "uint64"
        }
      ],
      "name": "get_deal_provider",
      "outputs": [
        {
          "internalType": "uint64",
          "name": "",
          "type": "uint64"
        }
      ],
      "stateMutability": "nonpayable",
      "type": "function"
    },
    {
      "inputs": [
        {
          "internalType": "uint64",
          "name": "dealID",
          "type": "uint64"
        }
      ],
      "name": "get_deal_provider_collateral",
      "outputs": [
        {
          "components": [
            {
              "internalType": "bytes",
              "name": "val",
              "type": "bytes"
            },
            {
              "internalType": "bool",
              "name": "neg",
              "type": "bool"
            }
          ],
          "internalType": "struct CommonTypes.BigInt",
          "name": "",
          "type": "tuple"
        }
      ],
      "stateMutability": "nonpayable",
      "type": "function"
    },
    {
      "inputs": [
        {
          "internalType": "uint64",
          "name": "dealID",
          "type": "uint64"
        }
      ],
      "name": "get_deal_term",
      "outputs": [
        {
          "components": [
            {
              "internalType": "int64",
              "name": "start",
              "type": "int64"
            },
            {
              "internalType": "int64",
              "name": "end",
              "type": "int64"
            }
          ],
          "internalType": "struct MarketTypes.GetDealTermReturn",
          "name": "",
          "type": "tuple"
        }
      ],
      "stateMutability": "nonpayable",
      "type": "function"
    },
    {
      "inputs": [
        {
          "internalType": "uint64",
          "name": "dealID",
          "type": "uint64"
        }
      ],
      "name": "get_deal_total_price",
      "outputs": [
        {
          "components": [
            {
              "internalType": "bytes",
              "name": "val",
              "type": "bytes"
            },
            {
              "internalType": "bool",
              "name": "neg",
              "type": "bool"
            }
          ],
          "internalType": "struct CommonTypes.BigInt",
          "name": "",
          "type": "tuple"
        }
      ],
      "stateMutability": "nonpayable",
      "type": "function"
    },
    {
      "inputs": [
        {
          "internalType": "uint64",
          "name": "dealID",
          "type": "uint64"
        }
      ],
      "name": "get_deal_verified",
      "outputs": [
        {
          "internalType": "bool",
          "name": "",
          "type": "bool"
        }
      ],
      "stateMutability": "nonpayable",
      "type": "function"
    },
    {
      "inputs": [
        {
          "components": [
            {
              "components": [
                {
                  "components": [
                    {
                      "components": [
                        {
                          "internalType": "bytes",
                          "name": "data",
                          "type": "bytes"
                        }
                      ],
                      "internalType": "struct CommonTypes.Cid",
                      "name": "piece_cid",
                      "type": "tuple"
                    },
                    {
                      "internalType": "uint64",
                      "name": "piece_size",
                      "type": "uint64"
                    },
                    {
                      "internalType": "bool",
                      "name": "verified_deal",
                      "type": "bool"
                    },
                    {
                      "components": [
                        {
                          "internalType": "bytes",
                          "name": "data",
                          "type": "bytes"
                        }
                      ],
                      "internalType": "struct CommonTypes.FilAddress",
                      "name": "client",
                      "type": "tuple"
                    },
                    {
                      "components": [
                        {
                          "internalType": "bytes",
                          "name": "data",
                          "type": "bytes"
                        }
                      ],
                      "internalType": "struct CommonTypes.FilAddress",
                      "name": "provider",
                      "type": "tuple"
                    },
                    {
                      "internalType": "string",
                      "name": "label",
                      "type": "string"
                    },
                    {
                      "internalType": "int64",
                      "name": "start_epoch",
                      "type": "int64"
                    },
                    {
                      "internalType": "int64",
                      "name": "end_epoch",
                      "type": "int64"
                    },
                    {
                      "components": [
                        {
                          "internalType": "bytes",
                          "name": "val",
                          "type": "bytes"
                        },
                        {
                          "internalType": "bool",
                          "name": "neg",
                          "type": "bool"
                        }
                      ],
                      "internalType": "struct CommonTypes.BigInt",
                      "name": "storage_price_per_epoch",
                      "type": "tuple"
                    },
                    {
                      "components": [
                        {
                          "internalType": "bytes",
                          "name": "val",
                          "type": "bytes"
                        },
                        {
                          "internalType": "bool",
                          "name": "neg",
                          "type": "bool"
                        }
                      ],
                      "internalType": "struct CommonTypes.BigInt",
                      "name": "provider_collateral",
                      "type": "tuple"
                    },
                    {
                      "components": [
                        {
                          "internalType": "bytes",
                          "name": "val",
                          "type": "bytes"
                        },
                        {
                          "internalType": "bool",
                          "name": "neg",
                          "type": "bool"
                        }
                      ],
                      "internalType": "struct CommonTypes.BigInt",
                      "name": "client_collateral",
                      "type": "tuple"
                    }
                  ],
                  "internalType": "struct MarketTypes.DealProposal",
                  "name": "proposal",
                  "type": "tuple"
                },
                {
                  "internalType": "bytes",
                  "name": "client_signature",
                  "type": "bytes"
                }
              ],
              "internalType": "struct MarketTypes.ClientDealProposal[]",
              "name": "deals",
              "type": "tuple[]"
            }
          ],
          "internalType": "struct MarketTypes.PublishStorageDealsParams",
          "name": "params",
          "type": "tuple"
        }
      ],
      "name": "publish_storage_deals",
      "outputs": [
        {
          "components": [
            {
              "internalType": "CommonTypes.FilActorId[]",
              "name": "ids",
              "type": "uint64[]"
            },
            {
              "internalType": "bytes",
              "name": "valid_deals",
              "type": "bytes"
            }
          ],
          "internalType": "struct MarketTypes.PublishStorageDealsReturn",
          "name": "",
          "type": "tuple"
        }
      ],
      "stateMutability": "nonpayable",
      "type": "function"
    },
    {
      "inputs": [
        {
          "components": [
            {
              "components": [
                {
                  "internalType": "bytes",
                  "name": "data",
                  "type": "bytes"
                }
              ],
              "internalType": "struct CommonTypes.FilAddress",
              "name": "provider_or_client",
              "type": "tuple"
            },
            {
              "components": [
                {
                  "internalType": "bytes",
                  "name": "val",
                  "type": "bytes"
                },
                {
                  "internalType": "bool",
                  "name": "neg",
                  "type": "bool"
                }
              ],
              "internalType": "struct CommonTypes.BigInt",
              "name": "tokenAmount",
              "type": "tuple"
            }
          ],
          "internalType": "struct MarketTypes.WithdrawBalanceParams",
          "name": "params",
          "type": "tuple"
        }
      ],
      "name": "withdraw_balance",
      "outputs": [
        {
          "components": [
            {
              "internalType": "bytes",
              "name": "val",
              "type": "bytes"
            },
            {
              "internalType": "bool",
              "name": "neg",
              "type": "bool"
            }
          ],
          "internalType": "struct CommonTypes.BigInt",
          "name": "",
          "type": "tuple"
        }
      ],
      "stateMutability": "nonpayable",
      "type": "function"
    }
  ],
  "bytecode": "0x608060405234801561001057600080fd5b506143b5806100206000396000f3fe6080604052600436106100dd5760003560e01c8063aabb67b41161007f578063d21c49f111610059578063d21c49f114610323578063d3c69c4314610360578063d5e7b9db1461039d578063f5c03658146103da576100dd565b8063aabb67b41461026c578063b6d312ea146102a9578063c961f543146102e6576100dd565b80634dfad08c116100bb5780634dfad08c14610199578063614c3415146101b5578063915bd52a146101f25780639cfc4c331461022f576100dd565b80630e2f3367146100e25780632f2229fe1461011f5780633219a6291461015c575b600080fd5b3480156100ee57600080fd5b5061010960048036038101906101049190612a0a565b610417565b6040516101169190612a46565b60405180910390f35b34801561012b57600080fd5b5061014660048036038101906101419190612a0a565b610429565b6040516101539190612b49565b60405180910390f35b34801561016857600080fd5b50610183600480360381019061017e9190612a0a565b610441565b6040516101909190612b7a565b60405180910390f35b6101b360048036038101906101ae9190612d62565b610453565b005b3480156101c157600080fd5b506101dc60048036038101906101d79190612a0a565b610461565b6040516101e99190612b49565b60405180910390f35b3480156101fe57600080fd5b5061021960048036038101906102149190612a0a565b610479565b6040516102269190612e0a565b60405180910390f35b34801561023b57600080fd5b5061025660048036038101906102519190612a0a565b610491565b6040516102639190612e77565b60405180910390f35b34801561027857600080fd5b50610293600480360381019061028e9190612a0a565b6104a9565b6040516102a09190612a46565b60405180910390f35b3480156102b557600080fd5b506102d060048036038101906102cb9190612a0a565b6104bb565b6040516102dd9190612ee7565b60405180910390f35b3480156102f257600080fd5b5061030d60048036038101906103089190612f09565b6104cd565b60405161031a9190612fd3565b60405180910390f35b34801561032f57600080fd5b5061034a60048036038101906103459190613548565b6104e5565b60405161035791906136bf565b60405180910390f35b34801561036c57600080fd5b5061038760048036038101906103829190613769565b6104fd565b6040516103949190612b49565b60405180910390f35b3480156103a957600080fd5b506103c460048036038101906103bf9190612a0a565b610515565b6040516103d19190612b49565b60405180910390f35b3480156103e657600080fd5b5061040160048036038101906103fc9190612a0a565b61052d565b60405161040e91906137e1565b60405180910390f35b600061042282610545565b9050919050565b6104316128bc565b61043a82610589565b9050919050565b600061044c826105d4565b9050919050565b61045d8282610618565b5050565b6104696128bc565b6104728261067f565b9050919050565b6104816128d8565b61048a826106ca565b9050919050565b6104996128fc565b6104a282610715565b9050919050565b60006104b482610760565b9050919050565b60606104c6826107a4565b9050919050565b6104d561291c565b6104de826107e9565b9050919050565b6104ed612942565b6104f68261082a565b9050919050565b6105056128bc565b61050e8261086a565b9050919050565b61051d6128bc565b610526826108aa565b9050919050565b61053561295c565b61053e826108f5565b9050919050565b60008061055b8367ffffffffffffffff16610940565b9050600061057560056337bc36da60518560006001610974565b905061058081610ac9565b92505050919050565b6105916128bc565b60006105a68367ffffffffffffffff16610940565b905060006105c0600563b2059c4960518560006001610974565b90506105cb81610af7565b92505050919050565b6000806105ea8367ffffffffffffffff16610940565b905060006106046005639c9ac81960518560006001610974565b905061060f81610bb3565b92505050919050565b600061062383610bdd565b9050600061063c6005633105f1a6605185876000610974565b90506000815114610679576040517f0e74990700000000000000000000000000000000000000000000000000000000815260040160405180910390fd5b50505050565b6106876128bc565b600061069c8367ffffffffffffffff16610940565b905060006106b6600563ff88e83c60518560006001610974565b90506106c181610af7565b92505050919050565b6106d26128d8565b60006106e78367ffffffffffffffff16610940565b905060006107016005634505760a60518560006001610974565b905061070c81610c15565b92505050919050565b61071d6128fc565b60006107328367ffffffffffffffff16610940565b9050600061074c60056309c30b2060518560006001610974565b905061075781610d1b565b92505050919050565b6000806107768367ffffffffffffffff16610940565b9050600061079060056307a1f05160518560006001610974565b905061079b81610ac9565b92505050919050565b606060006107bb8367ffffffffffffffff16610940565b905060006107d560056302c3738660518560006001610974565b90506107e081610da5565b92505050919050565b6107f161291c565b60006107fc83610bdd565b905060006108166005632b47892d60518560006001610974565b905061082181610dcf565b92505050919050565b610832612942565b600061083d83610e68565b905060006108566005638554d546605185600080610974565b905061086181611252565b92505050919050565b6108726128bc565b600061087d83611388565b9050600061089660056387ed0a64605185600080610974565b90506108a181610af7565b92505050919050565b6108b26128bc565b60006108c78367ffffffffffffffff16610940565b905060006108e16005630bf46c5760518560006001610974565b90506108ec81610af7565b92505050919050565b6108fd61295c565b60006109128367ffffffffffffffff16610940565b9050600061092c6005639904f2ff60518560006001610974565b9050610937816113f7565b92505050919050565b6060600061094e6040611481565b905061096383826114a890919063ffffffff16565b61096c816114b8565b915050919050565b60606000479050838110156109c25780846040517f8f0f42060000000000000000000000000000000000000000000000000000000081526004016109b992919061380b565b60405180910390fd5b60008073fe0000000000000000000000000000000000000573ffffffffffffffffffffffffffffffffffffffff168987876109fe576000610a01565b60015b8b8b8f604051602001610a199695949392919061388d565b604051602081830303815290604052604051610a359190613931565b600060405180830381855af49150503d8060008114610a70576040519150601f19603f3d011682016040523d82523d6000602084013e610a75565b606091505b509150915081610ab1576040517f8a7db5bf00000000000000000000000000000000000000000000000000000000815260040160405180910390fd5b610aba81611511565b93505050509695505050505050565b600080600090506000610ae5828561169890919063ffffffff16565b80935081925050508092505050919050565b610aff6128bc565b606060008084511115610b4457610b1f818561171990919063ffffffff16565b8092508193505050600082511115610b4357610b3a826118f5565b92505050610bae565b5b6040518060400160405280600067ffffffffffffffff811115610b6a57610b69612b9a565b5b6040519080825280601f01601f191660200182016040528015610b9c5781602001600182028036833780820191505090505b50815260200160001515815250925050505b919050565b6000806000610bcb8185611a9c90919063ffffffff16565b80925081935050508192505050919050565b60606000610beb6040611481565b9050610c04836000015182611b4690919063ffffffff16565b610c0d816114b8565b915050919050565b610c1d6128d8565b600080610c338285611b6f90919063ffffffff16565b80935081925050506000811115610c9c57610c57828561171990919063ffffffff16565b846000018194508290525050610c76828561169890919063ffffffff16565b846020018194508267ffffffffffffffff1667ffffffffffffffff168152505050610d14565b600067ffffffffffffffff811115610cb757610cb6612b9a565b5b6040519080825280601f01601f191660200182016040528015610ce95781602001600182028036833780820191505090505b5083600001819052506000836020019067ffffffffffffffff16908167ffffffffffffffff16815250505b5050919050565b610d236128fc565b600080610d398285611b6f90919063ffffffff16565b809350819250505060028114610d5257610d51613948565b5b610d658285611bf090919063ffffffff16565b846000018194508260070b60070b8152505050610d8b8285611bf090919063ffffffff16565b846020018194508260070b60070b81525050505050919050565b6060806000610dbd8185611c8290919063ffffffff16565b80925081935050508192505050919050565b610dd761291c565b6000806060610def8386611b6f90919063ffffffff16565b809450819350505060028214610e0857610e07613948565b5b610e1b838661171990919063ffffffff16565b8094508192505050610e2c816118f5565b8460000181905250610e47838661171990919063ffffffff16565b8094508192505050610e58816118f5565b8460200181905250505050919050565b60606000610e766040611481565b9050610e8c600182611e0490919063ffffffff16565b610ea483600001515182611e0490919063ffffffff16565b60005b8360000151518167ffffffffffffffff16101561124057610ed2600283611e0490919063ffffffff16565b610ee6600b83611e0490919063ffffffff16565b610f2d84600001518267ffffffffffffffff1681518110610f0a57610f09613977565b5b602002602001015160000151600001516000015183611e1490919063ffffffff16565b610f7084600001518267ffffffffffffffff1681518110610f5157610f50613977565b5b60200260200101516000015160200151836114a890919063ffffffff16565b610fb384600001518267ffffffffffffffff1681518110610f9457610f93613977565b5b6020026020010151600001516040015183611e6790919063ffffffff16565b610ffa84600001518267ffffffffffffffff1681518110610fd757610fd6613977565b5b602002602001015160000151606001516000015183611b4690919063ffffffff16565b61104184600001518267ffffffffffffffff168151811061101e5761101d613977565b5b602002602001015160000151608001516000015183611b4690919063ffffffff16565b61108484600001518267ffffffffffffffff168151811061106557611064613977565b5b60200260200101516000015160a0015183611e8390919063ffffffff16565b6110c784600001518267ffffffffffffffff16815181106110a8576110a7613977565b5b60200260200101516000015160c0015183611eac90919063ffffffff16565b61110a84600001518267ffffffffffffffff16815181106110eb576110ea613977565b5b60200260200101516000015160e0015183611eac90919063ffffffff16565b61115661114785600001518367ffffffffffffffff168151811061113157611130613977565b5b6020026020010151600001516101000151611f04565b83611b4690919063ffffffff16565b6111a261119385600001518367ffffffffffffffff168151811061117d5761117c613977565b5b6020026020010151600001516101200151611f04565b83611b4690919063ffffffff16565b6111ee6111df85600001518367ffffffffffffffff16815181106111c9576111c8613977565b5b6020026020010151600001516101400151611f04565b83611b4690919063ffffffff16565b61122d84600001518267ffffffffffffffff168151811061121257611211613977565b5b60200260200101516020015183611b4690919063ffffffff16565b8080611238906139d5565b915050610ea7565b5061124a816114b8565b915050919050565b61125a612942565b6000806112708285611b6f90919063ffffffff16565b80935081925050506002811461128957611288613948565b5b61129c8285611b6f90919063ffffffff16565b80935081925050508067ffffffffffffffff8111156112be576112bd612b9a565b5b6040519080825280602002602001820160405280156112ec5781602001602082028036833780820191505090505b50836000018190525060005b8181101561136157611313838661207190919063ffffffff16565b8560000151838151811061132a57611329613977565b5b602002602001018195508267ffffffffffffffff1667ffffffffffffffff168152505050808061135990613a05565b9150506112f8565b50611375828561171990919063ffffffff16565b8460200181945082905250505050919050565b606060006113966040611481565b90506113ac600282611e0490919063ffffffff16565b6113c783600001516000015182611b4690919063ffffffff16565b6113e66113d78460200151611f04565b82611b4690919063ffffffff16565b6113ef816114b8565b915050919050565b6113ff61295c565b6000806114158285611b6f90919063ffffffff16565b80935081925050506002811461142e5761142d613948565b5b6114418285611bf090919063ffffffff16565b846000018194508260070b60070b81525050506114678285611bf090919063ffffffff16565b846020018194508260070b60070b81525050505050919050565b61148961297c565b61149781600001518361209f565b506000816020018181525050919050565b6114b482600083612118565b5050565b60606000826020015114611501576040517f08c379a00000000000000000000000000000000000000000000000000000000081526004016114f890613a99565b60405180910390fd5b8160000151600001519050919050565b606060008060008480602001905181019061152c9190613b74565b925092509250600067ffffffffffffffff168267ffffffffffffffff160361158e576000815114611589576040517f0e74990700000000000000000000000000000000000000000000000000000000815260040160405180910390fd5b611648565b605167ffffffffffffffff168267ffffffffffffffff1614806115c55750607167ffffffffffffffff168267ffffffffffffffff16145b1561160a576000815103611605576040517f0e74990700000000000000000000000000000000000000000000000000000000815260040160405180910390fd5b611647565b816040517ff1f6bced00000000000000000000000000000000000000000000000000000000815260040161163e9190612a46565b60405180910390fd5b5b6000831461168d57826040517fd4bb66710000000000000000000000000000000000000000000000000000000081526004016116849190613bf2565b60405180910390fd5b809350505050919050565b6000806000806116a886866122c1565b8167ffffffffffffffff169150809750819350829450505050600060ff168260ff161461170a576040517f08c379a000000000000000000000000000000000000000000000000000000000815260040161170190613c7f565b60405180910390fd5b80859350935050509250929050565b6060600080600061172a86866122c1565b8167ffffffffffffffff169150809750819350829450505050600660ff168260ff16148061175e5750600260ff168260ff16145b61179d576040517f08c379a000000000000000000000000000000000000000000000000000000000815260040161179490613d11565b60405180910390fd5b600660ff168260ff16036117e6576117b586866122c1565b8167ffffffffffffffff169150809750819350829450505050600260ff168260ff16146117e5576117e4613948565b5b5b600081866117f49190613d31565b905060008267ffffffffffffffff81111561181257611811612b9a565b5b6040519080825280601f01601f1916602001820160405280156118445781602001600182028036833780820191505090505b5090506000808890505b838110156118d75789818151811061186957611868613977565b5b602001015160f81c60f81b83838151811061188757611886613977565b5b60200101907effffffffffffffffffffffffffffffffffffffffffffffffffffffffffffff1916908160001a90535081806118c190613a05565b92505080806118cf90613a05565b91505061184e565b508184896118e59190613d31565b9650965050505050509250929050565b6118fd6128bc565b600082510361193b57604051806040016040528060405180604001604052806001815260200160008152508152602001600015158152509050611a97565b60006001835161194b9190613d65565b67ffffffffffffffff81111561196457611963612b9a565b5b6040519080825280601f01601f1916602001820160405280156119965781602001600182028036833780820191505090505b5090506000600160f81b846000815181106119b4576119b3613977565b5b602001015160f81c60f81b7effffffffffffffffffffffffffffffffffffffffffffffffffffffffffffff1916036119eb57600190505b6000600190505b8451811015611a7a57848181518110611a0e57611a0d613977565b5b602001015160f81c60f81b83600183611a279190613d65565b81518110611a3857611a37613977565b5b60200101907effffffffffffffffffffffffffffffffffffffffffffffffffffffffffffff1916908160001a9053508080611a7290613a05565b9150506119f2565b506040518060400160405280838152602001821515815250925050505b919050565b600080600080611aac86866122c1565b8167ffffffffffffffff169150809750819350829450505050600760ff168260ff1614611b0e576040517f08c379a0000000000000000000000000000000000000000000000000000000008152600401611b0590613de5565b60405180910390fd5b601560ff16811480611b235750601460ff1681145b611b3057611b2f613948565b5b601460ff16811415859350935050509250929050565b611b538260028351612118565b611b6a8183600001516124b390919063ffffffff16565b505050565b600080600080611b7f86866122c1565b8167ffffffffffffffff169150809750819350829450505050600460ff168260ff1614611be1576040517f08c379a0000000000000000000000000000000000000000000000000000000008152600401611bd890613e51565b60405180910390fd5b80859350935050509250929050565b600080600080611c0086866122c1565b8167ffffffffffffffff169150809750819350829450505050600160ff168260ff161480611c345750600060ff168260ff16145b611c73576040517f08c379a0000000000000000000000000000000000000000000000000000000008152600401611c6a90613ee3565b60405180910390fd5b80859350935050509250929050565b60606000806000611c9386866122c1565b8167ffffffffffffffff169150809750819350829450505050600360ff168260ff1614611cf5576040517f08c379a0000000000000000000000000000000000000000000000000000000008152600401611cec90613f75565b60405180910390fd5b60008186611d039190613d31565b905060008267ffffffffffffffff811115611d2157611d20612b9a565b5b6040519080825280601f01601f191660200182016040528015611d535781602001600182028036833780820191505090505b5090506000808890505b83811015611de657898181518110611d7857611d77613977565b5b602001015160f81c60f81b838381518110611d9657611d95613977565b5b60200101907effffffffffffffffffffffffffffffffffffffffffffffffffffffffffffff1916908160001a9053508180611dd090613a05565b9250508080611dde90613a05565b915050611d5d565b50818489611df49190613d31565b9650965050505050509250929050565b611e10826004836124cf565b5050565b611e3660186005600660ff16901b1783600001516124df90919063ffffffff16565b50611e4f602a83600001516124df90919063ffffffff16565b50611e638183611b4690919063ffffffff16565b5050565b611e7f8282611e77576014611e7a565b60155b612549565b5050565b611e908260038351612118565b611ea78183600001516124b390919063ffffffff16565b505050565b60008160070b12611ec857611ec382600083612118565b611f00565b611eff826001837fffffffffffffffffffffffffffffffffffffffffffffffffffffffffffffffff611efa9190613f95565b612118565b5b5050565b606060006001836000015151611f1a9190613d31565b67ffffffffffffffff811115611f3357611f32612b9a565b5b6040519080825280601f01601f191660200182016040528015611f655781602001600182028036833780820191505090505b509050600115158360200151151514611f8257600060f81b611f88565b600160f81b5b81600081518110611f9c57611f9b613977565b5b60200101907effffffffffffffffffffffffffffffffffffffffffffffffffffffffffffff1916908160001a90535060006001905060005b8460000151518110156120665784600001518181518110611ff857611ff7613977565b5b602001015160f81c60f81b83838151811061201657612015613977565b5b60200101907effffffffffffffffffffffffffffffffffffffffffffffffffffffffffffff1916908160001a905350818061205090613a05565b925050808061205e90613a05565b915050611fd4565b508192505050919050565b6000806000612089848661169890919063ffffffff16565b8095508192505050808492509250509250929050565b6120a761299c565b60006020836120b69190614024565b146120e2576020826120c89190614024565b60206120d49190613d65565b826120df9190613d31565b91505b81836020018181525050604051808452600081528281016020018181101561210957600080fd5b80604052505082905092915050565b60178167ffffffffffffffff16116121535761214d8160058460ff16901b60ff161784600001516124df90919063ffffffff16565b506122bc565b60ff8167ffffffffffffffff16116121b157612186601860058460ff16901b1784600001516124df90919063ffffffff16565b506121ab8167ffffffffffffffff166001856000015161256f9092919063ffffffff16565b506122bb565b61ffff8167ffffffffffffffff1611612210576121e5601960058460ff16901b1784600001516124df90919063ffffffff16565b5061220a8167ffffffffffffffff166002856000015161256f9092919063ffffffff16565b506122ba565b63ffffffff8167ffffffffffffffff161161227157612246601a60058460ff16901b1784600001516124df90919063ffffffff16565b5061226b8167ffffffffffffffff166004856000015161256f9092919063ffffffff16565b506122b9565b612292601b60058460ff16901b1784600001516124df90919063ffffffff16565b506122b78167ffffffffffffffff166008856000015161256f9092919063ffffffff16565b505b5b5b5b505050565b6000806000806122d186866125fc565b90506001856122e09190613d31565b94506000600560e0831660ff16901c90506000601f83169050601c8160ff161061233f576040517f08c379a0000000000000000000000000000000000000000000000000000000008152600401612336906140c7565b60405180910390fd5b60188160ff161015612362578181888160ff1691509550955095505050506124ac565b60188160ff16036123e957600061237989896125fc565b90506001886123889190613d31565b975060188160ff1610156123d1576040517f08c379a00000000000000000000000000000000000000000000000000000000081526004016123c890614133565b60405180910390fd5b8281898160ff169150965096509650505050506124ac565b60198160ff160361242a5760006124008989612677565b905060028861240f9190613d31565b97508281898161ffff169150965096509650505050506124ac565b601a8160ff160361246d57600061244189896126e1565b90506004886124509190613d31565b97508281898163ffffffff169150965096509650505050506124ac565b601b8160ff161461248157612480613948565b5b600061248d898961274b565b905060088861249c9190613d31565b9750828189965096509650505050505b9250925092565b6124bb61299c565b6124c7838384516127b5565b905092915050565b6124da838383612118565b505050565b6124e761299c565b6000836000015151905060006001826125009190613d31565b905084602001518210612524576125238560028361251e9190614153565b612898565b5b8451602083820101858153815183111561253c578282525b5050849250505092915050565b61256a816005600760ff16901b1783600001516124df90919063ffffffff16565b505050565b61257761299c565b600084600001515190506000818461258f9190613d31565b905085602001518111156125b4576125b3866002836125ae9190614153565b612898565b5b60006001856101006125c691906142c8565b6125d09190613d65565b9050865182810187831982511617815281518411156125ed578382525b50508693505050509392505050565b600060018261260b9190613d31565b8351101561264e576040517f08c379a00000000000000000000000000000000000000000000000000000000081526004016126459061435f565b60405180910390fd5b82828151811061266157612660613977565b5b602001015160f81c60f81b60f81c905092915050565b60006002826126869190613d31565b835110156126c9576040517f08c379a00000000000000000000000000000000000000000000000000000000081526004016126c09061435f565b60405180910390fd5b60008260200184015190508060f01c91505092915050565b60006004826126f09190613d31565b83511015612733576040517f08c379a000000000000000000000000000000000000000000000000000000000815260040161272a9061435f565b60405180910390fd5b60008260200184015190508060e01c91505092915050565b600060088261275a9190613d31565b8351101561279d576040517f08c379a00000000000000000000000000000000000000000000000000000000081526004016127949061435f565b60405180910390fd5b60008260200184015190508060c01c91505092915050565b6127bd61299c565b82518211156127cb57600080fd5b60008460000151519050600083826127e39190613d31565b9050856020015181111561280857612807866002836128029190614153565b612898565b5b60008087518051856020830101935080851115612823578482525b60208901925050505b6020861061286a57805182526020826128459190613d31565b91506020816128549190613d31565b90506020866128639190613d65565b955061282c565b60006001876020036101000a0390508019825116818451168181178552505050879450505050509392505050565b6000826000015190506128ab838361209f565b506128b683826124b3565b50505050565b6040518060400160405280606081526020016000151581525090565b604051806040016040528060608152602001600067ffffffffffffffff1681525090565b6040518060400160405280600060070b8152602001600060070b81525090565b604051806040016040528061292f6128bc565b815260200161293c6128bc565b81525090565b604051806040016040528060608152602001606081525090565b6040518060400160405280600060070b8152602001600060070b81525090565b604051806040016040528061298f61299c565b8152602001600081525090565b604051806040016040528060608152602001600081525090565b6000604051905090565b600080fd5b600080fd5b600067ffffffffffffffff82169050919050565b6129e7816129ca565b81146129f257600080fd5b50565b600081359050612a04816129de565b92915050565b600060208284031215612a2057612a1f6129c0565b5b6000612a2e848285016129f5565b91505092915050565b612a40816129ca565b82525050565b6000602082019050612a5b6000830184612a37565b92915050565b600081519050919050565b600082825260208201905092915050565b60005b83811015612a9b578082015181840152602081019050612a80565b60008484015250505050565b6000601f19601f8301169050919050565b6000612ac382612a61565b612acd8185612a6c565b9350612add818560208601612a7d565b612ae681612aa7565b840191505092915050565b60008115159050919050565b612b0681612af1565b82525050565b60006040830160008301518482036000860152612b298282612ab8565b9150506020830151612b3e6020860182612afd565b508091505092915050565b60006020820190508181036000830152612b638184612b0c565b905092915050565b612b7481612af1565b82525050565b6000602082019050612b8f6000830184612b6b565b92915050565b600080fd5b7f4e487b7100000000000000000000000000000000000000000000000000000000600052604160045260246000fd5b612bd282612aa7565b810181811067ffffffffffffffff82111715612bf157612bf0612b9a565b5b80604052505050565b6000612c046129b6565b9050612c108282612bc9565b919050565b600080fd5b600080fd5b600080fd5b600067ffffffffffffffff821115612c3f57612c3e612b9a565b5b612c4882612aa7565b9050602081019050919050565b82818337600083830152505050565b6000612c77612c7284612c24565b612bfa565b905082815260208101848484011115612c9357612c92612c1f565b5b612c9e848285612c55565b509392505050565b600082601f830112612cbb57612cba612c1a565b5b8135612ccb848260208601612c64565b91505092915050565b600060208284031215612cea57612ce9612b95565b5b612cf46020612bfa565b9050600082013567ffffffffffffffff811115612d1457612d13612c15565b5b612d2084828501612ca6565b60008301525092915050565b6000819050919050565b612d3f81612d2c565b8114612d4a57600080fd5b50565b600081359050612d5c81612d36565b92915050565b60008060408385031215612d7957612d786129c0565b5b600083013567ffffffffffffffff811115612d9757612d966129c5565b5b612da385828601612cd4565b9250506020612db485828601612d4d565b9150509250929050565b612dc7816129ca565b82525050565b60006040830160008301518482036000860152612dea8282612ab8565b9150506020830151612dff6020860182612dbe565b508091505092915050565b60006020820190508181036000830152612e248184612dcd565b905092915050565b60008160070b9050919050565b612e4281612e2c565b82525050565b604082016000820151612e5e6000850182612e39565b506020820151612e716020850182612e39565b50505050565b6000604082019050612e8c6000830184612e48565b92915050565b600081519050919050565b600082825260208201905092915050565b6000612eb982612e92565b612ec38185612e9d565b9350612ed3818560208601612a7d565b612edc81612aa7565b840191505092915050565b60006020820190508181036000830152612f018184612eae565b905092915050565b600060208284031215612f1f57612f1e6129c0565b5b600082013567ffffffffffffffff811115612f3d57612f3c6129c5565b5b612f4984828501612cd4565b91505092915050565b60006040830160008301518482036000860152612f6f8282612ab8565b9150506020830151612f846020860182612afd565b508091505092915050565b60006040830160008301518482036000860152612fac8282612f52565b91505060208301518482036020860152612fc68282612f52565b9150508091505092915050565b60006020820190508181036000830152612fed8184612f8f565b905092915050565b600067ffffffffffffffff8211156130105761300f612b9a565b5b602082029050602081019050919050565b600080fd5b60006020828403121561303c5761303b612b95565b5b6130466020612bfa565b9050600082013567ffffffffffffffff81111561306657613065612c15565b5b61307284828501612ca6565b60008301525092915050565b61308781612af1565b811461309257600080fd5b50565b6000813590506130a48161307e565b92915050565b600067ffffffffffffffff8211156130c5576130c4612b9a565b5b6130ce82612aa7565b9050602081019050919050565b60006130ee6130e9846130aa565b612bfa565b90508281526020810184848401111561310a57613109612c1f565b5b613115848285612c55565b509392505050565b600082601f83011261313257613131612c1a565b5b81356131428482602086016130db565b91505092915050565b61315481612e2c565b811461315f57600080fd5b50565b6000813590506131718161314b565b92915050565b60006040828403121561318d5761318c612b95565b5b6131976040612bfa565b9050600082013567ffffffffffffffff8111156131b7576131b6612c15565b5b6131c384828501612ca6565b60008301525060206131d784828501613095565b60208301525092915050565b600061016082840312156131fa576131f9612b95565b5b613205610160612bfa565b9050600082013567ffffffffffffffff81111561322557613224612c15565b5b61323184828501613026565b6000830152506020613245848285016129f5565b602083015250604061325984828501613095565b604083015250606082013567ffffffffffffffff81111561327d5761327c612c15565b5b61328984828501612cd4565b606083015250608082013567ffffffffffffffff8111156132ad576132ac612c15565b5b6132b984828501612cd4565b60808301525060a082013567ffffffffffffffff8111156132dd576132dc612c15565b5b6132e98482850161311d565b60a08301525060c06132fd84828501613162565b60c08301525060e061331184828501613162565b60e08301525061010082013567ffffffffffffffff81111561333657613335612c15565b5b61334284828501613177565b6101008301525061012082013567ffffffffffffffff81111561336857613367612c15565b5b61337484828501613177565b6101208301525061014082013567ffffffffffffffff81111561339a57613399612c15565b5b6133a684828501613177565b6101408301525092915050565b6000604082840312156133c9576133c8612b95565b5b6133d36040612bfa565b9050600082013567ffffffffffffffff8111156133f3576133f2612c15565b5b6133ff848285016131e3565b600083015250602082013567ffffffffffffffff81111561342357613422612c15565b5b61342f84828501612ca6565b60208301525092915050565b600061344e61344984612ff5565b612bfa565b9050808382526020820190506020840283018581111561347157613470613021565b5b835b818110156134b857803567ffffffffffffffff81111561349657613495612c1a565b5b8086016134a389826133b3565b85526020850194505050602081019050613473565b5050509392505050565b600082601f8301126134d7576134d6612c1a565b5b81356134e784826020860161343b565b91505092915050565b60006020828403121561350657613505612b95565b5b6135106020612bfa565b9050600082013567ffffffffffffffff8111156135305761352f612c15565b5b61353c848285016134c2565b60008301525092915050565b60006020828403121561355e5761355d6129c0565b5b600082013567ffffffffffffffff81111561357c5761357b6129c5565b5b613588848285016134f0565b91505092915050565b600081519050919050565b600082825260208201905092915050565b6000819050602082019050919050565b6000819050919050565b60006135e26135dd6135d8846129ca565b6135bd565b6129ca565b9050919050565b6135f2816135c7565b82525050565b600061360483836135e9565b60208301905092915050565b6000602082019050919050565b600061362882613591565b613632818561359c565b935061363d836135ad565b8060005b8381101561366e57815161365588826135f8565b975061366083613610565b925050600181019050613641565b5085935050505092915050565b60006040830160008301518482036000860152613698828261361d565b915050602083015184820360208601526136b28282612ab8565b9150508091505092915050565b600060208201905081810360008301526136d9818461367b565b905092915050565b6000604082840312156136f7576136f6612b95565b5b6137016040612bfa565b9050600082013567ffffffffffffffff81111561372157613720612c15565b5b61372d84828501612cd4565b600083015250602082013567ffffffffffffffff81111561375157613750612c15565b5b61375d84828501613177565b60208301525092915050565b60006020828403121561377f5761377e6129c0565b5b600082013567ffffffffffffffff81111561379d5761379c6129c5565b5b6137a9848285016136e1565b91505092915050565b6040820160008201516137c86000850182612e39565b5060208201516137db6020850182612e39565b50505050565b60006040820190506137f660008301846137b2565b92915050565b61380581612d2c565b82525050565b600060408201905061382060008301856137fc565b61382d60208301846137fc565b9392505050565b600082825260208201905092915050565b600061385082612a61565b61385a8185613834565b935061386a818560208601612a7d565b61387381612aa7565b840191505092915050565b613887816135c7565b82525050565b600060c0820190506138a26000830189612a37565b6138af60208301886137fc565b6138bc6040830187612a37565b6138c96060830186612a37565b81810360808301526138db8185613845565b90506138ea60a083018461387e565b979650505050505050565b600081905092915050565b600061390b82612a61565b61391581856138f5565b9350613925818560208601612a7d565b80840191505092915050565b600061393d8284613900565b915081905092915050565b7f4e487b7100000000000000000000000000000000000000000000000000000000600052600160045260246000fd5b7f4e487b7100000000000000000000000000000000000000000000000000000000600052603260045260246000fd5b7f4e487b7100000000000000000000000000000000000000000000000000000000600052601160045260246000fd5b60006139e0826129ca565b915067ffffffffffffffff82036139fa576139f96139a6565b5b600182019050919050565b6000613a1082612d2c565b91507fffffffffffffffffffffffffffffffffffffffffffffffffffffffffffffffff8203613a4257613a416139a6565b5b600182019050919050565b7f496e76616c69642043424f520000000000000000000000000000000000000000600082015250565b6000613a83600c83612e9d565b9150613a8e82613a4d565b602082019050919050565b60006020820190508181036000830152613ab281613a76565b9050919050565b6000819050919050565b613acc81613ab9565b8114613ad757600080fd5b50565b600081519050613ae981613ac3565b92915050565b600081519050613afe816129de565b92915050565b6000613b17613b1284612c24565b612bfa565b905082815260208101848484011115613b3357613b32612c1f565b5b613b3e848285612a7d565b509392505050565b600082601f830112613b5b57613b5a612c1a565b5b8151613b6b848260208601613b04565b91505092915050565b600080600060608486031215613b8d57613b8c6129c0565b5b6000613b9b86828701613ada565b9350506020613bac86828701613aef565b925050604084015167ffffffffffffffff811115613bcd57613bcc6129c5565b5b613bd986828701613b46565b9150509250925092565b613bec81613ab9565b82525050565b6000602082019050613c076000830184613be3565b92915050565b7f696e76616c6964206d616a20286578706563746564204d616a556e7369676e6560008201527f64496e7429000000000000000000000000000000000000000000000000000000602082015250565b6000613c69602583612e9d565b9150613c7482613c0d565b604082019050919050565b60006020820190508181036000830152613c9881613c5c565b9050919050565b7f696e76616c6964206d616a20286578706563746564204d616a546167206f722060008201527f4d616a42797465537472696e6729000000000000000000000000000000000000602082015250565b6000613cfb602e83612e9d565b9150613d0682613c9f565b604082019050919050565b60006020820190508181036000830152613d2a81613cee565b9050919050565b6000613d3c82612d2c565b9150613d4783612d2c565b9250828201905080821115613d5f57613d5e6139a6565b5b92915050565b6000613d7082612d2c565b9150613d7b83612d2c565b9250828203905081811115613d9357613d926139a6565b5b92915050565b7f696e76616c6964206d616a20286578706563746564204d616a4f746865722900600082015250565b6000613dcf601f83612e9d565b9150613dda82613d99565b602082019050919050565b60006020820190508181036000830152613dfe81613dc2565b9050919050565b7f696e76616c6964206d616a20286578706563746564204d616a41727261792900600082015250565b6000613e3b601f83612e9d565b9150613e4682613e05565b602082019050919050565b60006020820190508181036000830152613e6a81613e2e565b9050919050565b7f696e76616c6964206d616a20286578706563746564204d616a5369676e65644960008201527f6e74206f72204d616a556e7369676e6564496e74290000000000000000000000602082015250565b6000613ecd603583612e9d565b9150613ed882613e71565b604082019050919050565b60006020820190508181036000830152613efc81613ec0565b9050919050565b7f696e76616c6964206d616a20286578706563746564204d616a5465787453747260008201527f696e672900000000000000000000000000000000000000000000000000000000602082015250565b6000613f5f602483612e9d565b9150613f6a82613f03565b604082019050919050565b60006020820190508181036000830152613f8e81613f52565b9050919050565b6000613fa082612e2c565b9150613fab83612e2c565b92508282039050677fffffffffffffff81137fffffffffffffffffffffffffffffffffffffffffffffffff800000000000000082121715613fef57613fee6139a6565b5b92915050565b7f4e487b7100000000000000000000000000000000000000000000000000000000600052601260045260246000fd5b600061402f82612d2c565b915061403a83612d2c565b92508261404a57614049613ff5565b5b828206905092915050565b7f63616e6e6f742068616e646c652068656164657273207769746820657874726160008201527f203e203237000000000000000000000000000000000000000000000000000000602082015250565b60006140b1602583612e9d565b91506140bc82614055565b604082019050919050565b600060208201905081810360008301526140e0816140a4565b9050919050565b7f696e76616c69642063626f720000000000000000000000000000000000000000600082015250565b600061411d600c83612e9d565b9150614128826140e7565b602082019050919050565b6000602082019050818103600083015261414c81614110565b9050919050565b600061415e82612d2c565b915061416983612d2c565b925082820261417781612d2c565b9150828204841483151761418e5761418d6139a6565b5b5092915050565b60008160011c9050919050565b6000808291508390505b60018511156141ec578086048111156141c8576141c76139a6565b5b60018516156141d75780820291505b80810290506141e585614195565b94506141ac565b94509492505050565b60008261420557600190506142c1565b8161421357600090506142c1565b8160018114614229576002811461423357614262565b60019150506142c1565b60ff841115614245576142446139a6565b5b8360020a91508482111561425c5761425b6139a6565b5b506142c1565b5060208310610133831016604e8410600b84101617156142975782820a905083811115614292576142916139a6565b5b6142c1565b6142a484848460016141a2565b925090508184048111156142bb576142ba6139a6565b5b81810290505b9392505050565b60006142d382612d2c565b91506142de83612d2c565b925061430b7fffffffffffffffffffffffffffffffffffffffffffffffffffffffffffffffff84846141f5565b905092915050565b7f736c6963696e67206f7574206f662072616e6765000000000000000000000000600082015250565b6000614349601483612e9d565b915061435482614313565b602082019050919050565b600060208201905081810360008301526143788161433c565b905091905056fea26469706673582212208c2f7a8d82d441397fde931c16c69b3bd88c1a327645d24c59234df954b2207764736f6c63430008110033",
  "linkReferences": {},
  "deployedLinkReferences": {}
}