{
  "_format": "hh-sol-artifact-1",
  "contractName": "Leb128Generated11Test",
  "sourceName": "contracts/zondax/filecoin-solidity/contracts/v0.8/tests/leb128.generated11.test.sol",
  "abi": [
    {
      "inputs": [],
      "name": "unsiged_integer_leb128_encoding_generated",
      "outputs": [],
      "stateMutability": "pure",
      "type": "function"
    }
  ],
  "bytecode": "0x608060405234801561001057600080fd5b50616dac80620000216000396000f3fe608060405234801561001057600080fd5b506004361061002b5760003560e01c8063cb3dcfa714610030575b600080fd5b61003861003a565b005b60006040518060400160405280600a81526020017fe9e3fbc98fb4ecd8f001000000000000000000000000000000000000000000008152509050600067f0b1b1a0f93ef1e99050600061008c82613903565b90508280519060200120816000015180519060200120146100e2576040517f08c379a00000000000000000000000000000000000000000000000000000000081526004016100d990613c2b565b60405180910390fd5b60006040518060400160405280600a81526020017f9ab8b1f899ad8ecae701000000000000000000000000000000000000000000008152509050600067e79439699f0c5c1a9050600061013482613903565b905082805190602001208160000151805190602001201461018a576040517f08c379a000000000000000000000000000000000000000000000000000000000815260040161018190613cbd565b60405180910390fd5b60006040518060400160405280600a81526020017f8ade8bf6b3a799bdd901000000000000000000000000000000000000000000008152509050600067d97a653b3ec2ef0a905060006101dc82613903565b9050828051906020012081600001518051906020012014610232576040517f08c379a000000000000000000000000000000000000000000000000000000000815260040161022990613d4f565b60405180910390fd5b60006040518060400160405280600a81526020017fa397bd9e8080cec1e401000000000000000000000000000000000000000000008152509050600067e483380003cf4ba39050600061028482613903565b90508280519060200120816000015180519060200120146102da576040517f08c379a00000000000000000000000000000000000000000000000000000000081526004016102d190613de1565b60405180910390fd5b60006040518060400160405280600a81526020017ff4bec8d0e0a78eb8d601000000000000000000000000000000000000000000008152509050600067d670393e0a121f749050600061032c82613903565b9050828051906020012081600001518051906020012014610382576040517f08c379a000000000000000000000000000000000000000000000000000000000815260040161037990613e73565b60405180910390fd5b60006040518060400160405280600a81526020017f8581e5a187a4d6e1800100000000000000000000000000000000000000000000815250905060006780c3592074394085905060006103d482613903565b905082805190602001208160000151805190602001201461042a576040517f08c379a000000000000000000000000000000000000000000000000000000000815260040161042190613f05565b60405180910390fd5b60006040518060400160405280600981526020017f94adc58eeac092f70e000000000000000000000000000000000000000000000081525090506000670eee4a06a1d156949050600061047c82613903565b90508280519060200120816000015180519060200120146104d2576040517f08c379a00000000000000000000000000000000000000000000000000000000081526004016104c990613f97565b60405180910390fd5b60006040518060400160405280600981526020017fbaafea93f5e0b3b931000000000000000000000000000000000000000000000081525090506000673172cf07527a97ba9050600061052482613903565b905082805190602001208160000151805190602001201461057a576040517f08c379a000000000000000000000000000000000000000000000000000000000815260040161057190614029565b60405180910390fd5b60006040518060400160405280600981526020017fa0a4af8cbfa7a2817b000000000000000000000000000000000000000000000081525090506000677b02893bf18bd220905060006105cc82613903565b9050828051906020012081600001518051906020012014610622576040517f08c379a0000000000000000000000000000000000000000000000000000000008152600401610619906140bb565b60405180910390fd5b60006040518060400160405280600981526020017f93ef8483e3a88a990a000000000000000000000000000000000000000000000081525090506000670a322946306137939050600061067482613903565b90508280519060200120816000015180519060200120146106ca576040517f08c379a00000000000000000000000000000000000000000000000000000000081526004016106c19061414d565b60405180910390fd5b60006040518060400160405280600981526020017fd7c589a8eff6bd866f000000000000000000000000000000000000000000000081525090506000676f0cf7b6f50262d79050600061071c82613903565b9050828051906020012081600001518051906020012014610772576040517f08c379a0000000000000000000000000000000000000000000000000000000008152600401610769906141df565b60405180910390fd5b60006040518060400160405280600981526020017f81d5c1ca88b79b88480000000000000000000000000000000000000000000000815250905060006748106db889506a81905060006107c482613903565b905082805190602001208160000151805190602001201461081a576040517f08c379a000000000000000000000000000000000000000000000000000000000815260040161081190614271565b60405180910390fd5b60006040518060400160405280600a81526020017fce97c1af80b7eaf2b601000000000000000000000000000000000000000000008152509050600067b6e5a9b805f04bce9050600061086c82613903565b90508280519060200120816000015180519060200120146108c2576040517f08c379a00000000000000000000000000000000000000000000000000000000081526004016108b990614303565b60405180910390fd5b60006040518060400160405280600a81526020017ff7b0fef2a08e99f2f601000000000000000000000000000000000000000000008152509050600067f6e464720e5f98779050600061091482613903565b905082805190602001208160000151805190602001201461096a576040517f08c379a000000000000000000000000000000000000000000000000000000000815260040161096190614395565b60405180910390fd5b60006040518060400160405280600981526020017faac8bfc09ae4bfda690000000000000000000000000000000000000000000000815250905060006769b4ff21a80fe42a905060006109bc82613903565b9050828051906020012081600001518051906020012014610a12576040517f08c379a0000000000000000000000000000000000000000000000000000000008152600401610a0990614427565b60405180910390fd5b60006040518060400160405280600a81526020017f8cf78dacadf1d7bbe201000000000000000000000000000000000000000000008152509050600067e2775f8ad5837b8c90506000610a6482613903565b9050828051906020012081600001518051906020012014610aba576040517f08c379a0000000000000000000000000000000000000000000000000000000008152600401610ab1906144b9565b60405180910390fd5b60006040518060400160405280600981526020017f92a1ae81c4efb7d3790000000000000000000000000000000000000000000000815250905060006779a6df7c402b909290506000610b0c82613903565b9050828051906020012081600001518051906020012014610b62576040517f08c379a0000000000000000000000000000000000000000000000000000000008152600401610b599061454b565b60405180910390fd5b60006040518060400160405280600981526020017fa9c4fbc697bdd8850100000000000000000000000000000000000000000000008152509050600067010b61e978dee22990506000610bb482613903565b9050828051906020012081600001518051906020012014610c0a576040517f08c379a0000000000000000000000000000000000000000000000000000000008152600401610c01906145dd565b60405180910390fd5b60006040518060400160405280600981526020017fee91ae86a2f4c0be2b000000000000000000000000000000000000000000000081525090506000672b7d03a220cb88ee90506000610c5c82613903565b9050828051906020012081600001518051906020012014610cb2576040517f08c379a0000000000000000000000000000000000000000000000000000000008152600401610ca99061466f565b60405180910390fd5b60006040518060400160405280600a81526020017fbcdc9ab483cad4c1d101000000000000000000000000000000000000000000008152509050600067d18352503686ae3c90506000610d0482613903565b9050828051906020012081600001518051906020012014610d5a576040517f08c379a0000000000000000000000000000000000000000000000000000000008152600401610d5190614701565b60405180910390fd5b60006040518060400160405280600981526020017fe1e4a3a2dfc9f0f9290000000000000000000000000000000000000000000000815250905060006729f3c24df448f26190506000610dac82613903565b9050828051906020012081600001518051906020012014610e02576040517f08c379a0000000000000000000000000000000000000000000000000000000008152600401610df990614793565b60405180910390fd5b60006040518060400160405280600981526020017faacfbcb19785a1ec4d000000000000000000000000000000000000000000000081525090506000674dd88429762f27aa90506000610e5482613903565b9050828051906020012081600001518051906020012014610eaa576040517f08c379a0000000000000000000000000000000000000000000000000000000008152600401610ea190614825565b60405180910390fd5b60006040518060400160405280600981526020017fa2f4e6e9d1f6f3df0d000000000000000000000000000000000000000000000081525090506000670dbfcfb51d39ba2290506000610efc82613903565b9050828051906020012081600001518051906020012014610f52576040517f08c379a0000000000000000000000000000000000000000000000000000000008152600401610f49906148b7565b60405180910390fd5b60006040518060400160405280600a81526020017fdbb6c7e2abadbbafab01000000000000000000000000000000000000000000008152509050600067ab5eed6abc51db5b90506000610fa482613903565b9050828051906020012081600001518051906020012014610ffa576040517f08c379a0000000000000000000000000000000000000000000000000000000008152600401610ff190614949565b60405180910390fd5b60006040518060400160405280600a81526020017ff09adf97a682f0c7ea01000000000000000000000000000000000000000000008152509050600067ea8fc01262f7cd709050600061104c82613903565b90508280519060200120816000015180519060200120146110a2576040517f08c379a0000000000000000000000000000000000000000000000000000000008152600401611099906149db565b60405180910390fd5b60006040518060400160405280600a81526020017f9993be8ef3efed8288010000000000000000000000000000000000000000000081525090506000678805b77f31cf8999905060006110f482613903565b905082805190602001208160000151805190602001201461114a576040517f08c379a000000000000000000000000000000000000000000000000000000000815260040161114190614a6d565b60405180910390fd5b60006040518060400160405280600a81526020017ff2dcf6e4efe1abce8b010000000000000000000000000000000000000000000081525090506000678b9caf0efc9dae729050600061119c82613903565b90508280519060200120816000015180519060200120146111f2576040517f08c379a00000000000000000000000000000000000000000000000000000000081526004016111e990614aff565b60405180910390fd5b60006040518060400160405280600a81526020017fbf9b94bb97c3c0859d010000000000000000000000000000000000000000000081525090506000679d0b021977650dbf9050600061124482613903565b905082805190602001208160000151805190602001201461129a576040517f08c379a000000000000000000000000000000000000000000000000000000000815260040161129190614b91565b60405180910390fd5b60006040518060400160405280600981526020017ffcddb790b8e08494110000000000000000000000000000000000000000000000815250905060006711281303820deefc905060006112ec82613903565b9050828051906020012081600001518051906020012014611342576040517f08c379a000000000000000000000000000000000000000000000000000000000815260040161133990614c23565b60405180910390fd5b60006040518060400160405280600a81526020017fb6eed992c0d6e7bce901000000000000000000000000000000000000000000008152509050600067e9799eb4025677369050600061139482613903565b90508280519060200120816000015180519060200120146113ea576040517f08c379a00000000000000000000000000000000000000000000000000000000081526004016113e190614cb5565b60405180910390fd5b60006040518060400160405280600a81526020017fc3dfcaef9cdce9c1d701000000000000000000000000000000000000000000008152509050600067d783a6e1cdf2afc39050600061143c82613903565b9050828051906020012081600001518051906020012014611492576040517f08c379a000000000000000000000000000000000000000000000000000000000815260040161148990614d47565b60405180910390fd5b60006040518060400160405280600a81526020017ff9a3d4a3a7c1b1928e010000000000000000000000000000000000000000000081525090506000678e24c60a747511f9905060006114e482613903565b905082805190602001208160000151805190602001201461153a576040517f08c379a000000000000000000000000000000000000000000000000000000000815260040161153190614dd9565b60405180910390fd5b60006040518060400160405280600981526020017fdafbffbd8990cbe5480000000000000000000000000000000000000000000000815250905060006748cb2c8097bffdda9050600061158c82613903565b90508280519060200120816000015180519060200120146115e2576040517f08c379a00000000000000000000000000000000000000000000000000000000081526004016115d990614e6b565b60405180910390fd5b60006040518060400160405280600981526020017f8baca2dfb8bacf90260000000000000000000000000000000000000000000000815250905060006726213dd38be8960b9050600061163482613903565b905082805190602001208160000151805190602001201461168a576040517f08c379a000000000000000000000000000000000000000000000000000000000815260040161168190614efd565b60405180910390fd5b60006040518060400160405280600a81526020017ff3ddeff3ac8485f0bc01000000000000000000000000000000000000000000008152509050600067bce01422ce7beef3905060006116dc82613903565b9050828051906020012081600001518051906020012014611732576040517f08c379a000000000000000000000000000000000000000000000000000000000815260040161172990614f8f565b60405180910390fd5b60006040518060400160405280600981526020017f99979af8a2b2ca811a000000000000000000000000000000000000000000000081525090506000671a0329922f068b999050600061178482613903565b90508280519060200120816000015180519060200120146117da576040517f08c379a00000000000000000000000000000000000000000000000000000000081526004016117d190615021565b60405180910390fd5b60006040518060400160405280600a81526020017fa38ca3d6f7ebaec88e010000000000000000000000000000000000000000000081525090506000678e90bb5f7ac8c6239050600061182c82613903565b9050828051906020012081600001518051906020012014611882576040517f08c379a0000000000000000000000000000000000000000000000000000000008152600401611879906150b3565b60405180910390fd5b60006040518060400160405280600981526020017fec83ddc7bbcfadbb0f000000000000000000000000000000000000000000000081525090506000670f76b67bb8f741ec905060006118d482613903565b905082805190602001208160000151805190602001201461192a576040517f08c379a000000000000000000000000000000000000000000000000000000000815260040161192190615145565b60405180910390fd5b60006040518060400160405280600a81526020017fb8838fbdefb0fcac89010000000000000000000000000000000000000000000081525090506000678959f186f7a3c1b89050600061197c82613903565b90508280519060200120816000015180519060200120146119d2576040517f08c379a00000000000000000000000000000000000000000000000000000000081526004016119c9906151d7565b60405180910390fd5b60006040518060400160405280600981526020017fffcbd6e2d4ed8be37a000000000000000000000000000000000000000000000081525090506000677ac62f6d4c55a5ff90506000611a2482613903565b9050828051906020012081600001518051906020012014611a7a576040517f08c379a0000000000000000000000000000000000000000000000000000000008152600401611a7190615269565b60405180910390fd5b60006040518060400160405280600a81526020017fdf8b88f3afd0a4ca920100000000000000000000000000000000000000000000815250905060006792949282fe6205df90506000611acc82613903565b9050828051906020012081600001518051906020012014611b22576040517f08c379a0000000000000000000000000000000000000000000000000000000008152600401611b19906152fb565b60405180910390fd5b60006040518060400160405280600981526020017fcbbbf2a0b3edf7ba77000000000000000000000000000000000000000000000081525090506000677775df6b341c9dcb90506000611b7482613903565b9050828051906020012081600001518051906020012014611bca576040517f08c379a0000000000000000000000000000000000000000000000000000000008152600401611bc19061538d565b60405180910390fd5b60006040518060400160405280600981526020017fa0f6acaf8ad988f2190000000000000000000000000000000000000000000000815250905060006719e422c8a5eb3b2090506000611c1c82613903565b9050828051906020012081600001518051906020012014611c72576040517f08c379a0000000000000000000000000000000000000000000000000000000008152600401611c699061541f565b60405180910390fd5b60006040518060400160405280600a81526020017f80fde3c6b7cbbaeca701000000000000000000000000000000000000000000008152509050600067a7d8ea5b78d8fe8090506000611cc482613903565b9050828051906020012081600001518051906020012014611d1a576040517f08c379a0000000000000000000000000000000000000000000000000000000008152600401611d11906154b1565b60405180910390fd5b60006040518060400160405280600981526020017fc6bfe6ee99d8e3e3760000000000000000000000000000000000000000000000815250905060006776c78ec19dd99fc690506000611d6c82613903565b9050828051906020012081600001518051906020012014611dc2576040517f08c379a0000000000000000000000000000000000000000000000000000000008152600401611db990615543565b60405180910390fd5b60006040518060400160405280600981526020017f8d8bf484c5cfb79b48000000000000000000000000000000000000000000000081525090506000674836de7c509d058d90506000611e1482613903565b9050828051906020012081600001518051906020012014611e6a576040517f08c379a0000000000000000000000000000000000000000000000000000000008152600401611e61906155d5565b60405180910390fd5b60006040518060400160405280600a81526020017f9e82cd8495cea6f29b010000000000000000000000000000000000000000000081525090506000679be49a715093411e90506000611ebc82613903565b9050828051906020012081600001518051906020012014611f12576040517f08c379a0000000000000000000000000000000000000000000000000000000008152600401611f0990615667565b60405180910390fd5b60006040518060400160405280600a81526020017f91eebae9d0f592a4de01000000000000000000000000000000000000000000008152509050600067de484bad0d2eb71190506000611f6482613903565b9050828051906020012081600001518051906020012014611fba576040517f08c379a0000000000000000000000000000000000000000000000000000000008152600401611fb1906156f9565b60405180910390fd5b60006040518060400160405280600981526020017fd1efcaf3f9f5b8b160000000000000000000000000000000000000000000000081525090506000676062e3af9e72b7d19050600061200c82613903565b9050828051906020012081600001518051906020012014612062576040517f08c379a00000000000000000000000000000000000000000000000000000000081526004016120599061578b565b60405180910390fd5b60006040518060400160405280600981526020017f8cf09ee3a5b8e9f2530000000000000000000000000000000000000000000000815250905060006753e5a5c25c67b80c905060006120b482613903565b905082805190602001208160000151805190602001201461210a576040517f08c379a00000000000000000000000000000000000000000000000000000000081526004016121019061581d565b60405180910390fd5b60006040518060400160405280600981526020017fdccb83cfb097edbc4c000000000000000000000000000000000000000000000081525090506000674c79b4bb09e0e5dc9050600061215c82613903565b90508280519060200120816000015180519060200120146121b2576040517f08c379a00000000000000000000000000000000000000000000000000000000081526004016121a9906158af565b60405180910390fd5b60006040518060400160405280600a81526020017fc0f291e4ea8fc0b6f201000000000000000000000000000000000000000000008152509050600067f26d007eac8479409050600061220482613903565b905082805190602001208160000151805190602001201461225a576040517f08c379a000000000000000000000000000000000000000000000000000000000815260040161225190615941565b60405180910390fd5b60006040518060400160405280600a81526020017f99b3bbb5a4f8899efd01000000000000000000000000000000000000000000008152509050600067fd3c27c246aed999905060006122ac82613903565b9050828051906020012081600001518051906020012014612302576040517f08c379a00000000000000000000000000000000000000000000000000000000081526004016122f9906159d3565b60405180910390fd5b60006040518060400160405280600981526020017ff4b8b5b4a1f3d0cc1b000000000000000000000000000000000000000000000081525090506000671b99439a168d5c749050600061235482613903565b90508280519060200120816000015180519060200120146123aa576040517f08c379a00000000000000000000000000000000000000000000000000000000081526004016123a190615a65565b60405180910390fd5b60006040518060400160405280600a81526020017f909ceacb8edbe7aabe01000000000000000000000000000000000000000000008152509050600067be559ed8e97a8e10905060006123fc82613903565b9050828051906020012081600001518051906020012014612452576040517f08c379a000000000000000000000000000000000000000000000000000000000815260040161244990615af7565b60405180910390fd5b60006040518060400160405280600981526020017fa29ca3c2cef9b5821c000000000000000000000000000000000000000000000081525090506000671c04d7cce848ce22905060006124a482613903565b90508280519060200120816000015180519060200120146124fa576040517f08c379a00000000000000000000000000000000000000000000000000000000081526004016124f190615b89565b60405180910390fd5b60006040518060400160405280600a81526020017f91b7bffb81c1c3e3d401000000000000000000000000000000000000000000008152509050600067d4c70e081f6fdb919050600061254c82613903565b90508280519060200120816000015180519060200120146125a2576040517f08c379a000000000000000000000000000000000000000000000000000000000815260040161259990615c1b565b60405180910390fd5b60006040518060400160405280600981526020017ff69a8de5f2dda69a6a000000000000000000000000000000000000000000000081525090506000676a349aef2ca34d76905060006125f482613903565b905082805190602001208160000151805190602001201461264a576040517f08c379a000000000000000000000000000000000000000000000000000000000815260040161264190615cad565b60405180910390fd5b60006040518060400160405280600a81526020017fb2e2ea85b4a5eae9da01000000000000000000000000000000000000000000008152509050600067dad3a92b40bab1329050600061269c82613903565b90508280519060200120816000015180519060200120146126f2576040517f08c379a00000000000000000000000000000000000000000000000000000000081526004016126e990615d3f565b60405180910390fd5b60006040518060400160405280600a81526020017fd18799de8a8fa090f101000000000000000000000000000000000000000000008152509050600067f1208078abc643d19050600061274482613903565b905082805190602001208160000151805190602001201461279a576040517f08c379a000000000000000000000000000000000000000000000000000000000815260040161279190615dd1565b60405180910390fd5b60006040518060400160405280600a81526020017ff3affec0fdb7a8a88c010000000000000000000000000000000000000000000081525090506000678c50a1bfd81f97f3905060006127ec82613903565b9050828051906020012081600001518051906020012014612842576040517f08c379a000000000000000000000000000000000000000000000000000000000815260040161283990615e63565b60405180910390fd5b60006040518060400160405280600981526020017f82808b9f9caca3b22f000000000000000000000000000000000000000000000081525090506000672f648d61c3e2c0029050600061289482613903565b90508280519060200120816000015180519060200120146128ea576040517f08c379a00000000000000000000000000000000000000000000000000000000081526004016128e190615ef5565b60405180910390fd5b60006040518060400160405280600a81526020017facb8aeb4c2a8a2fad701000000000000000000000000000000000000000000008152509050600067d7f48944268b9c2c9050600061293c82613903565b9050828051906020012081600001518051906020012014612992576040517f08c379a000000000000000000000000000000000000000000000000000000000815260040161298990615f87565b60405180910390fd5b60006040518060400160405280600a81526020017fa59ff9a68fc5c5c5d401000000000000000000000000000000000000000000008152509050600067d48b1628f4de4fa5905060006129e482613903565b9050828051906020012081600001518051906020012014612a3a576040517f08c379a0000000000000000000000000000000000000000000000000000000008152600401612a3190616019565b60405180910390fd5b60006040518060400160405280600981526020017f8fc895b2be949e8f2200000000000000000000000000000000000000000000008152509050600067221e78a3e645640f90506000612a8c82613903565b9050828051906020012081600001518051906020012014612ae2576040517f08c379a0000000000000000000000000000000000000000000000000000000008152600401612ad9906160ab565b60405180910390fd5b60006040518060400160405280600a81526020017feb9da081b197c6f2f001000000000000000000000000000000000000000000008152509050600067f0e518bb10280eeb90506000612b3482613903565b9050828051906020012081600001518051906020012014612b8a576040517f08c379a0000000000000000000000000000000000000000000000000000000008152600401612b819061613d565b60405180910390fd5b60006040518060400160405280600981526020017ffef9bcd2ecedfd976600000000000000000000000000000000000000000000008152509050600067662ff76eca4f3cfe90506000612bdc82613903565b9050828051906020012081600001518051906020012014612c32576040517f08c379a0000000000000000000000000000000000000000000000000000000008152600401612c29906161cf565b60405180910390fd5b60006040518060400160405280600a81526020017f88cecbbbd4ccf3c4cc01000000000000000000000000000000000000000000008152509050600067cc89ce654772e70890506000612c8482613903565b9050828051906020012081600001518051906020012014612cda576040517f08c379a0000000000000000000000000000000000000000000000000000000008152600401612cd190616261565b60405180910390fd5b60006040518060400160405280600a81526020017faca4adb986c5b0b3c801000000000000000000000000000000000000000000008152509050600067c866c228672b522c90506000612d2c82613903565b9050828051906020012081600001518051906020012014612d82576040517f08c379a0000000000000000000000000000000000000000000000000000000008152600401612d79906162f3565b60405180910390fd5b60006040518060400160405280600981526020017fc4e5f292dfeb8eab130000000000000000000000000000000000000000000000815250905060006713563b5df25cb2c490506000612dd482613903565b9050828051906020012081600001518051906020012014612e2a576040517f08c379a0000000000000000000000000000000000000000000000000000000008152600401612e2190616385565b60405180910390fd5b60006040518060400160405280600981526020017fd780ffb2c798a5af1a000000000000000000000000000000000000000000000081525090506000671a5e94c4765fc05790506000612e7c82613903565b9050828051906020012081600001518051906020012014612ed2576040517f08c379a0000000000000000000000000000000000000000000000000000000008152600401612ec990616417565b60405180910390fd5b60006040518060400160405280600a81526020017fd6fbc49eb4faece7c301000000000000000000000000000000000000000000008152509050600067c3cfb3d343d13dd690506000612f2482613903565b9050828051906020012081600001518051906020012014612f7a576040517f08c379a0000000000000000000000000000000000000000000000000000000008152600401612f71906164a9565b60405180910390fd5b60006040518060400160405280600a81526020017f82bcdde99b91e4fccc01000000000000000000000000000000000000000000008152509050600067ccf99089bd375e0290506000612fcc82613903565b9050828051906020012081600001518051906020012014613022576040517f08c379a00000000000000000000000000000000000000000000000000000000081526004016130199061653b565b60405180910390fd5b60006040518060400160405280600981526020017fb0a7e3f7d2e9d6b1450000000000000000000000000000000000000000000000815250905060006745635b4d2ef8d3b09050600061307482613903565b90508280519060200120816000015180519060200120146130ca576040517f08c379a00000000000000000000000000000000000000000000000000000000081526004016130c1906165cd565b60405180910390fd5b60006040518060400160405280600981526020017fe49cb8fe88859b864600000000000000000000000000000000000000000000008152509050600067460c6c288fce0e649050600061311c82613903565b9050828051906020012081600001518051906020012014613172576040517f08c379a00000000000000000000000000000000000000000000000000000000081526004016131699061665f565b60405180910390fd5b60006040518060400160405280600981526020017fa185a8fcaa98d1f0670000000000000000000000000000000000000000000000815250905060006767e144c2af8a02a1905060006131c482613903565b905082805190602001208160000151805190602001201461321a576040517f08c379a0000000000000000000000000000000000000000000000000000000008152600401613211906166f1565b60405180910390fd5b60006040518060400160405280600a81526020017f85a6f18fa5a0d1e09e010000000000000000000000000000000000000000000081525090506000679ec1450251fc53059050600061326c82613903565b90508280519060200120816000015180519060200120146132c2576040517f08c379a00000000000000000000000000000000000000000000000000000000081526004016132b990616783565b60405180910390fd5b60006040518060400160405280600981526020017faeac8288c1e7f98070000000000000000000000000000000000000000000000081525090506000677001e73c1100962e9050600061331482613903565b905082805190602001208160000151805190602001201461336a576040517f08c379a000000000000000000000000000000000000000000000000000000000815260040161336190616815565b60405180910390fd5b60006040518060400160405280600981526020017fa2afa0f6899ee3c90e000000000000000000000000000000000000000000000081525090506000670e938cf09ec817a2905060006133bc82613903565b9050828051906020012081600001518051906020012014613412576040517f08c379a0000000000000000000000000000000000000000000000000000000008152600401613409906168a7565b60405180910390fd5b60006040518060400160405280600a81526020017f9acfce97d6b3b6f2ad01000000000000000000000000000000000000000000008152509050600067ade4d99d62f3a79a9050600061346482613903565b90508280519060200120816000015180519060200120146134ba576040517f08c379a00000000000000000000000000000000000000000000000000000000081526004016134b190616939565b60405180910390fd5b60006040518060400160405280600981526020017feda0ca89cabcc9e8130000000000000000000000000000000000000000000000815250905060006713d125e4a132906d9050600061350c82613903565b9050828051906020012081600001518051906020012014613562576040517f08c379a0000000000000000000000000000000000000000000000000000000008152600401613559906169cb565b60405180910390fd5b60006040518060400160405280600981526020017f82b1c7b6d1ebefb454000000000000000000000000000000000000000000000081525090506000675469bf5d16d1d882905060006135b482613903565b905082805190602001208160000151805190602001201461360a576040517f08c379a000000000000000000000000000000000000000000000000000000000815260040161360190616a5d565b60405180910390fd5b60006040518060400160405280600981526020017f85ebdf98f1bdff9e4800000000000000000000000000000000000000000000008152509050600067483dfdef1317f5859050600061365c82613903565b90508280519060200120816000015180519060200120146136b2576040517f08c379a00000000000000000000000000000000000000000000000000000000081526004016136a990616aef565b60405180910390fd5b60006040518060400160405280600981526020017f90ebddf3dcf0cc967900000000000000000000000000000000000000000000008152509050600067792d3385ce7775909050600061370482613903565b905082805190602001208160000151805190602001201461375a576040517f08c379a000000000000000000000000000000000000000000000000000000000815260040161375190616b81565b60405180910390fd5b60006040518060400160405280600981526020017f8de58cfb85fc9a88340000000000000000000000000000000000000000000000815250905060006734106be05f63328d905060006137ac82613903565b9050828051906020012081600001518051906020012014613802576040517f08c379a00000000000000000000000000000000000000000000000000000000081526004016137f990616c13565b60405180910390fd5b505050505050505050505050505050505050505050505050505050505050505050505050505050505050505050505050505050505050505050505050505050505050505050505050505050505050505050505050505050505050505050505050505050505050505050505050505050505050505050505050505050505050505050505050505050505050505050505050505050505050505050505050505050505050505050505050505050505050505050505050505050505050505050505050505050505050505050505050505050505050505050505050505050505050505050505050505050505050505050505050505050505050505050505050505050565b61390b613b8e565b613913613b8e565b5b600115613981576000607f8416905060078467ffffffffffffffff16901c935060008467ffffffffffffffff160361396457613959818361398890919063ffffffff16565b508192505050613983565b61397a608082178361398890919063ffffffff16565b5050613914565b505b919050565b613990613b8e565b6000836000015151905060006001826139a99190616c6c565b9050846020015182106139cd576139cc856002836139c79190616ca0565b6139f2565b5b845160208382010185815381518311156139e5578282525b5050849250505092915050565b600082600001519050613a058383613a16565b50613a108382613a8f565b50505050565b613a1e613b8e565b6000602083613a2d9190616d11565b14613a5957602082613a3f9190616d11565b6020613a4b9190616d42565b82613a569190616c6c565b91505b818360200181815250506040518084526000815282810160200181811015613a8057600080fd5b80604052505082905092915050565b613a97613b8e565b613aa383838451613aab565b905092915050565b613ab3613b8e565b8251821115613ac157600080fd5b6000846000015151905060008382613ad99190616c6c565b90508560200151811115613afe57613afd86600283613af89190616ca0565b6139f2565b5b60008087518051856020830101935080851115613b19578482525b60208901925050505b60208610613b605780518252602082613b3b9190616c6c565b9150602081613b4a9190616c6c565b9050602086613b599190616d42565b9550613b22565b60006001876020036101000a0390508019825116818451168181178552505050879450505050509392505050565b604051806040016040528060608152602001600081525090565b600082825260208201905092915050565b7f27313733343338333839343439313530323634303927206973206e6f7420726560008201527f7475726e696e6720276539653366626339386662346563643866303031270000602082015250565b6000613c15603e83613ba8565b9150613c2082613bb9565b604082019050919050565b60006020820190508181036000830152613c4481613c08565b9050919050565b7f27313636383730323536343531313732363639373027206973206e6f7420726560008201527f7475726e696e6720273961623862316638393961643865636165373031270000602082015250565b6000613ca7603e83613ba8565b9150613cb282613c4b565b604082019050919050565b60006020820190508181036000830152613cd681613c9a565b9050919050565b7f27313536373039343931353835313935303035353427206973206e6f7420726560008201527f7475726e696e6720273861646538626636623361373939626464393031270000602082015250565b6000613d39603e83613ba8565b9150613d4482613cdd565b604082019050919050565b60006020820190508181036000830152613d6881613d2c565b9050919050565b7f27313634363630363632333533313137333737363327206973206e6f7420726560008201527f7475726e696e6720276133393762643965383038306365633165343031270000602082015250565b6000613dcb603e83613ba8565b9150613dd682613d6f565b604082019050919050565b60006020820190508181036000830152613dfa81613dbe565b9050919050565b7f27313534353139313332363031323738383732323027206973206e6f7420726560008201527f7475726e696e6720276634626563386430653061373865623864363031270000602082015250565b6000613e5d603e83613ba8565b9150613e6882613e01565b604082019050919050565b60006020820190508181036000830152613e8c81613e50565b9050919050565b7f273932373833353736353332333730383833383927206973206e6f742072657460008201527f75726e696e672027383538316535613138376134643665313830303127000000602082015250565b6000613eef603d83613ba8565b9150613efa82613e93565b604082019050919050565b60006020820190508181036000830152613f1e81613ee2565b9050919050565b7f273130373538373837353333333332333733393627206973206e6f742072657460008201527f75726e696e672027393461646335386565616330393266373065270000000000602082015250565b6000613f81603b83613ba8565b9150613f8c82613f25565b604082019050919050565b60006020820190508181036000830152613fb081613f74565b9050919050565b7f273335363331333738383535353839373032393827206973206e6f742072657460008201527f75726e696e672027626161666561393366356530623362393331270000000000602082015250565b6000614013603b83613ba8565b915061401e82613fb7565b604082019050919050565b6000602082019050818103600083015261404281614006565b9050919050565b7f273838363337393739303731363731303535363827206973206e6f742072657460008201527f75726e696e672027613061346166386362666137613238313762270000000000602082015250565b60006140a5603b83613ba8565b91506140b082614049565b604082019050919050565b600060208201905081810360008301526140d481614098565b9050919050565b7f2737333436393530373036353039333932383327206973206e6f74207265747560008201527f726e696e67202739336566383438336533613838613939306127000000000000602082015250565b6000614137603a83613ba8565b9150614142826140db565b604082019050919050565b600060208201905081810360008301526141668161412a565b9050919050565b7f273830303230343330303330393732313136303727206973206e6f742072657460008201527f75726e696e672027643763353839613865666636626438363666270000000000602082015250565b60006141c9603b83613ba8565b91506141d48261416d565b604082019050919050565b600060208201905081810360008301526141f8816141bc565b9050919050565b7f273531393237373130303937303333343036373327206973206e6f742072657460008201527f75726e696e672027383164356331636138386237396238383438270000000000602082015250565b600061425b603b83613ba8565b9150614266826141ff565b604082019050919050565b6000602082019050818103600083015261428a8161424e565b9050919050565b7f27313331373931323634393234303833333533313027206973206e6f7420726560008201527f7475726e696e6720276365393763316166383062376561663262363031270000602082015250565b60006142ed603e83613ba8565b91506142f882614291565b604082019050919050565b6000602082019050818103600083015261431c816142e0565b9050919050565b7f27313737393034353438363930353034393731343327206973206e6f7420726560008201527f7475726e696e6720276637623066656632613038653939663266363031270000602082015250565b600061437f603e83613ba8565b915061438a82614323565b604082019050919050565b600060208201905081810360008301526143ae81614372565b9050919050565b7f273736313639393333383938303839363837343627206973206e6f742072657460008201527f75726e696e672027616163386266633039616534626664613639270000000000602082015250565b6000614411603b83613ba8565b915061441c826143b5565b604082019050919050565b6000602082019050818103600083015261444081614404565b9050919050565b7f27313633313836313638323436393235373130323027206973206e6f7420726560008201527f7475726e696e6720273863663738646163616466316437626265323031270000602082015250565b60006144a3603e83613ba8565b91506144ae82614447565b604082019050919050565b600060208201905081810360008301526144d281614496565b9050919050565b7f273837363539333934343934363837383437383627206973206e6f742072657460008201527f75726e696e672027393261316165383163346566623764333739270000000000602082015250565b6000614535603b83613ba8565b9150614540826144d9565b604082019050919050565b6000602082019050818103600083015261456481614528565b9050919050565b7f27373532363134373431363438393232303127206973206e6f7420726574757260008201527f6e696e6720276139633466626336393762646438383530312700000000000000602082015250565b60006145c7603983613ba8565b91506145d28261456b565b604082019050919050565b600060208201905081810360008301526145f6816145ba565b9050919050565b7f273331333336363439313035383935323833303227206973206e6f742072657460008201527f75726e696e672027656539316165383661326634633062653262270000000000602082015250565b6000614659603b83613ba8565b9150614664826145fd565b604082019050919050565b600060208201905081810360008301526146888161464c565b9050919050565b7f27313530393730303038383033343136393139363427206973206e6f7420726560008201527f7475726e696e6720276263646339616234383363616434633164313031270000602082015250565b60006146eb603e83613ba8565b91506146f68261468f565b604082019050919050565b6000602082019050818103600083015261471a816146de565b9050919050565b7f273330323239373334313439363234323634363527206973206e6f742072657460008201527f75726e696e672027653165346133613264666339663066393239270000000000602082015250565b600061477d603b83613ba8565b915061478882614721565b604082019050919050565b600060208201905081810360008301526147ac81614770565b9050919050565b7f273536303933373836343935303132383031373027206973206e6f742072657460008201527f75726e696e672027616163666263623139373835613165633464270000000000602082015250565b600061480f603b83613ba8565b915061481a826147b3565b604082019050919050565b6000602082019050818103600083015261483e81614802565b9050919050565b7f2739393037333838313938333131353131333827206973206e6f74207265747560008201527f726e696e67202761326634653665396431663666336466306427000000000000602082015250565b60006148a1603a83613ba8565b91506148ac82614845565b604082019050919050565b600060208201905081810360008301526148d081614894565b9050919050565b7f27313233343835363832373039373832373631383727206973206e6f7420726560008201527f7475726e696e6720276462623663376532616261646262616661623031270000602082015250565b6000614933603e83613ba8565b915061493e826148d7565b604082019050919050565b6000602082019050818103600083015261496281614926565b9050919050565b7f27313639303139333931313137343731313233303427206973206e6f7420726560008201527f7475726e696e6720276630396164663937613638326630633765613031270000602082015250565b60006149c5603e83613ba8565b91506149d082614969565b604082019050919050565b600060208201905081810360008301526149f4816149b8565b9050919050565b7f273938303134343139323039363631363639333727206973206e6f742072657460008201527f75726e696e672027393939336265386566336566656438323838303127000000602082015250565b6000614a57603d83613ba8565b9150614a62826149fb565b604082019050919050565b60006020820190508181036000830152614a8681614a4a565b9050919050565b7f27313030363031303831343635343134343036323627206973206e6f7420726560008201527f7475726e696e6720276632646366366534656665316162636538623031270000602082015250565b6000614ae9603e83613ba8565b9150614af482614a8d565b604082019050919050565b60006020820190508181036000830152614b1881614adc565b9050919050565b7f27313133313631343037393730393930353234373927206973206e6f7420726560008201527f7475726e696e6720276266396239346262393763336330383539643031270000602082015250565b6000614b7b603e83613ba8565b9150614b8682614b1f565b604082019050919050565b60006020820190508181036000830152614baa81614b6e565b9050919050565b7f273132333632353930303335303039383230313227206973206e6f742072657460008201527f75726e696e672027666364646237393062386530383439343131270000000000602082015250565b6000614c0d603b83613ba8565b9150614c1882614bb1565b604082019050919050565b60006020820190508181036000830152614c3c81614c00565b9050919050565b7f27313638323336353233373839383937323133393827206973206e6f7420726560008201527f7475726e696e6720276236656564393932633064366537626365393031270000602082015250565b6000614c9f603e83613ba8565b9150614caa82614c43565b604082019050919050565b60006020820190508181036000830152614cce81614c92565b9050919050565b7f27313535323934333934323838353636383835373927206973206e6f7420726560008201527f7475726e696e6720276333646663616566396364636539633164373031270000602082015250565b6000614d31603e83613ba8565b9150614d3c82614cd5565b604082019050919050565b60006020820190508181036000830152614d6081614d24565b9050919050565b7f27313032343235323932303037353331353235303527206973206e6f7420726560008201527f7475726e696e6720276639613364346133613763316231393238653031270000602082015250565b6000614dc3603e83613ba8565b9150614dce82614d67565b604082019050919050565b60006020820190508181036000830152614df281614db6565b9050919050565b7f273532343533333531323138313634353235373027206973206e6f742072657460008201527f75726e696e672027646166626666626438393930636265353438270000000000602082015250565b6000614e55603b83613ba8565b9150614e6082614df9565b604082019050919050565b60006020820190508181036000830152614e8481614e48565b9050919050565b7f273237343735343532323634363733383237393527206973206e6f742072657460008201527f75726e696e672027386261636132646662386261636639303236270000000000602082015250565b6000614ee7603b83613ba8565b9150614ef282614e8b565b604082019050919050565b60006020820190508181036000830152614f1681614eda565b9050919050565b7f27313336303939303032313336333933313130393127206973206e6f7420726560008201527f7475726e696e6720276633646465666633616338343835663062633031270000602082015250565b6000614f79603e83613ba8565b9150614f8482614f1d565b604082019050919050565b60006020820190508181036000830152614fa881614f6c565b9050919050565b7f273138373433383735373737343731383034343127206973206e6f742072657460008201527f75726e696e672027393939373961663861326232636138313161270000000000602082015250565b600061500b603b83613ba8565b915061501682614faf565b604082019050919050565b6000602082019050818103600083015261503a81614ffe565b9050919050565b7f27313032373239313637363837383833363638383327206973206e6f7420726560008201527f7475726e696e6720276133386361336436663765626165633838653031270000602082015250565b600061509d603e83613ba8565b91506150a882615041565b604082019050919050565b600060208201905081810360008301526150cc81615090565b9050919050565b7f273131313432373836303033323132323131303027206973206e6f742072657460008201527f75726e696e672027656338336464633762626366616462623066270000000000602082015250565b600061512f603b83613ba8565b915061513a826150d3565b604082019050919050565b6000602082019050818103600083015261515e81615122565b9050919050565b7f273938393732303732313831303539393136303827206973206e6f742072657460008201527f75726e696e672027623838333866626465666230666361633839303127000000602082015250565b60006151c1603d83613ba8565b91506151cc82615165565b604082019050919050565b600060208201905081810360008301526151f0816151b4565b9050919050565b7f273838343638313036363434393435343032383727206973206e6f742072657460008201527f75726e696e672027666663626436653264346564386265333761270000000000602082015250565b6000615253603b83613ba8565b915061525e826151f7565b604082019050919050565b6000602082019050818103600083015261528281615246565b9050919050565b7f27313035363232323831313734303138393634313527206973206e6f7420726560008201527f7475726e696e6720276466386238386633616664306134636139323031270000602082015250565b60006152e5603e83613ba8565b91506152f082615289565b604082019050919050565b60006020820190508181036000830152615314816152d8565b9050919050565b7f273836303830333139313433313733353634393127206973206e6f742072657460008201527f75726e696e672027636262626632613062336564663762613737270000000000602082015250565b6000615377603b83613ba8565b91506153828261531b565b604082019050919050565b600060208201905081810360008301526153a68161536a565b9050919050565b7f273138363536353433393038313036383832383827206973206e6f742072657460008201527f75726e696e672027613066366163616638616439383866323139270000000000602082015250565b6000615409603b83613ba8565b9150615414826153ad565b604082019050919050565b60006020820190508181036000830152615438816153fc565b9050919050565b7f27313230393436373434373738393338373733373627206973206e6f7420726560008201527f7475726e696e6720273830666465336336623763626261656361373031270000602082015250565b600061549b603e83613ba8565b91506154a68261543f565b604082019050919050565b600060208201905081810360008301526154ca8161548e565b9050919050565b7f273835353839363635373930363930333434333827206973206e6f742072657460008201527f75726e696e672027633662666536656539396438653365333736270000000000602082015250565b600061552d603b83613ba8565b9150615538826154d1565b604082019050919050565b6000602082019050818103600083015261555c81615520565b9050919050565b7f273532303335393130343439383239363536343527206973206e6f742072657460008201527f75726e696e672027386438626634383463356366623739623438270000000000602082015250565b60006155bf603b83613ba8565b91506155ca82615563565b604082019050919050565b600060208201905081810360008301526155ee816155b2565b9050919050565b7f27313132333332373331383230343236363933343227206973206e6f7420726560008201527f7475726e696e6720273965383263643834393563656136663239623031270000602082015250565b6000615651603e83613ba8565b915061565c826155f5565b604082019050919050565b6000602082019050818103600083015261568081615644565b9050919050565b7f27313630313731333532383133363537353937363127206973206e6f7420726560008201527f7475726e696e6720273931656562616539643066353932613464653031270000602082015250565b60006156e3603e83613ba8565b91506156ee82615687565b604082019050919050565b60006020820190508181036000830152615712816156d6565b9050919050565b7f273639343533363339313837373538323633383527206973206e6f742072657460008201527f75726e696e672027643165666361663366396635623862313630270000000000602082015250565b6000615775603b83613ba8565b915061578082615719565b604082019050919050565b600060208201905081810360008301526157a481615768565b9050919050565b7f273630343534323033323930303732393835373227206973206e6f742072657460008201527f75726e696e672027386366303965653361356238653966323533270000000000602082015250565b6000615807603b83613ba8565b9150615812826157ab565b604082019050919050565b60006020820190508181036000830152615836816157fa565b9050919050565b7f273535313036333433333434383231333033393627206973206e6f742072657460008201527f75726e696e672027646363623833636662303937656462633463270000000000602082015250565b6000615899603b83613ba8565b91506158a48261583d565b604082019050919050565b600060208201905081810360008301526158c88161588c565b9050919050565b7f27313734363836313930373337303032363432353627206973206e6f7420726560008201527f7475726e696e6720276330663239316534656138666330623666323031270000602082015250565b600061592b603e83613ba8565b9150615936826158cf565b604082019050919050565b6000602082019050818103600083015261595a8161591e565b9050919050565b7f27313832343735303335303535363134303939343527206973206e6f7420726560008201527f7475726e696e6720273939623362626235613466383839396566643031270000602082015250565b60006159bd603e83613ba8565b91506159c882615961565b604082019050919050565b600060208201905081810360008301526159ec816159b0565b9050919050565b7f273139383836393530333935343331373232313227206973206e6f742072657460008201527f75726e696e672027663462386235623461316633643063633162270000000000602082015250565b6000615a4f603b83613ba8565b9150615a5a826159f3565b604082019050919050565b60006020820190508181036000830152615a7e81615a42565b9050919050565b7f27313337313530343238393436393339363132333227206973206e6f7420726560008201527f7475726e696e6720273930396365616362386564626537616162653031270000602082015250565b6000615ae1603e83613ba8565b9150615aec82615a85565b604082019050919050565b60006020820190508181036000830152615b1081615ad4565b9050919050565b7f273230313839373538303830333932313035333027206973206e6f742072657460008201527f75726e696e672027613239636133633263656639623538323163270000000000602082015250565b6000615b73603b83613ba8565b9150615b7e82615b17565b604082019050919050565b60006020820190508181036000830152615ba281615b66565b9050919050565b7f27313533333232333838383434353630393436303927206973206e6f7420726560008201527f7475726e696e6720273931623762666662383163316333653364343031270000602082015250565b6000615c05603e83613ba8565b9150615c1082615ba9565b604082019050919050565b60006020820190508181036000830152615c3481615bf8565b9050919050565b7f273736353239313230313838343630373632373827206973206e6f742072657460008201527f75726e696e672027663639613864653566326464613639613661270000000000602082015250565b6000615c97603b83613ba8565b9150615ca282615c3b565b604082019050919050565b60006020820190508181036000830152615cc681615c8a565b9050919050565b7f27313537363831333237323335383839303332313827206973206e6f7420726560008201527f7475726e696e6720276232653265613835623461356561653964613031270000602082015250565b6000615d29603e83613ba8565b9150615d3482615ccd565b604082019050919050565b60006020820190508181036000830152615d5881615d1c565b9050919050565b7f27313733373530323836313831363137303138343127206973206e6f7420726560008201527f7475726e696e6720276431383739396465386138666130393066313031270000602082015250565b6000615dbb603e83613ba8565b9150615dc682615d5f565b604082019050919050565b60006020820190508181036000830152615dea81615dae565b9050919050565b7f27313031313037353930303837383335333831363327206973206e6f7420726560008201527f7475726e696e6720276633616666656330666462376138613838633031270000602082015250565b6000615e4d603e83613ba8565b9150615e5882615df1565b604082019050919050565b60006020820190508181036000830152615e7c81615e40565b9050919050565b7f273334313530303938363834393134343031333027206973206e6f742072657460008201527f75726e696e672027383238303862396639636163613362323266270000000000602082015250565b6000615edf603b83613ba8565b9150615eea82615e83565b604082019050919050565b60006020820190508181036000830152615f0e81615ed2565b9050919050565b7f27313535363132313335333832363933373134333627206973206e6f7420726560008201527f7475726e696e6720276163623861656234633261386132666164373031270000602082015250565b6000615f71603e83613ba8565b9150615f7c82615f15565b604082019050919050565b60006020820190508181036000830152615fa081615f64565b9050919050565b7f27313533313533353933323239363632313636313327206973206e6f7420726560008201527f7475726e696e6720276135396666396136386663356335633564343031270000602082015250565b6000616003603e83613ba8565b915061600e82615fa7565b604082019050919050565b6000602082019050818103600083015261603281615ff6565b9050919050565b7f273234353835333530393139323931373931353127206973206e6f742072657460008201527f75726e696e672027386663383935623262653934396538663232270000000000602082015250565b6000616095603b83613ba8565b91506160a082616039565b604082019050919050565b600060208201905081810360008301526160c481616088565b9050919050565b7f27313733353833303735333034373834353635353527206973206e6f7420726560008201527f7475726e696e6720276562396461303831623139376336663266303031270000602082015250565b6000616127603e83613ba8565b9150616132826160cb565b604082019050919050565b600060208201905081810360008301526161568161611a565b9050919050565b7f273733363333373539373039383637303431323627206973206e6f742072657460008201527f75726e696e672027666566396263643265636564666439373636270000000000602082015250565b60006161b9603b83613ba8565b91506161c48261615d565b604082019050919050565b600060208201905081810360008301526161e8816161ac565b9050919050565b7f27313437333835333831383939333233393031353227206973206e6f7420726560008201527f7475726e696e6720273838636563626262643463636633633463633031270000602082015250565b600061624b603e83613ba8565b9150616256826161ef565b604082019050919050565b6000602082019050818103600083015261627a8161623e565b9050919050565b7f27313434343034343237333339393534343638323827206973206e6f7420726560008201527f7475726e696e6720276163613461646239383663356230623363383031270000602082015250565b60006162dd603e83613ba8565b91506162e882616281565b604082019050919050565b6000602082019050818103600083015261630c816162d0565b9050919050565b7f273133393333363634303934303139303538363027206973206e6f742072657460008201527f75726e696e672027633465356632393264666562386561623133270000000000602082015250565b600061636f603b83613ba8565b915061637a82616313565b604082019050919050565b6000602082019050818103600083015261639e81616362565b9050919050565b7f273139303031313936363433313734313535313127206973206e6f742072657460008201527f75726e696e672027643738306666623263373938613561663161270000000000602082015250565b6000616401603b83613ba8565b915061640c826163a5565b604082019050919050565b60006020820190508181036000830152616430816163f4565b9050919050565b7f27313431303936393338373735333233313039393827206973206e6f7420726560008201527f7475726e696e6720276436666263343965623466616563653763333031270000602082015250565b6000616493603e83613ba8565b915061649e82616437565b604082019050919050565b600060208201905081810360008301526164c281616486565b9050919050565b7f27313437363939393533373431393736393339353427206973206e6f7420726560008201527f7475726e696e6720273832626364646539396239316534666363633031270000602082015250565b6000616525603e83613ba8565b9150616530826164c9565b604082019050919050565b6000602082019050818103600083015261655481616518565b9050919050565b7f273439393939343033393833373030353039393227206973206e6f742072657460008201527f75726e696e672027623061376533663764326539643662313435270000000000602082015250565b60006165b7603b83613ba8565b91506165c28261655b565b604082019050919050565b600060208201905081810360008301526165e6816165aa565b9050919050565b7f273530343735323832303338343236323130323827206973206e6f742072657460008201527f75726e696e672027653439636238666538383835396238363436270000000000602082015250565b6000616649603b83613ba8565b9150616654826165ed565b604082019050919050565b600060208201905081810360008301526166788161663c565b9050919050565b7f273734383533333936353836323538373636343127206973206e6f742072657460008201527f75726e696e672027613138356138666361613938643166303637270000000000602082015250565b60006166db603b83613ba8565b91506166e68261667f565b604082019050919050565b6000602082019050818103600083015261670a816166ce565b9050919050565b7f27313134333935303034303437363535313234353327206973206e6f7420726560008201527f7475726e696e6720273835613666313866613561306431653039653031270000602082015250565b600061676d603e83613ba8565b915061677882616711565b604082019050919050565b6000602082019050818103600083015261679c81616760565b9050919050565b7f273830373039383632353233393339343436323227206973206e6f742072657460008201527f75726e696e672027616561633832383863316537663938303730270000000000602082015250565b60006167ff603b83613ba8565b915061680a826167a3565b604082019050919050565b6000602082019050818103600083015261682e816167f2565b9050919050565b7f273130353033333831303331393134313035393427206973206e6f742072657460008201527f75726e696e672027613261666130663638393965653363393065270000000000602082015250565b6000616891603b83613ba8565b915061689c82616835565b604082019050919050565b600060208201905081810360008301526168c081616884565b9050919050565b7f27313235333033373933333332343437393036383227206973206e6f7420726560008201527f7475726e696e6720273961636663653937643662336236663261643031270000602082015250565b6000616923603e83613ba8565b915061692e826168c7565b604082019050919050565b6000602082019050818103600083015261695281616916565b9050919050565b7f273134323739363432323037343033373436333727206973206e6f742072657460008201527f75726e696e672027656461306361383963616263633965383133270000000000602082015250565b60006169b5603b83613ba8565b91506169c082616959565b604082019050919050565b600060208201905081810360008301526169e4816169a8565b9050919050565b7f273630383236303331373832373632383034353027206973206e6f742072657460008201527f75726e696e672027383262316337623664316562656662343534270000000000602082015250565b6000616a47603b83613ba8565b9150616a52826169eb565b604082019050919050565b60006020820190508181036000830152616a7681616a3a565b9050919050565b7f273532303535393539343735363935303937363527206973206e6f742072657460008201527f75726e696e672027383565626466393866316264666639653438270000000000602082015250565b6000616ad9603b83613ba8565b9150616ae482616a7d565b604082019050919050565b60006020820190508181036000830152616b0881616acc565b9050919050565b7f273837333136393139303233323838363230393627206973206e6f742072657460008201527f75726e696e672027393065626464663364636630636339363739270000000000602082015250565b6000616b6b603b83613ba8565b9150616b7682616b0f565b604082019050919050565b60006020820190508181036000830152616b9a81616b5e565b9050919050565b7f273337353136313731303130313638303630323927206973206e6f742072657460008201527f75726e696e672027386465353863666238356663396138383334270000000000602082015250565b6000616bfd603b83613ba8565b9150616c0882616ba1565b604082019050919050565b60006020820190508181036000830152616c2c81616bf0565b9050919050565b6000819050919050565b7f4e487b7100000000000000000000000000000000000000000000000000000000600052601160045260246000fd5b6000616c7782616c33565b9150616c8283616c33565b9250828201905080821115616c9a57616c99616c3d565b5b92915050565b6000616cab82616c33565b9150616cb683616c33565b9250828202616cc481616c33565b91508282048414831517616cdb57616cda616c3d565b5b5092915050565b7f4e487b7100000000000000000000000000000000000000000000000000000000600052601260045260246000fd5b6000616d1c82616c33565b9150616d2783616c33565b925082616d3757616d36616ce2565b5b828206905092915050565b6000616d4d82616c33565b9150616d5883616c33565b9250828203905081811115616d7057616d6f616c3d565b5b9291505056fea2646970667358221220cee0964dc4e6b3cdf94eb65dec61ff32a0f41b855d3069870fd35377c430b36c64736f6c63430008110033",
  "linkReferences": {},
  "deployedLinkReferences": {}
}