{
  "_format": "hh-sol-artifact-1",
  "contractName": "PowerApiTest",
  "sourceName": "contracts/zondax/filecoin-solidity/contracts/v0.8/tests/power.test.sol",
  "abi": [
    {
      "inputs": [
        {
          "internalType": "int256",
          "name": "errorCode",
          "type": "int256"
        }
      ],
      "name": "ActorError",
      "type": "error"
    },
    {
      "inputs": [],
      "name": "FailToCallActor",
      "type": "error"
    },
    {
      "inputs": [
        {
          "internalType": "uint64",
          "name": "",
          "type": "uint64"
        }
      ],
      "name": "InvalidCodec",
      "type": "error"
    },
    {
      "inputs": [],
      "name": "InvalidResponseLength",
      "type": "error"
    },
    {
      "inputs": [
        {
          "internalType": "uint256",
          "name": "balance",
          "type": "uint256"
        },
        {
          "internalType": "uint256",
          "name": "value",
          "type": "uint256"
        }
      ],
      "name": "NotEnoughBalance",
      "type": "error"
    },
    {
      "inputs": [
        {
          "components": [
            {
              "components": [
                {
                  "internalType": "bytes",
                  "name": "data",
                  "type": "bytes"
                }
              ],
              "internalType": "struct CommonTypes.FilAddress",
              "name": "owner",
              "type": "tuple"
            },
            {
              "components": [
                {
                  "internalType": "bytes",
                  "name": "data",
                  "type": "bytes"
                }
              ],
              "internalType": "struct CommonTypes.FilAddress",
              "name": "worker",
              "type": "tuple"
            },
            {
              "internalType": "enum PowerTypes.RegisteredPoStProof",
              "name": "window_post_proof_type",
              "type": "uint8"
            },
            {
              "components": [
                {
                  "internalType": "bytes",
                  "name": "data",
                  "type": "bytes"
                }
              ],
              "internalType": "struct CommonTypes.FilAddress",
              "name": "peer",
              "type": "tuple"
            },
            {
              "components": [
                {
                  "internalType": "bytes",
                  "name": "data",
                  "type": "bytes"
                }
              ],
              "internalType": "struct CommonTypes.FilAddress[]",
              "name": "multiaddrs",
              "type": "tuple[]"
            }
          ],
          "internalType": "struct PowerTypes.CreateMinerParams",
          "name": "params",
          "type": "tuple"
        },
        {
          "internalType": "uint256",
          "name": "value",
          "type": "uint256"
        }
      ],
      "name": "create_miner",
      "outputs": [
        {
          "components": [
            {
              "components": [
                {
                  "internalType": "bytes",
                  "name": "data",
                  "type": "bytes"
                }
              ],
              "internalType": "struct CommonTypes.FilAddress",
              "name": "id_address",
              "type": "tuple"
            },
            {
              "components": [
                {
                  "internalType": "bytes",
                  "name": "data",
                  "type": "bytes"
                }
              ],
              "internalType": "struct CommonTypes.FilAddress",
              "name": "robust_address",
              "type": "tuple"
            }
          ],
          "internalType": "struct PowerTypes.CreateMinerReturn",
          "name": "",
          "type": "tuple"
        }
      ],
      "stateMutability": "payable",
      "type": "function"
    },
    {
      "inputs": [],
      "name": "miner_consensus_count",
      "outputs": [
        {
          "internalType": "int64",
          "name": "",
          "type": "int64"
        }
      ],
      "stateMutability": "nonpayable",
      "type": "function"
    },
    {
      "inputs": [],
      "name": "miner_count",
      "outputs": [
        {
          "internalType": "uint64",
          "name": "",
          "type": "uint64"
        }
      ],
      "stateMutability": "nonpayable",
      "type": "function"
    },
    {
      "inputs": [
        {
          "internalType": "uint64",
          "name": "minerID",
          "type": "uint64"
        }
      ],
      "name": "miner_raw_power",
      "outputs": [
        {
          "components": [
            {
              "components": [
                {
                  "internalType": "bytes",
                  "name": "val",
                  "type": "bytes"
                },
                {
                  "internalType": "bool",
                  "name": "neg",
                  "type": "bool"
                }
              ],
              "internalType": "struct CommonTypes.BigInt",
              "name": "raw_byte_power",
              "type": "tuple"
            },
            {
              "internalType": "bool",
              "name": "meets_consensus_minimum",
              "type": "bool"
            }
          ],
          "internalType": "struct PowerTypes.MinerRawPowerReturn",
          "name": "",
          "type": "tuple"
        }
      ],
      "stateMutability": "nonpayable",
      "type": "function"
    },
    {
      "inputs": [],
      "name": "network_raw_power",
      "outputs": [
        {
          "components": [
            {
              "internalType": "bytes",
              "name": "val",
              "type": "bytes"
            },
            {
              "internalType": "bool",
              "name": "neg",
              "type": "bool"
            }
          ],
          "internalType": "struct CommonTypes.BigInt",
          "name": "",
          "type": "tuple"
        }
      ],
      "stateMutability": "nonpayable",
      "type": "function"
    }
  ],
  "bytecode": "0x608060405234801561001057600080fd5b50612cbb806100206000396000f3fe60806040526004361061004a5760003560e01c80635d8543641461004f5780636c3d73561461008c57806387a8d7d6146100b7578063c540b318146100e2578063df16b84214610112575b600080fd5b34801561005b57600080fd5b5061007660048036038101906100719190611a64565b61013d565b6040516100839190611bb6565b60405180910390f35b34801561009857600080fd5b506100a1610155565b6040516100ae9190611c15565b60405180910390f35b3480156100c357600080fd5b506100cc61016a565b6040516100d99190611c46565b60405180910390f35b6100fc60048036038101906100f79190612035565b610179565b60405161010991906120ff565b60405180910390f35b34801561011e57600080fd5b50610127610193565b604051610134919061213d565b60405180910390f35b61014561195f565b61014e826101a2565b9050919050565b61015d611981565b6101656101ed565b905090565b6000610174610270565b905090565b61018161199d565b61018b83836102ed565b905092915050565b600061019d61032e565b905090565b6101aa61195f565b60006101bf8367ffffffffffffffff166103ab565b905060006101d9600463dfb85e26605185600060016103df565b90506101e481610534565b92505050919050565b6101f5611981565b60008067ffffffffffffffff81111561021157610210611c66565b5b6040519080825280601f01601f1916602001820160405280156102435781602001600182028036833780820191505090505b509050600061025e6004633788f526600085600060016103df565b905061026981610642565b9250505090565b600080600067ffffffffffffffff81111561028e5761028d611c66565b5b6040519080825280601f01601f1916602001820160405280156102c05781602001600182028036833780820191505090505b50905060006102db60046376791332600085600060016103df565b90506102e6816106fe565b9250505090565b6102f561199d565b60006103008461072c565b9050600061031960046345f05c456051858860006103df565b90506103248161084d565b9250505092915050565b600080600067ffffffffffffffff81111561034c5761034b611c66565b5b6040519080825280601f01601f19166020018201604052801561037e5781602001600182028036833780820191505090505b50905060006103996004630bba0323600085600060016103df565b90506103a4816108d1565b9250505090565b606060006103b960406108ff565b90506103ce838261092690919063ffffffff16565b6103d781610936565b915050919050565b606060004790508381101561042d5780846040517f8f0f4206000000000000000000000000000000000000000000000000000000008152600401610424929190612167565b60405180910390fd5b60008073fe0000000000000000000000000000000000000573ffffffffffffffffffffffffffffffffffffffff1689878761046957600061046c565b60015b8b8b8f60405160200161048496959493929190612215565b6040516020818303038152906040526040516104a091906122b9565b600060405180830381855af49150503d80600081146104db576040519150601f19603f3d011682016040523d82523d6000602084013e6104e0565b606091505b50915091508161051c576040517f8a7db5bf00000000000000000000000000000000000000000000000000000000815260040160405180910390fd5b6105258161098f565b93505050509695505050505050565b61053c61195f565b6000806105528285610b1690919063ffffffff16565b80935081925050506002811461056b5761056a6122d0565b5b60606105808386610b9790919063ffffffff16565b80945081925050506000815111156105a85761059b81610d73565b8460000181905250610616565b6040518060400160405280600067ffffffffffffffff8111156105ce576105cd611c66565b5b6040519080825280601f01601f1916602001820160405280156106005781602001600182028036833780820191505090505b5081526020016000151581525084600001819052505b6106298386610f1a90919063ffffffff16565b8560200181955082151515158152505050505050919050565b61064a611981565b60606000808451111561068f5761066a8185610b9790919063ffffffff16565b809250819350505060008251111561068e5761068582610d73565b925050506106f9565b5b6040518060400160405280600067ffffffffffffffff8111156106b5576106b4611c66565b5b6040519080825280601f01601f1916602001820160405280156106e75781602001600182028036833780820191505090505b50815260200160001515815250925050505b919050565b60008060009050600061071a8285610fc490919063ffffffff16565b80935081925050508092505050919050565b6060600061073a60406108ff565b90506000836080015151905061075a60058361104590919063ffffffff16565b6107758460000151600001518361105590919063ffffffff16565b6107908460200151600001518361105590919063ffffffff16565b6107b98460400151600a8111156107aa576107a96122ff565b5b8361107e90919063ffffffff16565b6107d48460600151600001518361105590919063ffffffff16565b6107e7818361104590919063ffffffff16565b60005b8181101561083a576108278560800151828151811061080c5761080b61232e565b5b6020026020010151600001518461105590919063ffffffff16565b80806108329061238c565b9150506107ea565b5061084482610936565b92505050919050565b61085561199d565b60008061086b8285610b1690919063ffffffff16565b809350819250505060028114610884576108836122d0565b5b6108978285610b9790919063ffffffff16565b846000015160000181945082905250506108ba8285610b9790919063ffffffff16565b846020015160000181945082905250505050919050565b6000806000905060006108ed82856110d690919063ffffffff16565b80935081925050508092505050919050565b6109076119c3565b610915816000015183611168565b506000816020018181525050919050565b610932826000836111e1565b5050565b6060600082602001511461097f576040517f08c379a000000000000000000000000000000000000000000000000000000000815260040161097690612431565b60405180910390fd5b8160000151600001519050919050565b60606000806000848060200190518101906109aa919061250c565b925092509250600067ffffffffffffffff168267ffffffffffffffff1603610a0c576000815114610a07576040517f0e74990700000000000000000000000000000000000000000000000000000000815260040160405180910390fd5b610ac6565b605167ffffffffffffffff168267ffffffffffffffff161480610a435750607167ffffffffffffffff168267ffffffffffffffff16145b15610a88576000815103610a83576040517f0e74990700000000000000000000000000000000000000000000000000000000815260040160405180910390fd5b610ac5565b816040517ff1f6bced000000000000000000000000000000000000000000000000000000008152600401610abc9190611c46565b60405180910390fd5b5b60008314610b0b57826040517fd4bb6671000000000000000000000000000000000000000000000000000000008152600401610b02919061258a565b60405180910390fd5b809350505050919050565b600080600080610b26868661138a565b8167ffffffffffffffff169150809750819350829450505050600460ff168260ff1614610b88576040517f08c379a0000000000000000000000000000000000000000000000000000000008152600401610b7f906125f1565b60405180910390fd5b80859350935050509250929050565b60606000806000610ba8868661138a565b8167ffffffffffffffff169150809750819350829450505050600660ff168260ff161480610bdc5750600260ff168260ff16145b610c1b576040517f08c379a0000000000000000000000000000000000000000000000000000000008152600401610c1290612683565b60405180910390fd5b600660ff168260ff1603610c6457610c33868661138a565b8167ffffffffffffffff169150809750819350829450505050600260ff168260ff1614610c6357610c626122d0565b5b5b60008186610c7291906126a3565b905060008267ffffffffffffffff811115610c9057610c8f611c66565b5b6040519080825280601f01601f191660200182016040528015610cc25781602001600182028036833780820191505090505b5090506000808890505b83811015610d5557898181518110610ce757610ce661232e565b5b602001015160f81c60f81b838381518110610d0557610d0461232e565b5b60200101907effffffffffffffffffffffffffffffffffffffffffffffffffffffffffffff1916908160001a9053508180610d3f9061238c565b9250508080610d4d9061238c565b915050610ccc565b50818489610d6391906126a3565b9650965050505050509250929050565b610d7b611981565b6000825103610db957604051806040016040528060405180604001604052806001815260200160008152508152602001600015158152509050610f15565b600060018351610dc991906126d7565b67ffffffffffffffff811115610de257610de1611c66565b5b6040519080825280601f01601f191660200182016040528015610e145781602001600182028036833780820191505090505b5090506000600160f81b84600081518110610e3257610e3161232e565b5b602001015160f81c60f81b7effffffffffffffffffffffffffffffffffffffffffffffffffffffffffffff191603610e6957600190505b6000600190505b8451811015610ef857848181518110610e8c57610e8b61232e565b5b602001015160f81c60f81b83600183610ea591906126d7565b81518110610eb657610eb561232e565b5b60200101907effffffffffffffffffffffffffffffffffffffffffffffffffffffffffffff1916908160001a9053508080610ef09061238c565b915050610e70565b506040518060400160405280838152602001821515815250925050505b919050565b600080600080610f2a868661138a565b8167ffffffffffffffff169150809750819350829450505050600760ff168260ff1614610f8c576040517f08c379a0000000000000000000000000000000000000000000000000000000008152600401610f8390612757565b60405180910390fd5b601560ff16811480610fa15750601460ff1681145b610fae57610fad6122d0565b5b601460ff16811415859350935050509250929050565b600080600080610fd4868661138a565b8167ffffffffffffffff169150809750819350829450505050600060ff168260ff1614611036576040517f08c379a000000000000000000000000000000000000000000000000000000000815260040161102d906127e9565b60405180910390fd5b80859350935050509250929050565b6110518260048361157c565b5050565b61106282600283516111e1565b61107981836000015161158c90919063ffffffff16565b505050565b60008160070b1261109a57611095826000836111e1565b6110d2565b6110d1826001837fffffffffffffffffffffffffffffffffffffffffffffffffffffffffffffffff6110cc9190612809565b6111e1565b5b5050565b6000806000806110e6868661138a565b8167ffffffffffffffff169150809750819350829450505050600160ff168260ff16148061111a5750600060ff168260ff16145b611159576040517f08c379a0000000000000000000000000000000000000000000000000000000008152600401611150906128db565b60405180910390fd5b80859350935050509250929050565b6111706119e3565b600060208361117f919061292a565b146111ab57602082611191919061292a565b602061119d91906126d7565b826111a891906126a3565b91505b8183602001818152505060405180845260008152828101602001818110156111d257600080fd5b80604052505082905092915050565b60178167ffffffffffffffff161161121c576112168160058460ff16901b60ff161784600001516115a890919063ffffffff16565b50611385565b60ff8167ffffffffffffffff161161127a5761124f601860058460ff16901b1784600001516115a890919063ffffffff16565b506112748167ffffffffffffffff16600185600001516116129092919063ffffffff16565b50611384565b61ffff8167ffffffffffffffff16116112d9576112ae601960058460ff16901b1784600001516115a890919063ffffffff16565b506112d38167ffffffffffffffff16600285600001516116129092919063ffffffff16565b50611383565b63ffffffff8167ffffffffffffffff161161133a5761130f601a60058460ff16901b1784600001516115a890919063ffffffff16565b506113348167ffffffffffffffff16600485600001516116129092919063ffffffff16565b50611382565b61135b601b60058460ff16901b1784600001516115a890919063ffffffff16565b506113808167ffffffffffffffff16600885600001516116129092919063ffffffff16565b505b5b5b5b505050565b60008060008061139a868661169f565b90506001856113a991906126a3565b94506000600560e0831660ff16901c90506000601f83169050601c8160ff1610611408576040517f08c379a00000000000000000000000000000000000000000000000000000000081526004016113ff906129cd565b60405180910390fd5b60188160ff16101561142b578181888160ff169150955095509550505050611575565b60188160ff16036114b2576000611442898961169f565b905060018861145191906126a3565b975060188160ff16101561149a576040517f08c379a000000000000000000000000000000000000000000000000000000000815260040161149190612a39565b60405180910390fd5b8281898160ff16915096509650965050505050611575565b60198160ff16036114f35760006114c9898961171a565b90506002886114d891906126a3565b97508281898161ffff16915096509650965050505050611575565b601a8160ff160361153657600061150a8989611784565b905060048861151991906126a3565b97508281898163ffffffff16915096509650965050505050611575565b601b8160ff161461154a576115496122d0565b5b600061155689896117ee565b905060088861156591906126a3565b9750828189965096509650505050505b9250925092565b6115878383836111e1565b505050565b6115946119e3565b6115a083838451611858565b905092915050565b6115b06119e3565b6000836000015151905060006001826115c991906126a3565b9050846020015182106115ed576115ec856002836115e79190612a59565b61193b565b5b84516020838201018581538151831115611605578282525b5050849250505092915050565b61161a6119e3565b600084600001515190506000818461163291906126a3565b9050856020015181111561165757611656866002836116519190612a59565b61193b565b5b60006001856101006116699190612bce565b61167391906126d7565b905086518281018783198251161781528151841115611690578382525b50508693505050509392505050565b60006001826116ae91906126a3565b835110156116f1576040517f08c379a00000000000000000000000000000000000000000000000000000000081526004016116e890612c65565b60405180910390fd5b8282815181106117045761170361232e565b5b602001015160f81c60f81b60f81c905092915050565b600060028261172991906126a3565b8351101561176c576040517f08c379a000000000000000000000000000000000000000000000000000000000815260040161176390612c65565b60405180910390fd5b60008260200184015190508060f01c91505092915050565b600060048261179391906126a3565b835110156117d6576040517f08c379a00000000000000000000000000000000000000000000000000000000081526004016117cd90612c65565b60405180910390fd5b60008260200184015190508060e01c91505092915050565b60006008826117fd91906126a3565b83511015611840576040517f08c379a000000000000000000000000000000000000000000000000000000000815260040161183790612c65565b60405180910390fd5b60008260200184015190508060c01c91505092915050565b6118606119e3565b825182111561186e57600080fd5b600084600001515190506000838261188691906126a3565b905085602001518111156118ab576118aa866002836118a59190612a59565b61193b565b5b600080875180518560208301019350808511156118c6578482525b60208901925050505b6020861061190d57805182526020826118e891906126a3565b91506020816118f791906126a3565b905060208661190691906126d7565b95506118cf565b60006001876020036101000a0390508019825116818451168181178552505050879450505050509392505050565b60008260000151905061194e8383611168565b50611959838261158c565b50505050565b6040518060400160405280611972611981565b81526020016000151581525090565b6040518060400160405280606081526020016000151581525090565b60405180604001604052806119b06119fd565b81526020016119bd6119fd565b81525090565b60405180604001604052806119d66119e3565b8152602001600081525090565b604051806040016040528060608152602001600081525090565b6040518060200160405280606081525090565b6000604051905090565b600080fd5b600080fd5b600067ffffffffffffffff82169050919050565b611a4181611a24565b8114611a4c57600080fd5b50565b600081359050611a5e81611a38565b92915050565b600060208284031215611a7a57611a79611a1a565b5b6000611a8884828501611a4f565b91505092915050565b600081519050919050565b600082825260208201905092915050565b60005b83811015611acb578082015181840152602081019050611ab0565b60008484015250505050565b6000601f19601f8301169050919050565b6000611af382611a91565b611afd8185611a9c565b9350611b0d818560208601611aad565b611b1681611ad7565b840191505092915050565b60008115159050919050565b611b3681611b21565b82525050565b60006040830160008301518482036000860152611b598282611ae8565b9150506020830151611b6e6020860182611b2d565b508091505092915050565b60006040830160008301518482036000860152611b968282611b3c565b9150506020830151611bab6020860182611b2d565b508091505092915050565b60006020820190508181036000830152611bd08184611b79565b905092915050565b60006040830160008301518482036000860152611bf58282611ae8565b9150506020830151611c0a6020860182611b2d565b508091505092915050565b60006020820190508181036000830152611c2f8184611bd8565b905092915050565b611c4081611a24565b82525050565b6000602082019050611c5b6000830184611c37565b92915050565b600080fd5b7f4e487b7100000000000000000000000000000000000000000000000000000000600052604160045260246000fd5b611c9e82611ad7565b810181811067ffffffffffffffff82111715611cbd57611cbc611c66565b5b80604052505050565b6000611cd0611a10565b9050611cdc8282611c95565b919050565b600080fd5b600080fd5b600080fd5b600067ffffffffffffffff821115611d0b57611d0a611c66565b5b611d1482611ad7565b9050602081019050919050565b82818337600083830152505050565b6000611d43611d3e84611cf0565b611cc6565b905082815260208101848484011115611d5f57611d5e611ceb565b5b611d6a848285611d21565b509392505050565b600082601f830112611d8757611d86611ce6565b5b8135611d97848260208601611d30565b91505092915050565b600060208284031215611db657611db5611c61565b5b611dc06020611cc6565b9050600082013567ffffffffffffffff811115611de057611ddf611ce1565b5b611dec84828501611d72565b60008301525092915050565b600b8110611e0557600080fd5b50565b600081359050611e1781611df8565b92915050565b600067ffffffffffffffff821115611e3857611e37611c66565b5b602082029050602081019050919050565b600080fd5b6000611e61611e5c84611e1d565b611cc6565b90508083825260208201905060208402830185811115611e8457611e83611e49565b5b835b81811015611ecb57803567ffffffffffffffff811115611ea957611ea8611ce6565b5b808601611eb68982611da0565b85526020850194505050602081019050611e86565b5050509392505050565b600082601f830112611eea57611ee9611ce6565b5b8135611efa848260208601611e4e565b91505092915050565b600060a08284031215611f1957611f18611c61565b5b611f2360a0611cc6565b9050600082013567ffffffffffffffff811115611f4357611f42611ce1565b5b611f4f84828501611da0565b600083015250602082013567ffffffffffffffff811115611f7357611f72611ce1565b5b611f7f84828501611da0565b6020830152506040611f9384828501611e08565b604083015250606082013567ffffffffffffffff811115611fb757611fb6611ce1565b5b611fc384828501611da0565b606083015250608082013567ffffffffffffffff811115611fe757611fe6611ce1565b5b611ff384828501611ed5565b60808301525092915050565b6000819050919050565b61201281611fff565b811461201d57600080fd5b50565b60008135905061202f81612009565b92915050565b6000806040838503121561204c5761204b611a1a565b5b600083013567ffffffffffffffff81111561206a57612069611a1f565b5b61207685828601611f03565b925050602061208785828601612020565b9150509250929050565b600060208301600083015184820360008601526120ae8282611ae8565b9150508091505092915050565b600060408301600083015184820360008601526120d88282612091565b915050602083015184820360208601526120f28282612091565b9150508091505092915050565b6000602082019050818103600083015261211981846120bb565b905092915050565b60008160070b9050919050565b61213781612121565b82525050565b6000602082019050612152600083018461212e565b92915050565b61216181611fff565b82525050565b600060408201905061217c6000830185612158565b6121896020830184612158565b9392505050565b600082825260208201905092915050565b60006121ac82611a91565b6121b68185612190565b93506121c6818560208601611aad565b6121cf81611ad7565b840191505092915050565b6000819050919050565b60006121ff6121fa6121f584611a24565b6121da565b611a24565b9050919050565b61220f816121e4565b82525050565b600060c08201905061222a6000830189611c37565b6122376020830188612158565b6122446040830187611c37565b6122516060830186611c37565b818103608083015261226381856121a1565b905061227260a0830184612206565b979650505050505050565b600081905092915050565b600061229382611a91565b61229d818561227d565b93506122ad818560208601611aad565b80840191505092915050565b60006122c58284612288565b915081905092915050565b7f4e487b7100000000000000000000000000000000000000000000000000000000600052600160045260246000fd5b7f4e487b7100000000000000000000000000000000000000000000000000000000600052602160045260246000fd5b7f4e487b7100000000000000000000000000000000000000000000000000000000600052603260045260246000fd5b7f4e487b7100000000000000000000000000000000000000000000000000000000600052601160045260246000fd5b600061239782611fff565b91507fffffffffffffffffffffffffffffffffffffffffffffffffffffffffffffffff82036123c9576123c861235d565b5b600182019050919050565b600082825260208201905092915050565b7f496e76616c69642043424f520000000000000000000000000000000000000000600082015250565b600061241b600c836123d4565b9150612426826123e5565b602082019050919050565b6000602082019050818103600083015261244a8161240e565b9050919050565b6000819050919050565b61246481612451565b811461246f57600080fd5b50565b6000815190506124818161245b565b92915050565b60008151905061249681611a38565b92915050565b60006124af6124aa84611cf0565b611cc6565b9050828152602081018484840111156124cb576124ca611ceb565b5b6124d6848285611aad565b509392505050565b600082601f8301126124f3576124f2611ce6565b5b815161250384826020860161249c565b91505092915050565b60008060006060848603121561252557612524611a1a565b5b600061253386828701612472565b935050602061254486828701612487565b925050604084015167ffffffffffffffff81111561256557612564611a1f565b5b612571868287016124de565b9150509250925092565b61258481612451565b82525050565b600060208201905061259f600083018461257b565b92915050565b7f696e76616c6964206d616a20286578706563746564204d616a41727261792900600082015250565b60006125db601f836123d4565b91506125e6826125a5565b602082019050919050565b6000602082019050818103600083015261260a816125ce565b9050919050565b7f696e76616c6964206d616a20286578706563746564204d616a546167206f722060008201527f4d616a42797465537472696e6729000000000000000000000000000000000000602082015250565b600061266d602e836123d4565b915061267882612611565b604082019050919050565b6000602082019050818103600083015261269c81612660565b9050919050565b60006126ae82611fff565b91506126b983611fff565b92508282019050808211156126d1576126d061235d565b5b92915050565b60006126e282611fff565b91506126ed83611fff565b92508282039050818111156127055761270461235d565b5b92915050565b7f696e76616c6964206d616a20286578706563746564204d616a4f746865722900600082015250565b6000612741601f836123d4565b915061274c8261270b565b602082019050919050565b6000602082019050818103600083015261277081612734565b9050919050565b7f696e76616c6964206d616a20286578706563746564204d616a556e7369676e6560008201527f64496e7429000000000000000000000000000000000000000000000000000000602082015250565b60006127d36025836123d4565b91506127de82612777565b604082019050919050565b60006020820190508181036000830152612802816127c6565b9050919050565b600061281482612121565b915061281f83612121565b92508282039050677fffffffffffffff81137fffffffffffffffffffffffffffffffffffffffffffffffff8000000000000000821217156128635761286261235d565b5b92915050565b7f696e76616c6964206d616a20286578706563746564204d616a5369676e65644960008201527f6e74206f72204d616a556e7369676e6564496e74290000000000000000000000602082015250565b60006128c56035836123d4565b91506128d082612869565b604082019050919050565b600060208201905081810360008301526128f4816128b8565b9050919050565b7f4e487b7100000000000000000000000000000000000000000000000000000000600052601260045260246000fd5b600061293582611fff565b915061294083611fff565b9250826129505761294f6128fb565b5b828206905092915050565b7f63616e6e6f742068616e646c652068656164657273207769746820657874726160008201527f203e203237000000000000000000000000000000000000000000000000000000602082015250565b60006129b76025836123d4565b91506129c28261295b565b604082019050919050565b600060208201905081810360008301526129e6816129aa565b9050919050565b7f696e76616c69642063626f720000000000000000000000000000000000000000600082015250565b6000612a23600c836123d4565b9150612a2e826129ed565b602082019050919050565b60006020820190508181036000830152612a5281612a16565b9050919050565b6000612a6482611fff565b9150612a6f83611fff565b9250828202612a7d81611fff565b91508282048414831517612a9457612a9361235d565b5b5092915050565b60008160011c9050919050565b6000808291508390505b6001851115612af257808604811115612ace57612acd61235d565b5b6001851615612add5780820291505b8081029050612aeb85612a9b565b9450612ab2565b94509492505050565b600082612b0b5760019050612bc7565b81612b195760009050612bc7565b8160018114612b2f5760028114612b3957612b68565b6001915050612bc7565b60ff841115612b4b57612b4a61235d565b5b8360020a915084821115612b6257612b6161235d565b5b50612bc7565b5060208310610133831016604e8410600b8410161715612b9d5782820a905083811115612b9857612b9761235d565b5b612bc7565b612baa8484846001612aa8565b92509050818404811115612bc157612bc061235d565b5b81810290505b9392505050565b6000612bd982611fff565b9150612be483611fff565b9250612c117fffffffffffffffffffffffffffffffffffffffffffffffffffffffffffffffff8484612afb565b905092915050565b7f736c6963696e67206f7574206f662072616e6765000000000000000000000000600082015250565b6000612c4f6014836123d4565b9150612c5a82612c19565b602082019050919050565b60006020820190508181036000830152612c7e81612c42565b905091905056fea2646970667358221220ce11ca303fbe32714490146924cc2b460153fcff16311098a1c99ea2366c64b464736f6c63430008110033",
  "linkReferences": {},
  "deployedLinkReferences": {}
}