{
  "_format": "hh-sol-artifact-1",
  "contractName": "CborDecodeTest",
  "sourceName": "contracts/zondax/filecoin-solidity/contracts/v0.8/tests/cbor.decode.test.sol",
  "abi": [
    {
      "inputs": [],
      "name": "decodeArrayU8",
      "outputs": [],
      "stateMutability": "pure",
      "type": "function"
    },
    {
      "inputs": [],
      "name": "decodeFalse",
      "outputs": [],
      "stateMutability": "pure",
      "type": "function"
    },
    {
      "inputs": [],
      "name": "decodeFixedArray",
      "outputs": [],
      "stateMutability": "pure",
      "type": "function"
    },
    {
      "inputs": [],
      "name": "decodeInteger",
      "outputs": [],
      "stateMutability": "pure",
      "type": "function"
    },
    {
      "inputs": [],
      "name": "decodeNull",
      "outputs": [],
      "stateMutability": "pure",
      "type": "function"
    },
    {
      "inputs": [],
      "name": "decodeString",
      "outputs": [],
      "stateMutability": "pure",
      "type": "function"
    },
    {
      "inputs": [],
      "name": "decodeStringWithWeirdChar",
      "outputs": [],
      "stateMutability": "pure",
      "type": "function"
    },
    {
      "inputs": [],
      "name": "decodeTrue",
      "outputs": [],
      "stateMutability": "pure",
      "type": "function"
    }
  ],
  "bytecode": "0x608060405234801561001057600080fd5b50611feb806100206000396000f3fe608060405234801561001057600080fd5b50600436106100885760003560e01c8063cdee5b7d1161005b578063cdee5b7d146100b5578063d67ec5c1146100bf578063dd0a0af9146100c9578063fdcd47b2146100d357610088565b806310ed3fc51461008d5780632adc75f2146100975780639ad7774f146100a1578063a77b0360146100ab575b600080fd5b6100956100dd565b005b61009f6101c1565b005b6100a961025e565b005b6100b3610302565b005b6100bd6103ec565b005b6100c7610674565b005b6100d1610b9c565b005b6100db610c41565b005b60006040518060400160405280600581526020017f647a6fc3a900000000000000000000000000000000000000000000000000000081525090506000606061012f600084610ce690919063ffffffff16565b80935081925050506040518060400160405280600481526020017f7a6fc3a900000000000000000000000000000000000000000000000000000000815250805190602001208180519060200120146101bc576040517f08c379a00000000000000000000000000000000000000000000000000000000081526004016101b390611488565b60405180910390fd5b505050565b60006040518060400160405280600181526020017ff60000000000000000000000000000000000000000000000000000000000000081525090506000610211600083610e6890919063ffffffff16565b9050600115158115151461025a576040517f08c379a0000000000000000000000000000000000000000000000000000000008152600401610251906114f4565b60405180910390fd5b5050565b60006040518060400160405280600181526020017f010000000000000000000000000000000000000000000000000000000000000081525090506000806102af600084610ed490919063ffffffff16565b809350819250505060018160ff16146102fd576040517f08c379a00000000000000000000000000000000000000000000000000000000081526004016102f490611560565b60405180910390fd5b505050565b60006040518060400160405280600b81526020017f6a746573742076616c756500000000000000000000000000000000000000000081525090506000606060006040518060400160405280600a81526020017f746573742076616c756500000000000000000000000000000000000000000000815250905061038e600085610ce690919063ffffffff16565b809450819350505080805190602001208280519060200120146103e6576040517f08c379a00000000000000000000000000000000000000000000000000000000081526004016103dd906115cc565b60405180910390fd5b50505050565b60006040518060400160405280600a81526020017f8501182b184218ea186f000000000000000000000000000000000000000000008152509050600080600061043e8385610f5590919063ffffffff16565b809450819350505060058214610489576040517f08c379a000000000000000000000000000000000000000000000000000000000815260040161048090611638565b60405180910390fd5b61049c8385610ed490919063ffffffff16565b809450819250505060018160ff16146104ea576040517f08c379a00000000000000000000000000000000000000000000000000000000081526004016104e1906116a4565b60405180910390fd5b6104fd8385610ed490919063ffffffff16565b8094508192505050602b8160ff161461054b576040517f08c379a000000000000000000000000000000000000000000000000000000000815260040161054290611710565b60405180910390fd5b61055e8385610ed490919063ffffffff16565b809450819250505060428160ff16146105ac576040517f08c379a00000000000000000000000000000000000000000000000000000000081526004016105a39061177c565b60405180910390fd5b6105bf8385610ed490919063ffffffff16565b809450819250505060ea8160ff161461060d576040517f08c379a0000000000000000000000000000000000000000000000000000000008152600401610604906117e8565b60405180910390fd5b6106208385610ed490919063ffffffff16565b8094508192505050606f8160ff161461066e576040517f08c379a000000000000000000000000000000000000000000000000000000000815260040161066590611854565b60405180910390fd5b50505050565b60006040518060400160405280601881526020017f8f0102030405060708090a64746573744401010101f4f6f5000000000000000081525090506000806000806040518060200160405280600081525090506106d98486610f5590919063ffffffff16565b8095508194505050600f8314610724576040517f08c379a000000000000000000000000000000000000000000000000000000000815260040161071b906118c0565b60405180910390fd5b6107378486610ed490919063ffffffff16565b809550819350505060018260ff1614610785576040517f08c379a000000000000000000000000000000000000000000000000000000000815260040161077c906116a4565b60405180910390fd5b6107988486610ed490919063ffffffff16565b809550819350505060028260ff16146107e6576040517f08c379a00000000000000000000000000000000000000000000000000000000081526004016107dd906116a4565b60405180910390fd5b6107f98486610ed490919063ffffffff16565b809550819350505060038260ff1614610847576040517f08c379a000000000000000000000000000000000000000000000000000000000815260040161083e906116a4565b60405180910390fd5b61085a8486610ed490919063ffffffff16565b809550819350505060048260ff16146108a8576040517f08c379a000000000000000000000000000000000000000000000000000000000815260040161089f906116a4565b60405180910390fd5b6108bb8486610ed490919063ffffffff16565b809550819350505060058260ff1614610909576040517f08c379a0000000000000000000000000000000000000000000000000000000008152600401610900906116a4565b60405180910390fd5b61091c8486610ed490919063ffffffff16565b809550819350505060068260ff161461096a576040517f08c379a0000000000000000000000000000000000000000000000000000000008152600401610961906116a4565b60405180910390fd5b61097d8486610ed490919063ffffffff16565b809550819350505060078260ff16146109cb576040517f08c379a00000000000000000000000000000000000000000000000000000000081526004016109c2906116a4565b60405180910390fd5b6109de8486610ed490919063ffffffff16565b809550819350505060088260ff1614610a2c576040517f08c379a0000000000000000000000000000000000000000000000000000000008152600401610a23906116a4565b60405180910390fd5b610a3f8486610ed490919063ffffffff16565b809550819350505060098260ff1614610a8d576040517f08c379a0000000000000000000000000000000000000000000000000000000008152600401610a84906116a4565b60405180910390fd5b610aa08486610ed490919063ffffffff16565b8095508193505050600a8260ff1614610aee576040517f08c379a0000000000000000000000000000000000000000000000000000000008152600401610ae5906116a4565b60405180910390fd5b610b018486610ce690919063ffffffff16565b8095508192505050604051602001610b1890611937565b6040516020818303038152906040528051906020012081604051602001610b3f91906119b2565b6040516020818303038152906040528051906020012014610b95576040517f08c379a0000000000000000000000000000000000000000000000000000000008152600401610b8c90611a15565b60405180910390fd5b5050505050565b60006040518060400160405280600181526020017ff5000000000000000000000000000000000000000000000000000000000000008152509050600080610bed600084610fd690919063ffffffff16565b80935081925050506001151581151514610c3c576040517f08c379a0000000000000000000000000000000000000000000000000000000008152600401610c3390611a81565b60405180910390fd5b505050565b60006040518060400160405280600181526020017ff4000000000000000000000000000000000000000000000000000000000000008152509050600080610c92600084610fd690919063ffffffff16565b80935081925050506000151581151514610ce1576040517f08c379a0000000000000000000000000000000000000000000000000000000008152600401610cd890611aed565b60405180910390fd5b505050565b60606000806000610cf78686611080565b8167ffffffffffffffff169150809750819350829450505050600360ff168260ff1614610d59576040517f08c379a0000000000000000000000000000000000000000000000000000000008152600401610d5090611b7f565b60405180910390fd5b60008186610d679190611bd8565b905060008267ffffffffffffffff811115610d8557610d84611c0c565b5b6040519080825280601f01601f191660200182016040528015610db75781602001600182028036833780820191505090505b5090506000808890505b83811015610e4a57898181518110610ddc57610ddb611c3b565b5b602001015160f81c60f81b838381518110610dfa57610df9611c3b565b5b60200101907effffffffffffffffffffffffffffffffffffffffffffffffffffffffffffff1916908160001a9053508180610e3490611c6a565b9250508080610e4290611c6a565b915050610dc1565b50818489610e589190611bd8565b9650965050505050509250929050565b60007ff600000000000000000000000000000000000000000000000000000000000000838381518110610e9e57610e9d611c3b565b5b602001015160f81c60f81b7effffffffffffffffffffffffffffffffffffffffffffffffffffffffffffff191614905092915050565b600080600080610ee48686611080565b8167ffffffffffffffff169150809750819350829450505050600060ff168260ff1614610f46576040517f08c379a0000000000000000000000000000000000000000000000000000000008152600401610f3d90611d24565b60405180910390fd5b80859350935050509250929050565b600080600080610f658686611080565b8167ffffffffffffffff169150809750819350829450505050600460ff168260ff1614610fc7576040517f08c379a0000000000000000000000000000000000000000000000000000000008152600401610fbe90611d90565b60405180910390fd5b80859350935050509250929050565b600080600080610fe68686611080565b8167ffffffffffffffff169150809750819350829450505050600760ff168260ff1614611048576040517f08c379a000000000000000000000000000000000000000000000000000000000815260040161103f90611dfc565b60405180910390fd5b601560ff1681148061105d5750601460ff1681145b61106a57611069611e1c565b5b601460ff16811415859350935050509250929050565b6000806000806110908686611272565b905060018561109f9190611bd8565b94506000600560e0831660ff16901c90506000601f83169050601c8160ff16106110fe576040517f08c379a00000000000000000000000000000000000000000000000000000000081526004016110f590611ebd565b60405180910390fd5b60188160ff161015611121578181888160ff16915095509550955050505061126b565b60188160ff16036111a85760006111388989611272565b90506001886111479190611bd8565b975060188160ff161015611190576040517f08c379a000000000000000000000000000000000000000000000000000000000815260040161118790611f29565b60405180910390fd5b8281898160ff1691509650965096505050505061126b565b60198160ff16036111e95760006111bf89896112ed565b90506002886111ce9190611bd8565b97508281898161ffff1691509650965096505050505061126b565b601a8160ff160361122c5760006112008989611357565b905060048861120f9190611bd8565b97508281898163ffffffff1691509650965096505050505061126b565b601b8160ff16146112405761123f611e1c565b5b600061124c89896113c1565b905060088861125b9190611bd8565b9750828189965096509650505050505b9250925092565b60006001826112819190611bd8565b835110156112c4576040517f08c379a00000000000000000000000000000000000000000000000000000000081526004016112bb90611f95565b60405180910390fd5b8282815181106112d7576112d6611c3b565b5b602001015160f81c60f81b60f81c905092915050565b60006002826112fc9190611bd8565b8351101561133f576040517f08c379a000000000000000000000000000000000000000000000000000000000815260040161133690611f95565b60405180910390fd5b60008260200184015190508060f01c91505092915050565b60006004826113669190611bd8565b835110156113a9576040517f08c379a00000000000000000000000000000000000000000000000000000000081526004016113a090611f95565b60405180910390fd5b60008260200184015190508060e01c91505092915050565b60006008826113d09190611bd8565b83511015611413576040517f08c379a000000000000000000000000000000000000000000000000000000000815260040161140a90611f95565b60405180910390fd5b60008260200184015190508060c01c91505092915050565b600082825260208201905092915050565b7f76616c7565206973206e6f7420277a6fc3a92700000000000000000000000000600082015250565b600061147260138361142b565b915061147d8261143c565b602082019050919050565b600060208201905081810360008301526114a181611465565b9050919050565b7f696e707574206973206e6f74206e756c6c2063626f7200000000000000000000600082015250565b60006114de60168361142b565b91506114e9826114a8565b602082019050919050565b6000602082019050818103600083015261150d816114d1565b9050919050565b7f76616c7565206973206e6f742031000000000000000000000000000000000000600082015250565b600061154a600e8361142b565b915061155582611514565b602082019050919050565b600060208201905081810360008301526115798161153d565b9050919050565b7f76616c7565206973206e6f742027746573742076616c75652700000000000000600082015250565b60006115b660198361142b565b91506115c182611580565b602082019050919050565b600060208201905081810360008301526115e5816115a9565b9050919050565b7f6172726179206c656e206973206e6f7420350000000000000000000000000000600082015250565b600061162260128361142b565b915061162d826115ec565b602082019050919050565b6000602082019050818103600083015261165181611615565b9050919050565b7f6e756d206973206e6f7420310000000000000000000000000000000000000000600082015250565b600061168e600c8361142b565b915061169982611658565b602082019050919050565b600060208201905081810360008301526116bd81611681565b9050919050565b7f6e756d206973206e6f7420343300000000000000000000000000000000000000600082015250565b60006116fa600d8361142b565b9150611705826116c4565b602082019050919050565b60006020820190508181036000830152611729816116ed565b9050919050565b7f6e756d206973206e6f7420363600000000000000000000000000000000000000600082015250565b6000611766600d8361142b565b915061177182611730565b602082019050919050565b6000602082019050818103600083015261179581611759565b9050919050565b7f6e756d206973206e6f7420323334000000000000000000000000000000000000600082015250565b60006117d2600e8361142b565b91506117dd8261179c565b602082019050919050565b60006020820190508181036000830152611801816117c5565b9050919050565b7f6e756d206973206e6f7420313131000000000000000000000000000000000000600082015250565b600061183e600e8361142b565b915061184982611808565b602082019050919050565b6000602082019050818103600083015261186d81611831565b9050919050565b7f6172726179206c656e206973206e6f7420313500000000000000000000000000600082015250565b60006118aa60138361142b565b91506118b582611874565b602082019050919050565b600060208201905081810360008301526118d98161189d565b9050919050565b600081905092915050565b7f7465737400000000000000000000000000000000000000000000000000000000600082015250565b60006119216004836118e0565b915061192c826118eb565b600482019050919050565b600061194282611914565b9150819050919050565b600081519050919050565b60005b8381101561197557808201518184015260208101905061195a565b60008484015250505050565b600061198c8261194c565b61199681856118e0565b93506119a6818560208601611957565b80840191505092915050565b60006119be8284611981565b915081905092915050565b7f737472206973206e6f7420277465737427000000000000000000000000000000600082015250565b60006119ff60118361142b565b9150611a0a826119c9565b602082019050919050565b60006020820190508181036000830152611a2e816119f2565b9050919050565b7f76616c7565206973206e6f742074727565000000000000000000000000000000600082015250565b6000611a6b60118361142b565b9150611a7682611a35565b602082019050919050565b60006020820190508181036000830152611a9a81611a5e565b9050919050565b7f76616c7565206973206e6f742066616c73650000000000000000000000000000600082015250565b6000611ad760128361142b565b9150611ae282611aa1565b602082019050919050565b60006020820190508181036000830152611b0681611aca565b9050919050565b7f696e76616c6964206d616a20286578706563746564204d616a5465787453747260008201527f696e672900000000000000000000000000000000000000000000000000000000602082015250565b6000611b6960248361142b565b9150611b7482611b0d565b604082019050919050565b60006020820190508181036000830152611b9881611b5c565b9050919050565b6000819050919050565b7f4e487b7100000000000000000000000000000000000000000000000000000000600052601160045260246000fd5b6000611be382611b9f565b9150611bee83611b9f565b9250828201905080821115611c0657611c05611ba9565b5b92915050565b7f4e487b7100000000000000000000000000000000000000000000000000000000600052604160045260246000fd5b7f4e487b7100000000000000000000000000000000000000000000000000000000600052603260045260246000fd5b6000611c7582611b9f565b91507fffffffffffffffffffffffffffffffffffffffffffffffffffffffffffffffff8203611ca757611ca6611ba9565b5b600182019050919050565b7f696e76616c6964206d616a20286578706563746564204d616a556e7369676e6560008201527f64496e7429000000000000000000000000000000000000000000000000000000602082015250565b6000611d0e60258361142b565b9150611d1982611cb2565b604082019050919050565b60006020820190508181036000830152611d3d81611d01565b9050919050565b7f696e76616c6964206d616a20286578706563746564204d616a41727261792900600082015250565b6000611d7a601f8361142b565b9150611d8582611d44565b602082019050919050565b60006020820190508181036000830152611da981611d6d565b9050919050565b7f696e76616c6964206d616a20286578706563746564204d616a4f746865722900600082015250565b6000611de6601f8361142b565b9150611df182611db0565b602082019050919050565b60006020820190508181036000830152611e1581611dd9565b9050919050565b7f4e487b7100000000000000000000000000000000000000000000000000000000600052600160045260246000fd5b7f63616e6e6f742068616e646c652068656164657273207769746820657874726160008201527f203e203237000000000000000000000000000000000000000000000000000000602082015250565b6000611ea760258361142b565b9150611eb282611e4b565b604082019050919050565b60006020820190508181036000830152611ed681611e9a565b9050919050565b7f696e76616c69642063626f720000000000000000000000000000000000000000600082015250565b6000611f13600c8361142b565b9150611f1e82611edd565b602082019050919050565b60006020820190508181036000830152611f4281611f06565b9050919050565b7f736c6963696e67206f7574206f662072616e6765000000000000000000000000600082015250565b6000611f7f60148361142b565b9150611f8a82611f49565b602082019050919050565b60006020820190508181036000830152611fae81611f72565b905091905056fea2646970667358221220583b65371a5bc4f2a7bd2b6b0b82d5d5dfb3f4ceb8d8196bb227e12f4028df8364736f6c63430008110033",
  "linkReferences": {},
  "deployedLinkReferences": {}
}