{
  "_format": "hh-sol-artifact-1",
  "contractName": "Leb128Test",
  "sourceName": "contracts/zondax/filecoin-solidity/contracts/v0.8/tests/leb128.test.sol",
  "abi": [
    {
      "inputs": [],
      "name": "unsiged_integer_leb128_encoding",
      "outputs": [],
      "stateMutability": "pure",
      "type": "function"
    }
  ],
  "bytecode": "0x608060405234801561001057600080fd5b506105a3806100206000396000f3fe608060405234801561001057600080fd5b506004361061002b5760003560e01c806339f87ced14610030575b600080fd5b61003861003a565b005b60006040518060400160405280600381526020017fe58e260000000000000000000000000000000000000000000000000000000000815250905060006209876590506000610087826100e2565b90508280519060200120816000015180519060200120146100dd576040517f08c379a00000000000000000000000000000000000000000000000000000000081526004016100d49061040a565b60405180910390fd5b505050565b6100ea61036d565b6100f261036d565b5b600115610160576000607f8416905060078467ffffffffffffffff16901c935060008467ffffffffffffffff160361014357610138818361016790919063ffffffff16565b508192505050610162565b610159608082178361016790919063ffffffff16565b50506100f3565b505b919050565b61016f61036d565b6000836000015151905060006001826101889190610463565b9050846020015182106101ac576101ab856002836101a69190610497565b6101d1565b5b845160208382010185815381518311156101c4578282525b5050849250505092915050565b6000826000015190506101e483836101f5565b506101ef838261026e565b50505050565b6101fd61036d565b600060208361020c9190610508565b146102385760208261021e9190610508565b602061022a9190610539565b826102359190610463565b91505b81836020018181525050604051808452600081528281016020018181101561025f57600080fd5b80604052505082905092915050565b61027661036d565b6102828383845161028a565b905092915050565b61029261036d565b82518211156102a057600080fd5b60008460000151519050600083826102b89190610463565b905085602001518111156102dd576102dc866002836102d79190610497565b6101d1565b5b600080875180518560208301019350808511156102f8578482525b60208901925050505b6020861061033f578051825260208261031a9190610463565b91506020816103299190610463565b90506020866103389190610539565b9550610301565b60006001876020036101000a0390508019825116818451168181178552505050879450505050509392505050565b604051806040016040528060608152602001600081525090565b600082825260208201905092915050565b7f2736323434383527206973206e6f742072657475726e696e672027653538653260008201527f3627000000000000000000000000000000000000000000000000000000000000602082015250565b60006103f4602283610387565b91506103ff82610398565b604082019050919050565b60006020820190508181036000830152610423816103e7565b9050919050565b6000819050919050565b7f4e487b7100000000000000000000000000000000000000000000000000000000600052601160045260246000fd5b600061046e8261042a565b91506104798361042a565b925082820190508082111561049157610490610434565b5b92915050565b60006104a28261042a565b91506104ad8361042a565b92508282026104bb8161042a565b915082820484148315176104d2576104d1610434565b5b5092915050565b7f4e487b7100000000000000000000000000000000000000000000000000000000600052601260045260246000fd5b60006105138261042a565b915061051e8361042a565b92508261052e5761052d6104d9565b5b828206905092915050565b60006105448261042a565b915061054f8361042a565b925082820390508181111561056757610566610434565b5b9291505056fea2646970667358221220583d12247bbe74876b06e1cd592ebfa0865b864e470e94fb443caaf63be91c3c64736f6c63430008110033",
  "linkReferences": {},
  "deployedLinkReferences": {}
}