{
  "_format": "hh-sol-artifact-1",
  "contractName": "AccountApiTest",
  "sourceName": "contracts/zondax/filecoin-solidity/contracts/v0.8/tests/account.test.sol",
  "abi": [
    {
      "inputs": [
        {
          "internalType": "int256",
          "name": "errorCode",
          "type": "int256"
        }
      ],
      "name": "ActorError",
      "type": "error"
    },
    {
      "inputs": [],
      "name": "FailToCallActor",
      "type": "error"
    },
    {
      "inputs": [
        {
          "internalType": "CommonTypes.FilActorId",
          "name": "actorId",
          "type": "uint64"
        }
      ],
      "name": "InvalidActorID",
      "type": "error"
    },
    {
      "inputs": [
        {
          "internalType": "uint64",
          "name": "",
          "type": "uint64"
        }
      ],
      "name": "InvalidCodec",
      "type": "error"
    },
    {
      "inputs": [],
      "name": "InvalidResponseLength",
      "type": "error"
    },
    {
      "inputs": [
        {
          "internalType": "uint256",
          "name": "balance",
          "type": "uint256"
        },
        {
          "internalType": "uint256",
          "name": "value",
          "type": "uint256"
        }
      ],
      "name": "NotEnoughBalance",
      "type": "error"
    },
    {
      "inputs": [
        {
          "internalType": "CommonTypes.FilActorId",
          "name": "target",
          "type": "uint64"
        },
        {
          "components": [
            {
              "internalType": "bytes",
              "name": "signature",
              "type": "bytes"
            },
            {
              "internalType": "bytes",
              "name": "message",
              "type": "bytes"
            }
          ],
          "internalType": "struct AccountTypes.AuthenticateMessageParams",
          "name": "params",
          "type": "tuple"
        }
      ],
      "name": "authenticate_message",
      "outputs": [],
      "stateMutability": "nonpayable",
      "type": "function"
    },
    {
      "inputs": [
        {
          "internalType": "CommonTypes.FilActorId",
          "name": "target",
          "type": "uint64"
        },
        {
          "components": [
            {
              "internalType": "uint32",
              "name": "type_",
              "type": "uint32"
            },
            {
              "internalType": "bytes",
              "name": "payload",
              "type": "bytes"
            }
          ],
          "internalType": "struct CommonTypes.UniversalReceiverParams",
          "name": "params",
          "type": "tuple"
        }
      ],
      "name": "universal_receiver_hook",
      "outputs": [],
      "stateMutability": "nonpayable",
      "type": "function"
    }
  ],
  "bytecode": "0x608060405234801561001057600080fd5b506114e9806100206000396000f3fe608060405234801561001057600080fd5b50600436106100365760003560e01c8063d6fb314e1461003b578063f5c62e8714610057575b600080fd5b61005560048036038101906100509190610cd8565b610073565b005b610071600480360381019061006c9190610dbc565b610082565b005b61007d8282610090565b505050565b61008c82826100c2565b5050565b6060600061009d83610129565b905060006100b58563de180de3605185600080610192565b9050809250505092915050565b60006100cd826102e7565b905060006100e684639d8b06786051856000600161034a565b90506000815114610123576040517f0e74990700000000000000000000000000000000000000000000000000000000815260040160405180910390fd5b50505050565b6060600061013760406103b6565b905061014d6002826103dd90919063ffffffff16565b61016a836000015163ffffffff16826103ed90919063ffffffff16565b6101818360200151826103fd90919063ffffffff16565b61018a81610426565b915050919050565b60606000479050838110156101e05780846040517f8f0f42060000000000000000000000000000000000000000000000000000000081526004016101d7929190610e31565b60405180910390fd5b60008073fe0000000000000000000000000000000000000573ffffffffffffffffffffffffffffffffffffffff1689878761021c57600061021f565b60015b8b8b8f60405160200161023796959493929190610f23565b6040516020818303038152906040526040516102539190610fc7565b600060405180830381855af49150503d806000811461028e576040519150601f19603f3d011682016040523d82523d6000602084013e610293565b606091505b5091509150816102cf576040517f8a7db5bf00000000000000000000000000000000000000000000000000000000815260040160405180910390fd5b6102d88161047f565b93505050509695505050505050565b606060006102f560406103b6565b905061030b6002826103dd90919063ffffffff16565b6103228360000151826103fd90919063ffffffff16565b6103398360200151826103fd90919063ffffffff16565b61034281610426565b915050919050565b606060648767ffffffffffffffff16101561039c57866040517fa29282730000000000000000000000000000000000000000000000000000000081526004016103939190610fde565b60405180910390fd5b6103aa878787878787610192565b90509695505050505050565b6103be610a52565b6103cc816000015183610606565b506000816020018181525050919050565b6103e98260048361067f565b5050565b6103f98260008361068f565b5050565b61040a826002835161068f565b61042181836000015161083890919063ffffffff16565b505050565b6060600082602001511461046f576040517f08c379a000000000000000000000000000000000000000000000000000000000815260040161046690611056565b60405180910390fd5b8160000151600001519050919050565b606060008060008480602001905181019061049a9190611148565b925092509250600067ffffffffffffffff168267ffffffffffffffff16036104fc5760008151146104f7576040517f0e74990700000000000000000000000000000000000000000000000000000000815260040160405180910390fd5b6105b6565b605167ffffffffffffffff168267ffffffffffffffff1614806105335750607167ffffffffffffffff168267ffffffffffffffff16145b15610578576000815103610573576040517f0e74990700000000000000000000000000000000000000000000000000000000815260040160405180910390fd5b6105b5565b816040517ff1f6bced0000000000000000000000000000000000000000000000000000000081526004016105ac91906111b7565b60405180910390fd5b5b600083146105fb57826040517fd4bb66710000000000000000000000000000000000000000000000000000000081526004016105f291906111e1565b60405180910390fd5b809350505050919050565b61060e610a72565b600060208361061d919061122b565b146106495760208261062f919061122b565b602061063b919061128b565b8261064691906112bf565b91505b81836020018181525050604051808452600081528281016020018181101561067057600080fd5b80604052505082905092915050565b61068a83838361068f565b505050565b60178167ffffffffffffffff16116106ca576106c48160058460ff16901b60ff1617846000015161085490919063ffffffff16565b50610833565b60ff8167ffffffffffffffff1611610728576106fd601860058460ff16901b17846000015161085490919063ffffffff16565b506107228167ffffffffffffffff16600185600001516108be9092919063ffffffff16565b50610832565b61ffff8167ffffffffffffffff16116107875761075c601960058460ff16901b17846000015161085490919063ffffffff16565b506107818167ffffffffffffffff16600285600001516108be9092919063ffffffff16565b50610831565b63ffffffff8167ffffffffffffffff16116107e8576107bd601a60058460ff16901b17846000015161085490919063ffffffff16565b506107e28167ffffffffffffffff16600485600001516108be9092919063ffffffff16565b50610830565b610809601b60058460ff16901b17846000015161085490919063ffffffff16565b5061082e8167ffffffffffffffff16600885600001516108be9092919063ffffffff16565b505b5b5b5b505050565b610840610a72565b61084c8383845161094b565b905092915050565b61085c610a72565b60008360000151519050600060018261087591906112bf565b905084602001518210610899576108988560028361089391906112f3565b610a2e565b5b845160208382010185815381518311156108b1578282525b5050849250505092915050565b6108c6610a72565b60008460000151519050600081846108de91906112bf565b9050856020015181111561090357610902866002836108fd91906112f3565b610a2e565b5b60006001856101006109159190611468565b61091f919061128b565b90508651828101878319825116178152815184111561093c578382525b50508693505050509392505050565b610953610a72565b825182111561096157600080fd5b600084600001515190506000838261097991906112bf565b9050856020015181111561099e5761099d8660028361099891906112f3565b610a2e565b5b600080875180518560208301019350808511156109b9578482525b60208901925050505b60208610610a0057805182526020826109db91906112bf565b91506020816109ea91906112bf565b90506020866109f9919061128b565b95506109c2565b60006001876020036101000a0390508019825116818451168181178552505050879450505050509392505050565b600082600001519050610a418383610606565b50610a4c8382610838565b50505050565b6040518060400160405280610a65610a72565b8152602001600081525090565b604051806040016040528060608152602001600081525090565b6000604051905090565b600080fd5b600080fd5b600067ffffffffffffffff82169050919050565b610abd81610aa0565b8114610ac857600080fd5b50565b600081359050610ada81610ab4565b92915050565b600080fd5b6000601f19601f8301169050919050565b7f4e487b7100000000000000000000000000000000000000000000000000000000600052604160045260246000fd5b610b2e82610ae5565b810181811067ffffffffffffffff82111715610b4d57610b4c610af6565b5b80604052505050565b6000610b60610a8c565b9050610b6c8282610b25565b919050565b600080fd5b600063ffffffff82169050919050565b610b8f81610b76565b8114610b9a57600080fd5b50565b600081359050610bac81610b86565b92915050565b600080fd5b600080fd5b600067ffffffffffffffff821115610bd757610bd6610af6565b5b610be082610ae5565b9050602081019050919050565b82818337600083830152505050565b6000610c0f610c0a84610bbc565b610b56565b905082815260208101848484011115610c2b57610c2a610bb7565b5b610c36848285610bed565b509392505050565b600082601f830112610c5357610c52610bb2565b5b8135610c63848260208601610bfc565b91505092915050565b600060408284031215610c8257610c81610ae0565b5b610c8c6040610b56565b90506000610c9c84828501610b9d565b600083015250602082013567ffffffffffffffff811115610cc057610cbf610b71565b5b610ccc84828501610c3e565b60208301525092915050565b60008060408385031215610cef57610cee610a96565b5b6000610cfd85828601610acb565b925050602083013567ffffffffffffffff811115610d1e57610d1d610a9b565b5b610d2a85828601610c6c565b9150509250929050565b600060408284031215610d4a57610d49610ae0565b5b610d546040610b56565b9050600082013567ffffffffffffffff811115610d7457610d73610b71565b5b610d8084828501610c3e565b600083015250602082013567ffffffffffffffff811115610da457610da3610b71565b5b610db084828501610c3e565b60208301525092915050565b60008060408385031215610dd357610dd2610a96565b5b6000610de185828601610acb565b925050602083013567ffffffffffffffff811115610e0257610e01610a9b565b5b610e0e85828601610d34565b9150509250929050565b6000819050919050565b610e2b81610e18565b82525050565b6000604082019050610e466000830185610e22565b610e536020830184610e22565b9392505050565b610e6381610aa0565b82525050565b600081519050919050565b600082825260208201905092915050565b60005b83811015610ea3578082015181840152602081019050610e88565b60008484015250505050565b6000610eba82610e69565b610ec48185610e74565b9350610ed4818560208601610e85565b610edd81610ae5565b840191505092915050565b6000819050919050565b6000610f0d610f08610f0384610aa0565b610ee8565b610aa0565b9050919050565b610f1d81610ef2565b82525050565b600060c082019050610f386000830189610e5a565b610f456020830188610e22565b610f526040830187610e5a565b610f5f6060830186610e5a565b8181036080830152610f718185610eaf565b9050610f8060a0830184610f14565b979650505050505050565b600081905092915050565b6000610fa182610e69565b610fab8185610f8b565b9350610fbb818560208601610e85565b80840191505092915050565b6000610fd38284610f96565b915081905092915050565b6000602082019050610ff36000830184610f14565b92915050565b600082825260208201905092915050565b7f496e76616c69642043424f520000000000000000000000000000000000000000600082015250565b6000611040600c83610ff9565b915061104b8261100a565b602082019050919050565b6000602082019050818103600083015261106f81611033565b9050919050565b6000819050919050565b61108981611076565b811461109457600080fd5b50565b6000815190506110a681611080565b92915050565b6110b581610aa0565b81146110c057600080fd5b50565b6000815190506110d2816110ac565b92915050565b60006110eb6110e684610bbc565b610b56565b90508281526020810184848401111561110757611106610bb7565b5b611112848285610e85565b509392505050565b600082601f83011261112f5761112e610bb2565b5b815161113f8482602086016110d8565b91505092915050565b60008060006060848603121561116157611160610a96565b5b600061116f86828701611097565b9350506020611180868287016110c3565b925050604084015167ffffffffffffffff8111156111a1576111a0610a9b565b5b6111ad8682870161111a565b9150509250925092565b60006020820190506111cc6000830184610e5a565b92915050565b6111db81611076565b82525050565b60006020820190506111f660008301846111d2565b92915050565b7f4e487b7100000000000000000000000000000000000000000000000000000000600052601260045260246000fd5b600061123682610e18565b915061124183610e18565b925082611251576112506111fc565b5b828206905092915050565b7f4e487b7100000000000000000000000000000000000000000000000000000000600052601160045260246000fd5b600061129682610e18565b91506112a183610e18565b92508282039050818111156112b9576112b861125c565b5b92915050565b60006112ca82610e18565b91506112d583610e18565b92508282019050808211156112ed576112ec61125c565b5b92915050565b60006112fe82610e18565b915061130983610e18565b925082820261131781610e18565b9150828204841483151761132e5761132d61125c565b5b5092915050565b60008160011c9050919050565b6000808291508390505b600185111561138c578086048111156113685761136761125c565b5b60018516156113775780820291505b808102905061138585611335565b945061134c565b94509492505050565b6000826113a55760019050611461565b816113b35760009050611461565b81600181146113c957600281146113d357611402565b6001915050611461565b60ff8411156113e5576113e461125c565b5b8360020a9150848211156113fc576113fb61125c565b5b50611461565b5060208310610133831016604e8410600b84101617156114375782820a9050838111156114325761143161125c565b5b611461565b6114448484846001611342565b9250905081840481111561145b5761145a61125c565b5b81810290505b9392505050565b600061147382610e18565b915061147e83610e18565b92506114ab7fffffffffffffffffffffffffffffffffffffffffffffffffffffffffffffffff8484611395565b90509291505056fea2646970667358221220a17b55a95aab1d84c63383eb015e0902cfbf66800694d4c10af669e50058178e64736f6c63430008110033",
  "linkReferences": {},
  "deployedLinkReferences": {}
}