{
  "_format": "hh-sol-artifact-1",
  "contractName": "InitApiTest",
  "sourceName": "contracts/zondax/filecoin-solidity/contracts/v0.8/tests/init.test.sol",
  "abi": [
    {
      "inputs": [
        {
          "internalType": "int256",
          "name": "errorCode",
          "type": "int256"
        }
      ],
      "name": "ActorError",
      "type": "error"
    },
    {
      "inputs": [],
      "name": "FailToCallActor",
      "type": "error"
    },
    {
      "inputs": [
        {
          "internalType": "uint64",
          "name": "",
          "type": "uint64"
        }
      ],
      "name": "InvalidCodec",
      "type": "error"
    },
    {
      "inputs": [],
      "name": "InvalidResponseLength",
      "type": "error"
    },
    {
      "inputs": [
        {
          "internalType": "uint256",
          "name": "balance",
          "type": "uint256"
        },
        {
          "internalType": "uint256",
          "name": "value",
          "type": "uint256"
        }
      ],
      "name": "NotEnoughBalance",
      "type": "error"
    },
    {
      "inputs": [
        {
          "components": [
            {
              "components": [
                {
                  "internalType": "bytes",
                  "name": "data",
                  "type": "bytes"
                }
              ],
              "internalType": "struct CommonTypes.Cid",
              "name": "code_cid",
              "type": "tuple"
            },
            {
              "internalType": "bytes",
              "name": "constructor_params",
              "type": "bytes"
            }
          ],
          "internalType": "struct InitTypes.ExecParams",
          "name": "params",
          "type": "tuple"
        }
      ],
      "name": "exec",
      "outputs": [
        {
          "components": [
            {
              "components": [
                {
                  "internalType": "bytes",
                  "name": "data",
                  "type": "bytes"
                }
              ],
              "internalType": "struct CommonTypes.FilAddress",
              "name": "id_address",
              "type": "tuple"
            },
            {
              "components": [
                {
                  "internalType": "bytes",
                  "name": "data",
                  "type": "bytes"
                }
              ],
              "internalType": "struct CommonTypes.FilAddress",
              "name": "robust_address",
              "type": "tuple"
            }
          ],
          "internalType": "struct InitTypes.ExecReturn",
          "name": "",
          "type": "tuple"
        }
      ],
      "stateMutability": "nonpayable",
      "type": "function"
    },
    {
      "inputs": [
        {
          "components": [
            {
              "components": [
                {
                  "internalType": "bytes",
                  "name": "data",
                  "type": "bytes"
                }
              ],
              "internalType": "struct CommonTypes.Cid",
              "name": "code_cid",
              "type": "tuple"
            },
            {
              "internalType": "bytes",
              "name": "constructor_params",
              "type": "bytes"
            },
            {
              "internalType": "bytes",
              "name": "subaddress",
              "type": "bytes"
            }
          ],
          "internalType": "struct InitTypes.Exec4Params",
          "name": "params",
          "type": "tuple"
        }
      ],
      "name": "exec4",
      "outputs": [
        {
          "components": [
            {
              "components": [
                {
                  "internalType": "bytes",
                  "name": "data",
                  "type": "bytes"
                }
              ],
              "internalType": "struct CommonTypes.FilAddress",
              "name": "id_address",
              "type": "tuple"
            },
            {
              "components": [
                {
                  "internalType": "bytes",
                  "name": "data",
                  "type": "bytes"
                }
              ],
              "internalType": "struct CommonTypes.FilAddress",
              "name": "robust_address",
              "type": "tuple"
            }
          ],
          "internalType": "struct InitTypes.Exec4Return",
          "name": "",
          "type": "tuple"
        }
      ],
      "stateMutability": "nonpayable",
      "type": "function"
    }
  ],
  "bytecode": "0x608060405234801561001057600080fd5b506120b0806100206000396000f3fe608060405234801561001057600080fd5b50600436106100365760003560e01c8063257220321461003b57806334c1fb161461006b575b600080fd5b6100556004803603810190610050919061147e565b61009b565b60405161006291906115b4565b60405180910390f35b6100856004803603810190610080919061165e565b6100b3565b60405161009291906116eb565b60405180910390f35b6100a3611171565b6100ac826100cb565b9050919050565b6100bb611197565b6100c482610108565b9050919050565b6100d3611171565b60006100de83610148565b905060006100f4600160036051856000806101c6565b90506100ff8161031b565b92505050919050565b610110611197565b600061011b8361039f565b9050600061013460016304d765d06051856000806101c6565b905061013f81610406565b92505050919050565b60606000610156604061048a565b905061016c6003826104b190919063ffffffff16565b610187836000015160000151826104c190919063ffffffff16565b61019e83602001518261051490919063ffffffff16565b6101b583604001518261051490919063ffffffff16565b6101be8161053d565b915050919050565b60606000479050838110156102145780846040517f8f0f420600000000000000000000000000000000000000000000000000000000815260040161020b929190611726565b60405180910390fd5b60008073fe0000000000000000000000000000000000000573ffffffffffffffffffffffffffffffffffffffff16898787610250576000610253565b60015b8b8b8f60405160200161026b969594939291906117f7565b604051602081830303815290604052604051610287919061189b565b600060405180830381855af49150503d80600081146102c2576040519150601f19603f3d011682016040523d82523d6000602084013e6102c7565b606091505b509150915081610303576040517f8a7db5bf00000000000000000000000000000000000000000000000000000000815260040160405180910390fd5b61030c81610596565b93505050509695505050505050565b610323611171565b600080610339828561071d90919063ffffffff16565b809350819250505060028114610352576103516118b2565b5b610365828561079e90919063ffffffff16565b84600001516000018194508290525050610388828561079e90919063ffffffff16565b846020015160000181945082905250505050919050565b606060006103ad604061048a565b90506103c36002826104b190919063ffffffff16565b6103de836000015160000151826104c190919063ffffffff16565b6103f583602001518261051490919063ffffffff16565b6103fe8161053d565b915050919050565b61040e611197565b600080610424828561071d90919063ffffffff16565b80935081925050506002811461043d5761043c6118b2565b5b610450828561079e90919063ffffffff16565b84600001516000018194508290525050610473828561079e90919063ffffffff16565b846020015160000181945082905250505050919050565b6104926111bd565b6104a081600001518361097a565b506000816020018181525050919050565b6104bd826004836109f3565b5050565b6104e360186005600660ff16901b178360000151610a0390919063ffffffff16565b506104fc602a8360000151610a0390919063ffffffff16565b50610510818361051490919063ffffffff16565b5050565b6105218260028351610a6d565b610538818360000151610c1690919063ffffffff16565b505050565b60606000826020015114610586576040517f08c379a000000000000000000000000000000000000000000000000000000000815260040161057d9061193e565b60405180910390fd5b8160000151600001519050919050565b60606000806000848060200190518101906105b19190611a30565b925092509250600067ffffffffffffffff168267ffffffffffffffff160361061357600081511461060e576040517f0e74990700000000000000000000000000000000000000000000000000000000815260040160405180910390fd5b6106cd565b605167ffffffffffffffff168267ffffffffffffffff16148061064a5750607167ffffffffffffffff168267ffffffffffffffff16145b1561068f57600081510361068a576040517f0e74990700000000000000000000000000000000000000000000000000000000815260040160405180910390fd5b6106cc565b816040517ff1f6bced0000000000000000000000000000000000000000000000000000000081526004016106c39190611a9f565b60405180910390fd5b5b6000831461071257826040517fd4bb66710000000000000000000000000000000000000000000000000000000081526004016107099190611ac9565b60405180910390fd5b809350505050919050565b60008060008061072d8686610c32565b8167ffffffffffffffff169150809750819350829450505050600460ff168260ff161461078f576040517f08c379a000000000000000000000000000000000000000000000000000000000815260040161078690611b30565b60405180910390fd5b80859350935050509250929050565b606060008060006107af8686610c32565b8167ffffffffffffffff169150809750819350829450505050600660ff168260ff1614806107e35750600260ff168260ff16145b610822576040517f08c379a000000000000000000000000000000000000000000000000000000000815260040161081990611bc2565b60405180910390fd5b600660ff168260ff160361086b5761083a8686610c32565b8167ffffffffffffffff169150809750819350829450505050600260ff168260ff161461086a576108696118b2565b5b5b600081866108799190611c11565b905060008267ffffffffffffffff81111561089757610896611234565b5b6040519080825280601f01601f1916602001820160405280156108c95781602001600182028036833780820191505090505b5090506000808890505b8381101561095c578981815181106108ee576108ed611c45565b5b602001015160f81c60f81b83838151811061090c5761090b611c45565b5b60200101907effffffffffffffffffffffffffffffffffffffffffffffffffffffffffffff1916908160001a905350818061094690611c74565b925050808061095490611c74565b9150506108d3565b5081848961096a9190611c11565b9650965050505050509250929050565b6109826111dd565b60006020836109919190611ceb565b146109bd576020826109a39190611ceb565b60206109af9190611d1c565b826109ba9190611c11565b91505b8183602001818152505060405180845260008152828101602001818110156109e457600080fd5b80604052505082905092915050565b6109fe838383610a6d565b505050565b610a0b6111dd565b600083600001515190506000600182610a249190611c11565b905084602001518210610a4857610a4785600283610a429190611d50565b610e24565b5b84516020838201018581538151831115610a60578282525b5050849250505092915050565b60178167ffffffffffffffff1611610aa857610aa28160058460ff16901b60ff16178460000151610a0390919063ffffffff16565b50610c11565b60ff8167ffffffffffffffff1611610b0657610adb601860058460ff16901b178460000151610a0390919063ffffffff16565b50610b008167ffffffffffffffff1660018560000151610e489092919063ffffffff16565b50610c10565b61ffff8167ffffffffffffffff1611610b6557610b3a601960058460ff16901b178460000151610a0390919063ffffffff16565b50610b5f8167ffffffffffffffff1660028560000151610e489092919063ffffffff16565b50610c0f565b63ffffffff8167ffffffffffffffff1611610bc657610b9b601a60058460ff16901b178460000151610a0390919063ffffffff16565b50610bc08167ffffffffffffffff1660048560000151610e489092919063ffffffff16565b50610c0e565b610be7601b60058460ff16901b178460000151610a0390919063ffffffff16565b50610c0c8167ffffffffffffffff1660088560000151610e489092919063ffffffff16565b505b5b5b5b505050565b610c1e6111dd565b610c2a83838451610ed5565b905092915050565b600080600080610c428686610fb8565b9050600185610c519190611c11565b94506000600560e0831660ff16901c90506000601f83169050601c8160ff1610610cb0576040517f08c379a0000000000000000000000000000000000000000000000000000000008152600401610ca790611e04565b60405180910390fd5b60188160ff161015610cd3578181888160ff169150955095509550505050610e1d565b60188160ff1603610d5a576000610cea8989610fb8565b9050600188610cf99190611c11565b975060188160ff161015610d42576040517f08c379a0000000000000000000000000000000000000000000000000000000008152600401610d3990611e70565b60405180910390fd5b8281898160ff16915096509650965050505050610e1d565b60198160ff1603610d9b576000610d718989611033565b9050600288610d809190611c11565b97508281898161ffff16915096509650965050505050610e1d565b601a8160ff1603610dde576000610db2898961109d565b9050600488610dc19190611c11565b97508281898163ffffffff16915096509650965050505050610e1d565b601b8160ff1614610df257610df16118b2565b5b6000610dfe8989611107565b9050600888610e0d9190611c11565b9750828189965096509650505050505b9250925092565b600082600001519050610e37838361097a565b50610e428382610c16565b50505050565b610e506111dd565b6000846000015151905060008184610e689190611c11565b90508560200151811115610e8d57610e8c86600283610e879190611d50565b610e24565b5b6000600185610100610e9f9190611fc3565b610ea99190611d1c565b905086518281018783198251161781528151841115610ec6578382525b50508693505050509392505050565b610edd6111dd565b8251821115610eeb57600080fd5b6000846000015151905060008382610f039190611c11565b90508560200151811115610f2857610f2786600283610f229190611d50565b610e24565b5b60008087518051856020830101935080851115610f43578482525b60208901925050505b60208610610f8a5780518252602082610f659190611c11565b9150602081610f749190611c11565b9050602086610f839190611d1c565b9550610f4c565b60006001876020036101000a0390508019825116818451168181178552505050879450505050509392505050565b6000600182610fc79190611c11565b8351101561100a576040517f08c379a00000000000000000000000000000000000000000000000000000000081526004016110019061205a565b60405180910390fd5b82828151811061101d5761101c611c45565b5b602001015160f81c60f81b60f81c905092915050565b60006002826110429190611c11565b83511015611085576040517f08c379a000000000000000000000000000000000000000000000000000000000815260040161107c9061205a565b60405180910390fd5b60008260200184015190508060f01c91505092915050565b60006004826110ac9190611c11565b835110156110ef576040517f08c379a00000000000000000000000000000000000000000000000000000000081526004016110e69061205a565b60405180910390fd5b60008260200184015190508060e01c91505092915050565b60006008826111169190611c11565b83511015611159576040517f08c379a00000000000000000000000000000000000000000000000000000000081526004016111509061205a565b60405180910390fd5b60008260200184015190508060c01c91505092915050565b60405180604001604052806111846111f7565b81526020016111916111f7565b81525090565b60405180604001604052806111aa6111f7565b81526020016111b76111f7565b81525090565b60405180604001604052806111d06111dd565b8152602001600081525090565b604051806040016040528060608152602001600081525090565b6040518060200160405280606081525090565b6000604051905090565b600080fd5b600080fd5b600080fd5b6000601f19601f8301169050919050565b7f4e487b7100000000000000000000000000000000000000000000000000000000600052604160045260246000fd5b61126c82611223565b810181811067ffffffffffffffff8211171561128b5761128a611234565b5b80604052505050565b600061129e61120a565b90506112aa8282611263565b919050565b600080fd5b600080fd5b600080fd5b600067ffffffffffffffff8211156112d9576112d8611234565b5b6112e282611223565b9050602081019050919050565b82818337600083830152505050565b600061131161130c846112be565b611294565b90508281526020810184848401111561132d5761132c6112b9565b5b6113388482856112ef565b509392505050565b600082601f830112611355576113546112b4565b5b81356113658482602086016112fe565b91505092915050565b6000602082840312156113845761138361121e565b5b61138e6020611294565b9050600082013567ffffffffffffffff8111156113ae576113ad6112af565b5b6113ba84828501611340565b60008301525092915050565b6000606082840312156113dc576113db61121e565b5b6113e66060611294565b9050600082013567ffffffffffffffff811115611406576114056112af565b5b6114128482850161136e565b600083015250602082013567ffffffffffffffff811115611436576114356112af565b5b61144284828501611340565b602083015250604082013567ffffffffffffffff811115611466576114656112af565b5b61147284828501611340565b60408301525092915050565b60006020828403121561149457611493611214565b5b600082013567ffffffffffffffff8111156114b2576114b1611219565b5b6114be848285016113c6565b91505092915050565b600081519050919050565b600082825260208201905092915050565b60005b838110156115015780820151818401526020810190506114e6565b60008484015250505050565b6000611518826114c7565b61152281856114d2565b93506115328185602086016114e3565b61153b81611223565b840191505092915050565b60006020830160008301518482036000860152611563828261150d565b9150508091505092915050565b6000604083016000830151848203600086015261158d8282611546565b915050602083015184820360208601526115a78282611546565b9150508091505092915050565b600060208201905081810360008301526115ce8184611570565b905092915050565b6000604082840312156115ec576115eb61121e565b5b6115f66040611294565b9050600082013567ffffffffffffffff811115611616576116156112af565b5b6116228482850161136e565b600083015250602082013567ffffffffffffffff811115611646576116456112af565b5b61165284828501611340565b60208301525092915050565b60006020828403121561167457611673611214565b5b600082013567ffffffffffffffff81111561169257611691611219565b5b61169e848285016115d6565b91505092915050565b600060408301600083015184820360008601526116c48282611546565b915050602083015184820360208601526116de8282611546565b9150508091505092915050565b6000602082019050818103600083015261170581846116a7565b905092915050565b6000819050919050565b6117208161170d565b82525050565b600060408201905061173b6000830185611717565b6117486020830184611717565b9392505050565b600067ffffffffffffffff82169050919050565b61176c8161174f565b82525050565b600082825260208201905092915050565b600061178e826114c7565b6117988185611772565b93506117a88185602086016114e3565b6117b181611223565b840191505092915050565b6000819050919050565b60006117e16117dc6117d78461174f565b6117bc565b61174f565b9050919050565b6117f1816117c6565b82525050565b600060c08201905061180c6000830189611763565b6118196020830188611717565b6118266040830187611763565b6118336060830186611763565b81810360808301526118458185611783565b905061185460a08301846117e8565b979650505050505050565b600081905092915050565b6000611875826114c7565b61187f818561185f565b935061188f8185602086016114e3565b80840191505092915050565b60006118a7828461186a565b915081905092915050565b7f4e487b7100000000000000000000000000000000000000000000000000000000600052600160045260246000fd5b600082825260208201905092915050565b7f496e76616c69642043424f520000000000000000000000000000000000000000600082015250565b6000611928600c836118e1565b9150611933826118f2565b602082019050919050565b600060208201905081810360008301526119578161191b565b9050919050565b6000819050919050565b6119718161195e565b811461197c57600080fd5b50565b60008151905061198e81611968565b92915050565b61199d8161174f565b81146119a857600080fd5b50565b6000815190506119ba81611994565b92915050565b60006119d36119ce846112be565b611294565b9050828152602081018484840111156119ef576119ee6112b9565b5b6119fa8482856114e3565b509392505050565b600082601f830112611a1757611a166112b4565b5b8151611a278482602086016119c0565b91505092915050565b600080600060608486031215611a4957611a48611214565b5b6000611a578682870161197f565b9350506020611a68868287016119ab565b925050604084015167ffffffffffffffff811115611a8957611a88611219565b5b611a9586828701611a02565b9150509250925092565b6000602082019050611ab46000830184611763565b92915050565b611ac38161195e565b82525050565b6000602082019050611ade6000830184611aba565b92915050565b7f696e76616c6964206d616a20286578706563746564204d616a41727261792900600082015250565b6000611b1a601f836118e1565b9150611b2582611ae4565b602082019050919050565b60006020820190508181036000830152611b4981611b0d565b9050919050565b7f696e76616c6964206d616a20286578706563746564204d616a546167206f722060008201527f4d616a42797465537472696e6729000000000000000000000000000000000000602082015250565b6000611bac602e836118e1565b9150611bb782611b50565b604082019050919050565b60006020820190508181036000830152611bdb81611b9f565b9050919050565b7f4e487b7100000000000000000000000000000000000000000000000000000000600052601160045260246000fd5b6000611c1c8261170d565b9150611c278361170d565b9250828201905080821115611c3f57611c3e611be2565b5b92915050565b7f4e487b7100000000000000000000000000000000000000000000000000000000600052603260045260246000fd5b6000611c7f8261170d565b91507fffffffffffffffffffffffffffffffffffffffffffffffffffffffffffffffff8203611cb157611cb0611be2565b5b600182019050919050565b7f4e487b7100000000000000000000000000000000000000000000000000000000600052601260045260246000fd5b6000611cf68261170d565b9150611d018361170d565b925082611d1157611d10611cbc565b5b828206905092915050565b6000611d278261170d565b9150611d328361170d565b9250828203905081811115611d4a57611d49611be2565b5b92915050565b6000611d5b8261170d565b9150611d668361170d565b9250828202611d748161170d565b91508282048414831517611d8b57611d8a611be2565b5b5092915050565b7f63616e6e6f742068616e646c652068656164657273207769746820657874726160008201527f203e203237000000000000000000000000000000000000000000000000000000602082015250565b6000611dee6025836118e1565b9150611df982611d92565b604082019050919050565b60006020820190508181036000830152611e1d81611de1565b9050919050565b7f696e76616c69642063626f720000000000000000000000000000000000000000600082015250565b6000611e5a600c836118e1565b9150611e6582611e24565b602082019050919050565b60006020820190508181036000830152611e8981611e4d565b9050919050565b60008160011c9050919050565b6000808291508390505b6001851115611ee757808604811115611ec357611ec2611be2565b5b6001851615611ed25780820291505b8081029050611ee085611e90565b9450611ea7565b94509492505050565b600082611f005760019050611fbc565b81611f0e5760009050611fbc565b8160018114611f245760028114611f2e57611f5d565b6001915050611fbc565b60ff841115611f4057611f3f611be2565b5b8360020a915084821115611f5757611f56611be2565b5b50611fbc565b5060208310610133831016604e8410600b8410161715611f925782820a905083811115611f8d57611f8c611be2565b5b611fbc565b611f9f8484846001611e9d565b92509050818404811115611fb657611fb5611be2565b5b81810290505b9392505050565b6000611fce8261170d565b9150611fd98361170d565b92506120067fffffffffffffffffffffffffffffffffffffffffffffffffffffffffffffffff8484611ef0565b905092915050565b7f736c6963696e67206f7574206f662072616e6765000000000000000000000000600082015250565b60006120446014836118e1565b915061204f8261200e565b602082019050919050565b6000602082019050818103600083015261207381612037565b905091905056fea26469706673582212206521a104b621349b515d30357dd7d52400550e522e251e435fa25afd7657041064736f6c63430008110033",
  "linkReferences": {},
  "deployedLinkReferences": {}
}