{
  "_format": "hh-sol-artifact-1",
  "contractName": "PrecompilesApiTest",
  "sourceName": "contracts/zondax/filecoin-solidity/contracts/v0.8/tests/precompiles.test.sol",
  "abi": [
    {
      "inputs": [
        {
          "internalType": "uint64",
          "name": "actor_id",
          "type": "uint64"
        }
      ],
      "name": "lookup_delegated_address",
      "outputs": [
        {
          "internalType": "bytes",
          "name": "",
          "type": "bytes"
        }
      ],
      "stateMutability": "view",
      "type": "function"
    },
    {
      "inputs": [
        {
          "components": [
            {
              "internalType": "bytes",
              "name": "data",
              "type": "bytes"
            }
          ],
          "internalType": "struct CommonTypes.FilAddress",
          "name": "addr",
          "type": "tuple"
        }
      ],
      "name": "resolve_address",
      "outputs": [
        {
          "internalType": "uint64",
          "name": "",
          "type": "uint64"
        }
      ],
      "stateMutability": "view",
      "type": "function"
    },
    {
      "inputs": [
        {
          "internalType": "address",
          "name": "addr",
          "type": "address"
        }
      ],
      "name": "resolve_eth_address",
      "outputs": [
        {
          "internalType": "uint64",
          "name": "",
          "type": "uint64"
        }
      ],
      "stateMutability": "view",
      "type": "function"
    }
  ],
  "bytecode": "0x608060405234801561001057600080fd5b50610b15806100206000396000f3fe608060405234801561001057600080fd5b50600436106100415760003560e01c80631d5f67a4146100465780639898b39a14610076578063dca7ca03146100a6575b600080fd5b610060600480360381019061005b91906105c7565b6100d6565b60405161006d9190610633565b60405180910390f35b610090600480360381019061008b919061067a565b6100e8565b60405161009d9190610726565b60405180910390f35b6100c060048036038101906100bb91906107a6565b6100fa565b6040516100cd9190610633565b60405180910390f35b60006100e18261010c565b9050919050565b60606100f3826101fd565b9050919050565b6000610105826102fa565b9050919050565b600080600073fe0000000000000000000000000000000000000173ffffffffffffffffffffffffffffffffffffffff16846000015160405161014e919061080f565b600060405180830381855afa9150503d8060008114610189576040519150601f19603f3d011682016040523d82523d6000602084013e61018e565b606091505b509150915060011515821515146101da576040517f08c379a00000000000000000000000000000000000000000000000000000000081526004016101d190610883565b60405180910390fd5b6000818060200190518101906101f091906108d9565b9050809350505050919050565b606060008073fe0000000000000000000000000000000000000273ffffffffffffffffffffffffffffffffffffffff168467ffffffffffffffff166040516020016102489190610927565b604051602081830303815290604052604051610264919061080f565b600060405180830381855afa9150503d806000811461029f576040519150601f19603f3d011682016040523d82523d6000602084013e6102a4565b606091505b509150915060011515821515146102f0576040517f08c379a00000000000000000000000000000000000000000000000000000000081526004016102e79061098e565b60405180910390fd5b8092505050919050565b6000808260405160200161030e9190610a4d565b604051602081830303815290604052905060008073fe0000000000000000000000000000000000000173ffffffffffffffffffffffffffffffffffffffff168360405161035b919061080f565b600060405180830381855afa9150503d8060008114610396576040519150601f19603f3d011682016040523d82523d6000602084013e61039b565b606091505b509150915060011515821515146103e7576040517f08c379a00000000000000000000000000000000000000000000000000000000081526004016103de90610abf565b60405180910390fd5b6000818060200190518101906103fd91906108d9565b905080945050505050919050565b6000604051905090565b600080fd5b600080fd5b600080fd5b6000601f19601f8301169050919050565b7f4e487b7100000000000000000000000000000000000000000000000000000000600052604160045260246000fd5b61046d82610424565b810181811067ffffffffffffffff8211171561048c5761048b610435565b5b80604052505050565b600061049f61040b565b90506104ab8282610464565b919050565b600080fd5b600080fd5b600080fd5b600067ffffffffffffffff8211156104da576104d9610435565b5b6104e382610424565b9050602081019050919050565b82818337600083830152505050565b600061051261050d846104bf565b610495565b90508281526020810184848401111561052e5761052d6104ba565b5b6105398482856104f0565b509392505050565b600082601f830112610556576105556104b5565b5b81356105668482602086016104ff565b91505092915050565b6000602082840312156105855761058461041f565b5b61058f6020610495565b9050600082013567ffffffffffffffff8111156105af576105ae6104b0565b5b6105bb84828501610541565b60008301525092915050565b6000602082840312156105dd576105dc610415565b5b600082013567ffffffffffffffff8111156105fb576105fa61041a565b5b6106078482850161056f565b91505092915050565b600067ffffffffffffffff82169050919050565b61062d81610610565b82525050565b60006020820190506106486000830184610624565b92915050565b61065781610610565b811461066257600080fd5b50565b6000813590506106748161064e565b92915050565b6000602082840312156106905761068f610415565b5b600061069e84828501610665565b91505092915050565b600081519050919050565b600082825260208201905092915050565b60005b838110156106e15780820151818401526020810190506106c6565b60008484015250505050565b60006106f8826106a7565b61070281856106b2565b93506107128185602086016106c3565b61071b81610424565b840191505092915050565b6000602082019050818103600083015261074081846106ed565b905092915050565b600073ffffffffffffffffffffffffffffffffffffffff82169050919050565b600061077382610748565b9050919050565b61078381610768565b811461078e57600080fd5b50565b6000813590506107a08161077a565b92915050565b6000602082840312156107bc576107bb610415565b5b60006107ca84828501610791565b91505092915050565b600081905092915050565b60006107e9826106a7565b6107f381856107d3565b93506108038185602086016106c3565b80840191505092915050565b600061081b82846107de565b915081905092915050565b600082825260208201905092915050565b7f7265736f6c76652061646472657373206572726f720000000000000000000000600082015250565b600061086d601583610826565b915061087882610837565b602082019050919050565b6000602082019050818103600083015261089c81610860565b9050919050565b6000819050919050565b6108b6816108a3565b81146108c157600080fd5b50565b6000815190506108d3816108ad565b92915050565b6000602082840312156108ef576108ee610415565b5b60006108fd848285016108c4565b91505092915050565b6000819050919050565b61092161091c826108a3565b610906565b82525050565b60006109338284610910565b60208201915081905092915050565b7f6c6f6f6b75702064656c6567617465642061646472657373206572726f720000600082015250565b6000610978601e83610826565b915061098382610942565b602082019050919050565b600060208201905081810360008301526109a78161096b565b9050919050565b600081905092915050565b7f040a000000000000000000000000000000000000000000000000000000000000600082015250565b60006109ef6002836109ae565b91506109fa826109b9565b600282019050919050565b60008160601b9050919050565b6000610a1d82610a05565b9050919050565b6000610a2f82610a12565b9050919050565b610a47610a4282610768565b610a24565b82525050565b6000610a58826109e2565b9150610a648284610a36565b60148201915081905092915050565b7f7265736f6c7665206574682061646472657373206572726f7200000000000000600082015250565b6000610aa9601983610826565b9150610ab482610a73565b602082019050919050565b60006020820190508181036000830152610ad881610a9c565b905091905056fea26469706673582212201554d54c3440d0ed55d859444efbdfd923878febbbd4c3f5fb263ca3d7e690b064736f6c63430008110033",
  "linkReferences": {},
  "deployedLinkReferences": {}
}