{
  "_format": "hh-sol-artifact-1",
  "contractName": "DataCapApiTest",
  "sourceName": "contracts/zondax/filecoin-solidity/contracts/v0.8/tests/datacap.test.sol",
  "abi": [
    {
      "inputs": [
        {
          "internalType": "int256",
          "name": "errorCode",
          "type": "int256"
        }
      ],
      "name": "ActorError",
      "type": "error"
    },
    {
      "inputs": [],
      "name": "FailToCallActor",
      "type": "error"
    },
    {
      "inputs": [
        {
          "internalType": "uint64",
          "name": "",
          "type": "uint64"
        }
      ],
      "name": "InvalidCodec",
      "type": "error"
    },
    {
      "inputs": [],
      "name": "InvalidResponseLength",
      "type": "error"
    },
    {
      "inputs": [
        {
          "internalType": "uint256",
          "name": "balance",
          "type": "uint256"
        },
        {
          "internalType": "uint256",
          "name": "value",
          "type": "uint256"
        }
      ],
      "name": "NotEnoughBalance",
      "type": "error"
    },
    {
      "inputs": [
        {
          "components": [
            {
              "components": [
                {
                  "internalType": "bytes",
                  "name": "data",
                  "type": "bytes"
                }
              ],
              "internalType": "struct CommonTypes.FilAddress",
              "name": "owner",
              "type": "tuple"
            },
            {
              "components": [
                {
                  "internalType": "bytes",
                  "name": "data",
                  "type": "bytes"
                }
              ],
              "internalType": "struct CommonTypes.FilAddress",
              "name": "operator",
              "type": "tuple"
            }
          ],
          "internalType": "struct DataCapTypes.GetAllowanceParams",
          "name": "params",
          "type": "tuple"
        }
      ],
      "name": "allowance",
      "outputs": [
        {
          "components": [
            {
              "internalType": "bytes",
              "name": "val",
              "type": "bytes"
            },
            {
              "internalType": "bool",
              "name": "neg",
              "type": "bool"
            }
          ],
          "internalType": "struct CommonTypes.BigInt",
          "name": "",
          "type": "tuple"
        }
      ],
      "stateMutability": "nonpayable",
      "type": "function"
    },
    {
      "inputs": [
        {
          "components": [
            {
              "internalType": "bytes",
              "name": "data",
              "type": "bytes"
            }
          ],
          "internalType": "struct CommonTypes.FilAddress",
          "name": "addr",
          "type": "tuple"
        }
      ],
      "name": "balance",
      "outputs": [
        {
          "components": [
            {
              "internalType": "bytes",
              "name": "val",
              "type": "bytes"
            },
            {
              "internalType": "bool",
              "name": "neg",
              "type": "bool"
            }
          ],
          "internalType": "struct CommonTypes.BigInt",
          "name": "",
          "type": "tuple"
        }
      ],
      "stateMutability": "nonpayable",
      "type": "function"
    },
    {
      "inputs": [
        {
          "components": [
            {
              "internalType": "bytes",
              "name": "val",
              "type": "bytes"
            },
            {
              "internalType": "bool",
              "name": "neg",
              "type": "bool"
            }
          ],
          "internalType": "struct CommonTypes.BigInt",
          "name": "amount",
          "type": "tuple"
        }
      ],
      "name": "burn",
      "outputs": [
        {
          "components": [
            {
              "internalType": "bytes",
              "name": "val",
              "type": "bytes"
            },
            {
              "internalType": "bool",
              "name": "neg",
              "type": "bool"
            }
          ],
          "internalType": "struct CommonTypes.BigInt",
          "name": "",
          "type": "tuple"
        }
      ],
      "stateMutability": "nonpayable",
      "type": "function"
    },
    {
      "inputs": [
        {
          "components": [
            {
              "components": [
                {
                  "internalType": "bytes",
                  "name": "data",
                  "type": "bytes"
                }
              ],
              "internalType": "struct CommonTypes.FilAddress",
              "name": "owner",
              "type": "tuple"
            },
            {
              "components": [
                {
                  "internalType": "bytes",
                  "name": "val",
                  "type": "bytes"
                },
                {
                  "internalType": "bool",
                  "name": "neg",
                  "type": "bool"
                }
              ],
              "internalType": "struct CommonTypes.BigInt",
              "name": "amount",
              "type": "tuple"
            }
          ],
          "internalType": "struct DataCapTypes.BurnFromParams",
          "name": "params",
          "type": "tuple"
        }
      ],
      "name": "burn_from",
      "outputs": [
        {
          "components": [
            {
              "components": [
                {
                  "internalType": "bytes",
                  "name": "val",
                  "type": "bytes"
                },
                {
                  "internalType": "bool",
                  "name": "neg",
                  "type": "bool"
                }
              ],
              "internalType": "struct CommonTypes.BigInt",
              "name": "balance",
              "type": "tuple"
            },
            {
              "components": [
                {
                  "internalType": "bytes",
                  "name": "val",
                  "type": "bytes"
                },
                {
                  "internalType": "bool",
                  "name": "neg",
                  "type": "bool"
                }
              ],
              "internalType": "struct CommonTypes.BigInt",
              "name": "allowance",
              "type": "tuple"
            }
          ],
          "internalType": "struct DataCapTypes.BurnFromReturn",
          "name": "",
          "type": "tuple"
        }
      ],
      "stateMutability": "nonpayable",
      "type": "function"
    },
    {
      "inputs": [
        {
          "components": [
            {
              "components": [
                {
                  "internalType": "bytes",
                  "name": "data",
                  "type": "bytes"
                }
              ],
              "internalType": "struct CommonTypes.FilAddress",
              "name": "operator",
              "type": "tuple"
            },
            {
              "components": [
                {
                  "internalType": "bytes",
                  "name": "val",
                  "type": "bytes"
                },
                {
                  "internalType": "bool",
                  "name": "neg",
                  "type": "bool"
                }
              ],
              "internalType": "struct CommonTypes.BigInt",
              "name": "decrease",
              "type": "tuple"
            }
          ],
          "internalType": "struct DataCapTypes.DecreaseAllowanceParams",
          "name": "params",
          "type": "tuple"
        }
      ],
      "name": "decrease_allowance",
      "outputs": [
        {
          "components": [
            {
              "internalType": "bytes",
              "name": "val",
              "type": "bytes"
            },
            {
              "internalType": "bool",
              "name": "neg",
              "type": "bool"
            }
          ],
          "internalType": "struct CommonTypes.BigInt",
          "name": "",
          "type": "tuple"
        }
      ],
      "stateMutability": "nonpayable",
      "type": "function"
    },
    {
      "inputs": [
        {
          "internalType": "uint64",
          "name": "method",
          "type": "uint64"
        },
        {
          "internalType": "uint64",
          "name": "codec",
          "type": "uint64"
        },
        {
          "internalType": "bytes",
          "name": "params",
          "type": "bytes"
        }
      ],
      "name": "handle_filecoin_method",
      "outputs": [],
      "stateMutability": "pure",
      "type": "function"
    },
    {
      "inputs": [
        {
          "components": [
            {
              "components": [
                {
                  "internalType": "bytes",
                  "name": "data",
                  "type": "bytes"
                }
              ],
              "internalType": "struct CommonTypes.FilAddress",
              "name": "operator",
              "type": "tuple"
            },
            {
              "components": [
                {
                  "internalType": "bytes",
                  "name": "val",
                  "type": "bytes"
                },
                {
                  "internalType": "bool",
                  "name": "neg",
                  "type": "bool"
                }
              ],
              "internalType": "struct CommonTypes.BigInt",
              "name": "increase",
              "type": "tuple"
            }
          ],
          "internalType": "struct DataCapTypes.IncreaseAllowanceParams",
          "name": "params",
          "type": "tuple"
        }
      ],
      "name": "increase_allowance",
      "outputs": [
        {
          "components": [
            {
              "internalType": "bytes",
              "name": "val",
              "type": "bytes"
            },
            {
              "internalType": "bool",
              "name": "neg",
              "type": "bool"
            }
          ],
          "internalType": "struct CommonTypes.BigInt",
          "name": "",
          "type": "tuple"
        }
      ],
      "stateMutability": "nonpayable",
      "type": "function"
    },
    {
      "inputs": [],
      "name": "name",
      "outputs": [
        {
          "internalType": "string",
          "name": "",
          "type": "string"
        }
      ],
      "stateMutability": "nonpayable",
      "type": "function"
    },
    {
      "inputs": [
        {
          "components": [
            {
              "internalType": "bytes",
              "name": "data",
              "type": "bytes"
            }
          ],
          "internalType": "struct CommonTypes.FilAddress",
          "name": "operator",
          "type": "tuple"
        }
      ],
      "name": "revoke_allowance",
      "outputs": [
        {
          "components": [
            {
              "internalType": "bytes",
              "name": "val",
              "type": "bytes"
            },
            {
              "internalType": "bool",
              "name": "neg",
              "type": "bool"
            }
          ],
          "internalType": "struct CommonTypes.BigInt",
          "name": "",
          "type": "tuple"
        }
      ],
      "stateMutability": "nonpayable",
      "type": "function"
    },
    {
      "inputs": [],
      "name": "symbol",
      "outputs": [
        {
          "internalType": "string",
          "name": "",
          "type": "string"
        }
      ],
      "stateMutability": "nonpayable",
      "type": "function"
    },
    {
      "inputs": [],
      "name": "total_supply",
      "outputs": [
        {
          "components": [
            {
              "internalType": "bytes",
              "name": "val",
              "type": "bytes"
            },
            {
              "internalType": "bool",
              "name": "neg",
              "type": "bool"
            }
          ],
          "internalType": "struct CommonTypes.BigInt",
          "name": "",
          "type": "tuple"
        }
      ],
      "stateMutability": "nonpayable",
      "type": "function"
    },
    {
      "inputs": [
        {
          "components": [
            {
              "components": [
                {
                  "internalType": "bytes",
                  "name": "data",
                  "type": "bytes"
                }
              ],
              "internalType": "struct CommonTypes.FilAddress",
              "name": "to",
              "type": "tuple"
            },
            {
              "components": [
                {
                  "internalType": "bytes",
                  "name": "val",
                  "type": "bytes"
                },
                {
                  "internalType": "bool",
                  "name": "neg",
                  "type": "bool"
                }
              ],
              "internalType": "struct CommonTypes.BigInt",
              "name": "amount",
              "type": "tuple"
            },
            {
              "internalType": "bytes",
              "name": "operator_data",
              "type": "bytes"
            }
          ],
          "internalType": "struct DataCapTypes.TransferParams",
          "name": "params",
          "type": "tuple"
        }
      ],
      "name": "transfer",
      "outputs": [
        {
          "components": [
            {
              "components": [
                {
                  "internalType": "bytes",
                  "name": "val",
                  "type": "bytes"
                },
                {
                  "internalType": "bool",
                  "name": "neg",
                  "type": "bool"
                }
              ],
              "internalType": "struct CommonTypes.BigInt",
              "name": "from_balance",
              "type": "tuple"
            },
            {
              "components": [
                {
                  "internalType": "bytes",
                  "name": "val",
                  "type": "bytes"
                },
                {
                  "internalType": "bool",
                  "name": "neg",
                  "type": "bool"
                }
              ],
              "internalType": "struct CommonTypes.BigInt",
              "name": "to_balance",
              "type": "tuple"
            },
            {
              "internalType": "bytes",
              "name": "recipient_data",
              "type": "bytes"
            }
          ],
          "internalType": "struct DataCapTypes.TransferReturn",
          "name": "",
          "type": "tuple"
        }
      ],
      "stateMutability": "nonpayable",
      "type": "function"
    },
    {
      "inputs": [
        {
          "components": [
            {
              "components": [
                {
                  "internalType": "bytes",
                  "name": "data",
                  "type": "bytes"
                }
              ],
              "internalType": "struct CommonTypes.FilAddress",
              "name": "from",
              "type": "tuple"
            },
            {
              "components": [
                {
                  "internalType": "bytes",
                  "name": "data",
                  "type": "bytes"
                }
              ],
              "internalType": "struct CommonTypes.FilAddress",
              "name": "to",
              "type": "tuple"
            },
            {
              "components": [
                {
                  "internalType": "bytes",
                  "name": "val",
                  "type": "bytes"
                },
                {
                  "internalType": "bool",
                  "name": "neg",
                  "type": "bool"
                }
              ],
              "internalType": "struct CommonTypes.BigInt",
              "name": "amount",
              "type": "tuple"
            },
            {
              "internalType": "bytes",
              "name": "operator_data",
              "type": "bytes"
            }
          ],
          "internalType": "struct DataCapTypes.TransferFromParams",
          "name": "params",
          "type": "tuple"
        }
      ],
      "name": "transfer_from",
      "outputs": [
        {
          "components": [
            {
              "components": [
                {
                  "internalType": "bytes",
                  "name": "val",
                  "type": "bytes"
                },
                {
                  "internalType": "bool",
                  "name": "neg",
                  "type": "bool"
                }
              ],
              "internalType": "struct CommonTypes.BigInt",
              "name": "from_balance",
              "type": "tuple"
            },
            {
              "components": [
                {
                  "internalType": "bytes",
                  "name": "val",
                  "type": "bytes"
                },
                {
                  "internalType": "bool",
                  "name": "neg",
                  "type": "bool"
                }
              ],
              "internalType": "struct CommonTypes.BigInt",
              "name": "to_balance",
              "type": "tuple"
            },
            {
              "components": [
                {
                  "internalType": "bytes",
                  "name": "val",
                  "type": "bytes"
                },
                {
                  "internalType": "bool",
                  "name": "neg",
                  "type": "bool"
                }
              ],
              "internalType": "struct CommonTypes.BigInt",
              "name": "allowance",
              "type": "tuple"
            },
            {
              "internalType": "bytes",
              "name": "recipient_data",
              "type": "bytes"
            }
          ],
          "internalType": "struct DataCapTypes.TransferFromReturn",
          "name": "",
          "type": "tuple"
        }
      ],
      "stateMutability": "nonpayable",
      "type": "function"
    }
  ],
  "bytecode": "0x608060405234801561001057600080fd5b50613db3806100206000396000f3fe608060405234801561001057600080fd5b50600436106100cf5760003560e01c806375f293131161008c578063868e10c411610066578063868e10c4146102605780639013a5111461027c57806395d89b41146102ac578063d88fe623146102ca576100cf565b806375f29313146101d057806377898bd514610200578063862aad8814610230576100cf565b806306fdde03146100d457806338f43b6e146100f25780633940e9ee146101225780633c41053a14610140578063446ce9891461017057806355e1c7a3146101a0575b600080fd5b6100dc6102fa565b6040516100e99190612565565b60405180910390f35b61010c6004803603810190610107919061285e565b610309565b6040516101199190612948565b60405180910390f35b61012a610321565b6040516101379190612948565b60405180910390f35b61015a600480360381019061015591906129f2565b610336565b6040516101679190612948565b60405180910390f35b61018a60048036038101906101859190612a3b565b61034e565b6040516101979190612948565b60405180910390f35b6101ba60048036038101906101b59190612a3b565b610366565b6040516101c79190612948565b60405180910390f35b6101ea60048036038101906101e59190612b6c565b61037e565b6040516101f79190612c6a565b60405180910390f35b61021a60048036038101906102159190612c8c565b610396565b6040516102279190612948565b60405180910390f35b61024a60048036038101906102459190612d5d565b6103ae565b6040516102579190612948565b60405180910390f35b61027a60048036038101906102759190612e46565b6103c6565b005b61029660048036038101906102919190612f72565b6103d9565b6040516102a39190613019565b60405180910390f35b6102b46103f1565b6040516102c19190612565565b60405180910390f35b6102e460048036038101906102df91906130c3565b610400565b6040516102f19190613150565b60405180910390f35b6060610304610418565b905090565b6103116123d2565b61031a82610495565b9050919050565b6103296123d2565b6103316104d5565b905090565b61033e6123d2565b61034782610558565b9050919050565b6103566123d2565b61035f82610599565b9050919050565b61036e6123d2565b610377826105da565b9050919050565b6103866123ee565b61038f8261061a565b9050919050565b61039e6123d2565b6103a78261065a565b9050919050565b6103b66123d2565b6103bf8261069a565b9050919050565b6103d2848484846106da565b5050505050565b6103e1612428565b6103ea826107e5565b9050919050565b60606103fb610825565b905090565b610408612455565b610411826108a2565b9050919050565b606060008067ffffffffffffffff811115610436576104356125a0565b5b6040519080825280601f01601f1916602001820160405280156104685781602001600182028036833780820191505090505b509050600061048360076302ea015c600085600060016108e2565b905061048e81610a37565b9250505090565b61049d6123d2565b60006104a883610a61565b905060006104c16007635b286f216051856000806108e2565b90506104cc81610ad0565b92505050919050565b6104dd6123d2565b60008067ffffffffffffffff8111156104f9576104f86125a0565b5b6040519080825280601f01601f19166020018201604052801561052b5781602001600182028036833780820191505090505b509050600061054660076306da7a35600085600060016108e2565b905061055181610ad0565b9250505090565b6105606123d2565b600061056b83610b8c565b90506000610585600763faa45236605185600060016108e2565b905061059081610ad0565b92505050919050565b6105a16123d2565b60006105ac83610bf7565b905060006105c6600763c26ddbd5605185600060016108e2565b90506105d181610ad0565b92505050919050565b6105e26123d2565b60006105ed83610c2f565b90506000610606600763a4d840b16051856000806108e2565b905061061181610ad0565b92505050919050565b6106226123ee565b600061062d83610c7b565b90506000610646600763d7d4deed6051856000806108e2565b905061065181610d1c565b92505050919050565b6106626123d2565b600061066d83610e00565b905060006106866007635584159a6051856000806108e2565b905061069181610e50565b92505050919050565b6106a26123d2565b60006106ad83610eb7565b905060006106c660076369ecb9186051856000806108e2565b90506106d181610ad0565b92505050919050565b6106e261247b565b63de180de38567ffffffffffffffff16036107a257605167ffffffffffffffff168467ffffffffffffffff161461074e576040517f08c379a0000000000000000000000000000000000000000000000000000000008152600401610745906131e4565b60405180910390fd5b61079b83838080601f016020809104026020016040519081016040528093929190818152602001838380828437600081840152601f19601f82011690508083019250505050505050610f26565b90506107dd565b6040517f08c379a00000000000000000000000000000000000000000000000000000000081526004016107d490613276565b60405180910390fd5b949350505050565b6107ed612428565b60006107f883610fe1565b9050600061081160076304cbf7326051856000806108e2565b905061081c81611067565b92505050919050565b606060008067ffffffffffffffff811115610843576108426125a0565b5b6040519080825280601f01601f1916602001820160405280156108755781602001600182028036833780820191505090505b50905060006108906007637adab63e600085600060016108e2565b905061089b81610a37565b9250505090565b6108aa612455565b60006108b58361111f565b905060006108ce600763b19a37a26051856000806108e2565b90506108d98161118e565b92505050919050565b60606000479050838110156109305780846040517f8f0f42060000000000000000000000000000000000000000000000000000000081526004016109279291906132af565b60405180910390fd5b60008073fe0000000000000000000000000000000000000573ffffffffffffffffffffffffffffffffffffffff1689878761096c57600061096f565b60015b8b8b8f6040516020016109879695949392919061336c565b6040516020818303038152906040526040516109a39190613410565b600060405180830381855af49150503d80600081146109de576040519150601f19603f3d011682016040523d82523d6000602084013e6109e3565b606091505b509150915081610a1f576040517f8a7db5bf00000000000000000000000000000000000000000000000000000000815260040160405180910390fd5b610a2881611227565b93505050509695505050505050565b6060806000610a4f81856113ae90919063ffffffff16565b80925081935050508192505050919050565b60606000610a6f6040611530565b9050610a8560028261155790919063ffffffff16565b610aa08360000151600001518261156790919063ffffffff16565b610abf610ab08460200151611590565b8261156790919063ffffffff16565b610ac8816116fd565b915050919050565b610ad86123d2565b606060008084511115610b1d57610af8818561175690919063ffffffff16565b8092508193505050600082511115610b1c57610b1382611932565b92505050610b87565b5b6040518060400160405280600067ffffffffffffffff811115610b4357610b426125a0565b5b6040519080825280601f01601f191660200182016040528015610b755781602001600182028036833780820191505090505b50815260200160001515815250925050505b919050565b60606000610b9a6040611530565b9050610bb060028261155790919063ffffffff16565b610bcb8360000151600001518261156790919063ffffffff16565b610be68360200151600001518261156790919063ffffffff16565b610bef816116fd565b915050919050565b60606000610c056040611530565b9050610c1e83600001518261156790919063ffffffff16565b610c27816116fd565b915050919050565b60606000610c3d6040611530565b9050610c5360018261155790919063ffffffff16565b610c6a83600001518261156790919063ffffffff16565b610c73816116fd565b915050919050565b60606000610c896040611530565b9050610c9f60048261155790919063ffffffff16565b610cba8360000151600001518261156790919063ffffffff16565b610cd58360200151600001518261156790919063ffffffff16565b610cf4610ce58460400151611590565b8261156790919063ffffffff16565b610d0b83606001518261156790919063ffffffff16565b610d14816116fd565b915050919050565b610d246123ee565b6000806060610d3c8386611ad990919063ffffffff16565b809450819350505060048214610d5557610d54613427565b5b610d68838661175690919063ffffffff16565b8094508192505050610d7981611932565b8460000181905250610d94838661175690919063ffffffff16565b8094508192505050610da581611932565b8460200181905250610dc0838661175690919063ffffffff16565b8094508192505050610dd181611932565b8460400181905250610dec838661175690919063ffffffff16565b856060018195508290525050505050919050565b60606000610e0e6040611530565b9050610e2460018261155790919063ffffffff16565b610e3f610e3084611590565b8261156790919063ffffffff16565b610e48816116fd565b915050919050565b610e586123d2565b6000806060610e708386611ad990919063ffffffff16565b809450819350505060018214610e8957610e88613427565b5b610e9c838661175690919063ffffffff16565b8094508192505050610ead81611932565b9350505050919050565b60606000610ec56040611530565b9050610edb60028261155790919063ffffffff16565b610ef68360000151600001518261156790919063ffffffff16565b610f15610f068460200151611590565b8261156790919063ffffffff16565b610f1e816116fd565b915050919050565b610f2e61247b565b600080610f448285611ad990919063ffffffff16565b809350819250505060028114610f8f576040517f08c379a0000000000000000000000000000000000000000000000000000000008152600401610f86906134c8565b60405180910390fd5b610fa28285611b5a90919063ffffffff16565b846000018194508263ffffffff1663ffffffff168152505050610fce828561175690919063ffffffff16565b8460200181945082905250505050919050565b60606000610fef6040611530565b905061100560038261155790919063ffffffff16565b6110208360000151600001518261156790919063ffffffff16565b61103f6110308460200151611590565b8261156790919063ffffffff16565b61105683604001518261156790919063ffffffff16565b61105f816116fd565b915050919050565b61106f612428565b60008060606110878386611ad990919063ffffffff16565b8094508193505050600382146110a05761109f613427565b5b6110b3838661175690919063ffffffff16565b80945081925050506110c481611932565b84600001819052506110df838661175690919063ffffffff16565b80945081925050506110f081611932565b846020018190525061110b838661175690919063ffffffff16565b856040018195508290525050505050919050565b6060600061112d6040611530565b905061114360028261155790919063ffffffff16565b61115e8360000151600001518261156790919063ffffffff16565b61117d61116e8460200151611590565b8261156790919063ffffffff16565b611186816116fd565b915050919050565b611196612455565b60008060606111ae8386611ad990919063ffffffff16565b8094508193505050600282146111c7576111c6613427565b5b6111da838661175690919063ffffffff16565b80945081925050506111eb81611932565b8460000181905250611206838661175690919063ffffffff16565b809450819250505061121781611932565b8460200181905250505050919050565b606060008060008480602001905181019061124291906135a3565b925092509250600067ffffffffffffffff168267ffffffffffffffff16036112a457600081511461129f576040517f0e74990700000000000000000000000000000000000000000000000000000000815260040160405180910390fd5b61135e565b605167ffffffffffffffff168267ffffffffffffffff1614806112db5750607167ffffffffffffffff168267ffffffffffffffff16145b1561132057600081510361131b576040517f0e74990700000000000000000000000000000000000000000000000000000000815260040160405180910390fd5b61135d565b816040517ff1f6bced0000000000000000000000000000000000000000000000000000000081526004016113549190613612565b60405180910390fd5b5b600083146113a357826040517fd4bb667100000000000000000000000000000000000000000000000000000000815260040161139a919061363c565b60405180910390fd5b809350505050919050565b606060008060006113bf8686611bdb565b8167ffffffffffffffff169150809750819350829450505050600360ff168260ff1614611421576040517f08c379a0000000000000000000000000000000000000000000000000000000008152600401611418906136c9565b60405180910390fd5b6000818661142f9190613718565b905060008267ffffffffffffffff81111561144d5761144c6125a0565b5b6040519080825280601f01601f19166020018201604052801561147f5781602001600182028036833780820191505090505b5090506000808890505b83811015611512578981815181106114a4576114a361374c565b5b602001015160f81c60f81b8383815181106114c2576114c161374c565b5b60200101907effffffffffffffffffffffffffffffffffffffffffffffffffffffffffffff1916908160001a90535081806114fc9061377b565b925050808061150a9061377b565b915050611489565b508184896115209190613718565b9650965050505050509250929050565b61153861249b565b611546816000015183611dcd565b506000816020018181525050919050565b61156382600483611e46565b5050565b6115748260028351611e56565b61158b818360000151611fff90919063ffffffff16565b505050565b6060600060018360000151516115a69190613718565b67ffffffffffffffff8111156115bf576115be6125a0565b5b6040519080825280601f01601f1916602001820160405280156115f15781602001600182028036833780820191505090505b50905060011515836020015115151461160e57600060f81b611614565b600160f81b5b816000815181106116285761162761374c565b5b60200101907effffffffffffffffffffffffffffffffffffffffffffffffffffffffffffff1916908160001a90535060006001905060005b8460000151518110156116f257846000015181815181106116845761168361374c565b5b602001015160f81c60f81b8383815181106116a2576116a161374c565b5b60200101907effffffffffffffffffffffffffffffffffffffffffffffffffffffffffffff1916908160001a90535081806116dc9061377b565b92505080806116ea9061377b565b915050611660565b508192505050919050565b60606000826020015114611746576040517f08c379a000000000000000000000000000000000000000000000000000000000815260040161173d9061380f565b60405180910390fd5b8160000151600001519050919050565b606060008060006117678686611bdb565b8167ffffffffffffffff169150809750819350829450505050600660ff168260ff16148061179b5750600260ff168260ff16145b6117da576040517f08c379a00000000000000000000000000000000000000000000000000000000081526004016117d1906138a1565b60405180910390fd5b600660ff168260ff1603611823576117f28686611bdb565b8167ffffffffffffffff169150809750819350829450505050600260ff168260ff161461182257611821613427565b5b5b600081866118319190613718565b905060008267ffffffffffffffff81111561184f5761184e6125a0565b5b6040519080825280601f01601f1916602001820160405280156118815781602001600182028036833780820191505090505b5090506000808890505b83811015611914578981815181106118a6576118a561374c565b5b602001015160f81c60f81b8383815181106118c4576118c361374c565b5b60200101907effffffffffffffffffffffffffffffffffffffffffffffffffffffffffffff1916908160001a90535081806118fe9061377b565b925050808061190c9061377b565b91505061188b565b508184896119229190613718565b9650965050505050509250929050565b61193a6123d2565b600082510361197857604051806040016040528060405180604001604052806001815260200160008152508152602001600015158152509050611ad4565b60006001835161198891906138c1565b67ffffffffffffffff8111156119a1576119a06125a0565b5b6040519080825280601f01601f1916602001820160405280156119d35781602001600182028036833780820191505090505b5090506000600160f81b846000815181106119f1576119f061374c565b5b602001015160f81c60f81b7effffffffffffffffffffffffffffffffffffffffffffffffffffffffffffff191603611a2857600190505b6000600190505b8451811015611ab757848181518110611a4b57611a4a61374c565b5b602001015160f81c60f81b83600183611a6491906138c1565b81518110611a7557611a7461374c565b5b60200101907effffffffffffffffffffffffffffffffffffffffffffffffffffffffffffff1916908160001a9053508080611aaf9061377b565b915050611a2f565b506040518060400160405280838152602001821515815250925050505b919050565b600080600080611ae98686611bdb565b8167ffffffffffffffff169150809750819350829450505050600460ff168260ff1614611b4b576040517f08c379a0000000000000000000000000000000000000000000000000000000008152600401611b4290613941565b60405180910390fd5b80859350935050509250929050565b600080600080611b6a8686611bdb565b8167ffffffffffffffff169150809750819350829450505050600060ff168260ff1614611bcc576040517f08c379a0000000000000000000000000000000000000000000000000000000008152600401611bc3906139d3565b60405180910390fd5b80859350935050509250929050565b600080600080611beb868661201b565b9050600185611bfa9190613718565b94506000600560e0831660ff16901c90506000601f83169050601c8160ff1610611c59576040517f08c379a0000000000000000000000000000000000000000000000000000000008152600401611c5090613a65565b60405180910390fd5b60188160ff161015611c7c578181888160ff169150955095509550505050611dc6565b60188160ff1603611d03576000611c93898961201b565b9050600188611ca29190613718565b975060188160ff161015611ceb576040517f08c379a0000000000000000000000000000000000000000000000000000000008152600401611ce290613ad1565b60405180910390fd5b8281898160ff16915096509650965050505050611dc6565b60198160ff1603611d44576000611d1a8989612096565b9050600288611d299190613718565b97508281898161ffff16915096509650965050505050611dc6565b601a8160ff1603611d87576000611d5b8989612100565b9050600488611d6a9190613718565b97508281898163ffffffff16915096509650965050505050611dc6565b601b8160ff1614611d9b57611d9a613427565b5b6000611da7898961216a565b9050600888611db69190613718565b9750828189965096509650505050505b9250925092565b611dd56124bb565b6000602083611de49190613b20565b14611e1057602082611df69190613b20565b6020611e0291906138c1565b82611e0d9190613718565b91505b818360200181815250506040518084526000815282810160200181811015611e3757600080fd5b80604052505082905092915050565b611e51838383611e56565b505050565b60178167ffffffffffffffff1611611e9157611e8b8160058460ff16901b60ff161784600001516121d490919063ffffffff16565b50611ffa565b60ff8167ffffffffffffffff1611611eef57611ec4601860058460ff16901b1784600001516121d490919063ffffffff16565b50611ee98167ffffffffffffffff166001856000015161223e9092919063ffffffff16565b50611ff9565b61ffff8167ffffffffffffffff1611611f4e57611f23601960058460ff16901b1784600001516121d490919063ffffffff16565b50611f488167ffffffffffffffff166002856000015161223e9092919063ffffffff16565b50611ff8565b63ffffffff8167ffffffffffffffff1611611faf57611f84601a60058460ff16901b1784600001516121d490919063ffffffff16565b50611fa98167ffffffffffffffff166004856000015161223e9092919063ffffffff16565b50611ff7565b611fd0601b60058460ff16901b1784600001516121d490919063ffffffff16565b50611ff58167ffffffffffffffff166008856000015161223e9092919063ffffffff16565b505b5b5b5b505050565b6120076124bb565b612013838384516122cb565b905092915050565b600060018261202a9190613718565b8351101561206d576040517f08c379a000000000000000000000000000000000000000000000000000000000815260040161206490613b9d565b60405180910390fd5b8282815181106120805761207f61374c565b5b602001015160f81c60f81b60f81c905092915050565b60006002826120a59190613718565b835110156120e8576040517f08c379a00000000000000000000000000000000000000000000000000000000081526004016120df90613b9d565b60405180910390fd5b60008260200184015190508060f01c91505092915050565b600060048261210f9190613718565b83511015612152576040517f08c379a000000000000000000000000000000000000000000000000000000000815260040161214990613b9d565b60405180910390fd5b60008260200184015190508060e01c91505092915050565b60006008826121799190613718565b835110156121bc576040517f08c379a00000000000000000000000000000000000000000000000000000000081526004016121b390613b9d565b60405180910390fd5b60008260200184015190508060c01c91505092915050565b6121dc6124bb565b6000836000015151905060006001826121f59190613718565b90508460200151821061221957612218856002836122139190613bbd565b6123ae565b5b84516020838201018581538151831115612231578282525b5050849250505092915050565b6122466124bb565b600084600001515190506000818461225e9190613718565b90508560200151811115612283576122828660028361227d9190613bbd565b6123ae565b5b60006001856101006122959190613d32565b61229f91906138c1565b9050865182810187831982511617815281518411156122bc578382525b50508693505050509392505050565b6122d36124bb565b82518211156122e157600080fd5b60008460000151519050600083826122f99190613718565b9050856020015181111561231e5761231d866002836123189190613bbd565b6123ae565b5b60008087518051856020830101935080851115612339578482525b60208901925050505b60208610612380578051825260208261235b9190613718565b915060208161236a9190613718565b905060208661237991906138c1565b9550612342565b60006001876020036101000a0390508019825116818451168181178552505050879450505050509392505050565b6000826000015190506123c18383611dcd565b506123cc8382611fff565b50505050565b6040518060400160405280606081526020016000151581525090565b60405180608001604052806124016123d2565b815260200161240e6123d2565b815260200161241b6123d2565b8152602001606081525090565b604051806060016040528061243b6123d2565b81526020016124486123d2565b8152602001606081525090565b60405180604001604052806124686123d2565b81526020016124756123d2565b81525090565b6040518060400160405280600063ffffffff168152602001606081525090565b60405180604001604052806124ae6124bb565b8152602001600081525090565b604051806040016040528060608152602001600081525090565b600081519050919050565b600082825260208201905092915050565b60005b8381101561250f5780820151818401526020810190506124f4565b60008484015250505050565b6000601f19601f8301169050919050565b6000612537826124d5565b61254181856124e0565b93506125518185602086016124f1565b61255a8161251b565b840191505092915050565b6000602082019050818103600083015261257f818461252c565b905092915050565b6000604051905090565b600080fd5b600080fd5b600080fd5b7f4e487b7100000000000000000000000000000000000000000000000000000000600052604160045260246000fd5b6125d88261251b565b810181811067ffffffffffffffff821117156125f7576125f66125a0565b5b80604052505050565b600061260a612587565b905061261682826125cf565b919050565b600080fd5b600080fd5b600080fd5b600067ffffffffffffffff821115612645576126446125a0565b5b61264e8261251b565b9050602081019050919050565b82818337600083830152505050565b600061267d6126788461262a565b612600565b90508281526020810184848401111561269957612698612625565b5b6126a484828561265b565b509392505050565b600082601f8301126126c1576126c0612620565b5b81356126d184826020860161266a565b91505092915050565b6000602082840312156126f0576126ef61259b565b5b6126fa6020612600565b9050600082013567ffffffffffffffff81111561271a5761271961261b565b5b612726848285016126ac565b60008301525092915050565b60008115159050919050565b61274781612732565b811461275257600080fd5b50565b6000813590506127648161273e565b92915050565b6000604082840312156127805761277f61259b565b5b61278a6040612600565b9050600082013567ffffffffffffffff8111156127aa576127a961261b565b5b6127b6848285016126ac565b60008301525060206127ca84828501612755565b60208301525092915050565b6000604082840312156127ec576127eb61259b565b5b6127f66040612600565b9050600082013567ffffffffffffffff8111156128165761281561261b565b5b612822848285016126da565b600083015250602082013567ffffffffffffffff8111156128465761284561261b565b5b6128528482850161276a565b60208301525092915050565b60006020828403121561287457612873612591565b5b600082013567ffffffffffffffff81111561289257612891612596565b5b61289e848285016127d6565b91505092915050565b600081519050919050565b600082825260208201905092915050565b60006128ce826128a7565b6128d881856128b2565b93506128e88185602086016124f1565b6128f18161251b565b840191505092915050565b61290581612732565b82525050565b6000604083016000830151848203600086015261292882826128c3565b915050602083015161293d60208601826128fc565b508091505092915050565b60006020820190508181036000830152612962818461290b565b905092915050565b6000604082840312156129805761297f61259b565b5b61298a6040612600565b9050600082013567ffffffffffffffff8111156129aa576129a961261b565b5b6129b6848285016126da565b600083015250602082013567ffffffffffffffff8111156129da576129d961261b565b5b6129e6848285016126da565b60208301525092915050565b600060208284031215612a0857612a07612591565b5b600082013567ffffffffffffffff811115612a2657612a25612596565b5b612a328482850161296a565b91505092915050565b600060208284031215612a5157612a50612591565b5b600082013567ffffffffffffffff811115612a6f57612a6e612596565b5b612a7b848285016126da565b91505092915050565b600060808284031215612a9a57612a9961259b565b5b612aa46080612600565b9050600082013567ffffffffffffffff811115612ac457612ac361261b565b5b612ad0848285016126da565b600083015250602082013567ffffffffffffffff811115612af457612af361261b565b5b612b00848285016126da565b602083015250604082013567ffffffffffffffff811115612b2457612b2361261b565b5b612b308482850161276a565b604083015250606082013567ffffffffffffffff811115612b5457612b5361261b565b5b612b60848285016126ac565b60608301525092915050565b600060208284031215612b8257612b81612591565b5b600082013567ffffffffffffffff811115612ba057612b9f612596565b5b612bac84828501612a84565b91505092915050565b60006040830160008301518482036000860152612bd282826128c3565b9150506020830151612be760208601826128fc565b508091505092915050565b60006080830160008301518482036000860152612c0f8282612bb5565b91505060208301518482036020860152612c298282612bb5565b91505060408301518482036040860152612c438282612bb5565b91505060608301518482036060860152612c5d82826128c3565b9150508091505092915050565b60006020820190508181036000830152612c848184612bf2565b905092915050565b600060208284031215612ca257612ca1612591565b5b600082013567ffffffffffffffff811115612cc057612cbf612596565b5b612ccc8482850161276a565b91505092915050565b600060408284031215612ceb57612cea61259b565b5b612cf56040612600565b9050600082013567ffffffffffffffff811115612d1557612d1461261b565b5b612d21848285016126da565b600083015250602082013567ffffffffffffffff811115612d4557612d4461261b565b5b612d518482850161276a565b60208301525092915050565b600060208284031215612d7357612d72612591565b5b600082013567ffffffffffffffff811115612d9157612d90612596565b5b612d9d84828501612cd5565b91505092915050565b600067ffffffffffffffff82169050919050565b612dc381612da6565b8114612dce57600080fd5b50565b600081359050612de081612dba565b92915050565b600080fd5b600080fd5b60008083601f840112612e0657612e05612620565b5b8235905067ffffffffffffffff811115612e2357612e22612de6565b5b602083019150836001820283011115612e3f57612e3e612deb565b5b9250929050565b60008060008060608587031215612e6057612e5f612591565b5b6000612e6e87828801612dd1565b9450506020612e7f87828801612dd1565b935050604085013567ffffffffffffffff811115612ea057612e9f612596565b5b612eac87828801612df0565b925092505092959194509250565b600060608284031215612ed057612ecf61259b565b5b612eda6060612600565b9050600082013567ffffffffffffffff811115612efa57612ef961261b565b5b612f06848285016126da565b600083015250602082013567ffffffffffffffff811115612f2a57612f2961261b565b5b612f368482850161276a565b602083015250604082013567ffffffffffffffff811115612f5a57612f5961261b565b5b612f66848285016126ac565b60408301525092915050565b600060208284031215612f8857612f87612591565b5b600082013567ffffffffffffffff811115612fa657612fa5612596565b5b612fb284828501612eba565b91505092915050565b60006060830160008301518482036000860152612fd88282612bb5565b91505060208301518482036020860152612ff28282612bb5565b9150506040830151848203604086015261300c82826128c3565b9150508091505092915050565b600060208201905081810360008301526130338184612fbb565b905092915050565b6000604082840312156130515761305061259b565b5b61305b6040612600565b9050600082013567ffffffffffffffff81111561307b5761307a61261b565b5b613087848285016126da565b600083015250602082013567ffffffffffffffff8111156130ab576130aa61261b565b5b6130b78482850161276a565b60208301525092915050565b6000602082840312156130d9576130d8612591565b5b600082013567ffffffffffffffff8111156130f7576130f6612596565b5b6131038482850161303b565b91505092915050565b600060408301600083015184820360008601526131298282612bb5565b915050602083015184820360208601526131438282612bb5565b9150508091505092915050565b6000602082019050818103600083015261316a818461310c565b905092915050565b7f496e636f727265637420636f64656320286578706563746564204441475f434260008201527f4f525f434f444543290000000000000000000000000000000000000000000000602082015250565b60006131ce6029836124e0565b91506131d982613172565b604082019050919050565b600060208201905081810360008301526131fd816131c1565b9050919050565b7f7468652066696c65636f696e206d6574686f642074686174207761732063616c60008201527f6c6564206973206e6f742068616e646c65640000000000000000000000000000602082015250565b60006132606032836124e0565b915061326b82613204565b604082019050919050565b6000602082019050818103600083015261328f81613253565b9050919050565b6000819050919050565b6132a981613296565b82525050565b60006040820190506132c460008301856132a0565b6132d160208301846132a0565b9392505050565b6132e181612da6565b82525050565b600082825260208201905092915050565b6000613303826128a7565b61330d81856132e7565b935061331d8185602086016124f1565b6133268161251b565b840191505092915050565b6000819050919050565b600061335661335161334c84612da6565b613331565b612da6565b9050919050565b6133668161333b565b82525050565b600060c08201905061338160008301896132d8565b61338e60208301886132a0565b61339b60408301876132d8565b6133a860608301866132d8565b81810360808301526133ba81856132f8565b90506133c960a083018461335d565b979650505050505050565b600081905092915050565b60006133ea826128a7565b6133f481856133d4565b93506134048185602086016124f1565b80840191505092915050565b600061341c82846133df565b915081905092915050565b7f4e487b7100000000000000000000000000000000000000000000000000000000600052600160045260246000fd5b7f57726f6e67206e756d62657273206f6620706172616d6574657273202873686f60008201527f756c642066696e64203229000000000000000000000000000000000000000000602082015250565b60006134b2602b836124e0565b91506134bd82613456565b604082019050919050565b600060208201905081810360008301526134e1816134a5565b9050919050565b6000819050919050565b6134fb816134e8565b811461350657600080fd5b50565b600081519050613518816134f2565b92915050565b60008151905061352d81612dba565b92915050565b60006135466135418461262a565b612600565b90508281526020810184848401111561356257613561612625565b5b61356d8482856124f1565b509392505050565b600082601f83011261358a57613589612620565b5b815161359a848260208601613533565b91505092915050565b6000806000606084860312156135bc576135bb612591565b5b60006135ca86828701613509565b93505060206135db8682870161351e565b925050604084015167ffffffffffffffff8111156135fc576135fb612596565b5b61360886828701613575565b9150509250925092565b600060208201905061362760008301846132d8565b92915050565b613636816134e8565b82525050565b6000602082019050613651600083018461362d565b92915050565b7f696e76616c6964206d616a20286578706563746564204d616a5465787453747260008201527f696e672900000000000000000000000000000000000000000000000000000000602082015250565b60006136b36024836124e0565b91506136be82613657565b604082019050919050565b600060208201905081810360008301526136e2816136a6565b9050919050565b7f4e487b7100000000000000000000000000000000000000000000000000000000600052601160045260246000fd5b600061372382613296565b915061372e83613296565b9250828201905080821115613746576137456136e9565b5b92915050565b7f4e487b7100000000000000000000000000000000000000000000000000000000600052603260045260246000fd5b600061378682613296565b91507fffffffffffffffffffffffffffffffffffffffffffffffffffffffffffffffff82036137b8576137b76136e9565b5b600182019050919050565b7f496e76616c69642043424f520000000000000000000000000000000000000000600082015250565b60006137f9600c836124e0565b9150613804826137c3565b602082019050919050565b60006020820190508181036000830152613828816137ec565b9050919050565b7f696e76616c6964206d616a20286578706563746564204d616a546167206f722060008201527f4d616a42797465537472696e6729000000000000000000000000000000000000602082015250565b600061388b602e836124e0565b91506138968261382f565b604082019050919050565b600060208201905081810360008301526138ba8161387e565b9050919050565b60006138cc82613296565b91506138d783613296565b92508282039050818111156138ef576138ee6136e9565b5b92915050565b7f696e76616c6964206d616a20286578706563746564204d616a41727261792900600082015250565b600061392b601f836124e0565b9150613936826138f5565b602082019050919050565b6000602082019050818103600083015261395a8161391e565b9050919050565b7f696e76616c6964206d616a20286578706563746564204d616a556e7369676e6560008201527f64496e7429000000000000000000000000000000000000000000000000000000602082015250565b60006139bd6025836124e0565b91506139c882613961565b604082019050919050565b600060208201905081810360008301526139ec816139b0565b9050919050565b7f63616e6e6f742068616e646c652068656164657273207769746820657874726160008201527f203e203237000000000000000000000000000000000000000000000000000000602082015250565b6000613a4f6025836124e0565b9150613a5a826139f3565b604082019050919050565b60006020820190508181036000830152613a7e81613a42565b9050919050565b7f696e76616c69642063626f720000000000000000000000000000000000000000600082015250565b6000613abb600c836124e0565b9150613ac682613a85565b602082019050919050565b60006020820190508181036000830152613aea81613aae565b9050919050565b7f4e487b7100000000000000000000000000000000000000000000000000000000600052601260045260246000fd5b6000613b2b82613296565b9150613b3683613296565b925082613b4657613b45613af1565b5b828206905092915050565b7f736c6963696e67206f7574206f662072616e6765000000000000000000000000600082015250565b6000613b876014836124e0565b9150613b9282613b51565b602082019050919050565b60006020820190508181036000830152613bb681613b7a565b9050919050565b6000613bc882613296565b9150613bd383613296565b9250828202613be181613296565b91508282048414831517613bf857613bf76136e9565b5b5092915050565b60008160011c9050919050565b6000808291508390505b6001851115613c5657808604811115613c3257613c316136e9565b5b6001851615613c415780820291505b8081029050613c4f85613bff565b9450613c16565b94509492505050565b600082613c6f5760019050613d2b565b81613c7d5760009050613d2b565b8160018114613c935760028114613c9d57613ccc565b6001915050613d2b565b60ff841115613caf57613cae6136e9565b5b8360020a915084821115613cc657613cc56136e9565b5b50613d2b565b5060208310610133831016604e8410600b8410161715613d015782820a905083811115613cfc57613cfb6136e9565b5b613d2b565b613d0e8484846001613c0c565b92509050818404811115613d2557613d246136e9565b5b81810290505b9392505050565b6000613d3d82613296565b9150613d4883613296565b9250613d757fffffffffffffffffffffffffffffffffffffffffffffffffffffffffffffffff8484613c5f565b90509291505056fea264697066735822122092893ef3385d2fc21bc698fb630d0015b0bee6f03204e8ce7b73729df2d5a57464736f6c63430008110033",
  "linkReferences": {},
  "deployedLinkReferences": {}
}