{
  "_format": "hh-sol-artifact-1",
  "contractName": "AddressTest",
  "sourceName": "contracts/zondax/filecoin-solidity/contracts/v0.8/tests/address.test.sol",
  "abi": [
    {
      "inputs": [],
      "name": "actorid_conversion",
      "outputs": [],
      "stateMutability": "pure",
      "type": "function"
    }
  ],
  "bytecode": "0x608060405234801561001057600080fd5b506106ab806100206000396000f3fe608060405234801561001057600080fd5b506004361061002b5760003560e01c8063a0a8664714610030575b600080fd5b61003861003a565b005b600060019050600061004b826100be565b90507f49d03a195e239b52779866b33024210fc7dc66e9c2998975c0aa45c1702549d5816000015180519060200120146100ba576040517f08c379a00000000000000000000000000000000000000000000000000000000081526004016100b190610448565b60405180910390fd5b5050565b6100c6610398565b60006100d18361010d565b9050604051806020016040528082600001516040516020016100f39190610510565b604051602081830303815290604052815250915050919050565b6101156103ab565b61011d6103ab565b5b60011561018b576000607f8416905060078467ffffffffffffffff16901c935060008467ffffffffffffffff160361016e57610163818361019290919063ffffffff16565b50819250505061018d565b610184608082178361019290919063ffffffff16565b505061011e565b505b919050565b61019a6103ab565b6000836000015151905060006001826101b3919061056b565b9050846020015182106101d7576101d6856002836101d1919061059f565b6101fc565b5b845160208382010185815381518311156101ef578282525b5050849250505092915050565b60008260000151905061020f8383610220565b5061021a8382610299565b50505050565b6102286103ab565b60006020836102379190610610565b14610263576020826102499190610610565b60206102559190610641565b82610260919061056b565b91505b81836020018181525050604051808452600081528281016020018181101561028a57600080fd5b80604052505082905092915050565b6102a16103ab565b6102ad838384516102b5565b905092915050565b6102bd6103ab565b82518211156102cb57600080fd5b60008460000151519050600083826102e3919061056b565b905085602001518111156103085761030786600283610302919061059f565b6101fc565b5b60008087518051856020830101935080851115610323578482525b60208901925050505b6020861061036a5780518252602082610345919061056b565b9150602081610354919061056b565b90506020866103639190610641565b955061032c565b60006001876020036101000a0390508019825116818451168181178552505050879450505050509392505050565b6040518060200160405280606081525090565b604051806040016040528060608152602001600081525090565b600082825260208201905092915050565b7f273127206163746f724944206973206e6f742072657475726e696e672027303060008201527f3031270000000000000000000000000000000000000000000000000000000000602082015250565b60006104326023836103c5565b915061043d826103d6565b604082019050919050565b6000602082019050818103600083015261046181610425565b9050919050565b600081905092915050565b60008082015250565b6000610489600183610468565b915061049482610473565b600182019050919050565b600081519050919050565b600081905092915050565b60005b838110156104d35780820151818401526020810190506104b8565b60008484015250505050565b60006104ea8261049f565b6104f481856104aa565b93506105048185602086016104b5565b80840191505092915050565b600061051b8261047c565b915061052782846104df565b915081905092915050565b6000819050919050565b7f4e487b7100000000000000000000000000000000000000000000000000000000600052601160045260246000fd5b600061057682610532565b915061058183610532565b92508282019050808211156105995761059861053c565b5b92915050565b60006105aa82610532565b91506105b583610532565b92508282026105c381610532565b915082820484148315176105da576105d961053c565b5b5092915050565b7f4e487b7100000000000000000000000000000000000000000000000000000000600052601260045260246000fd5b600061061b82610532565b915061062683610532565b925082610636576106356105e1565b5b828206905092915050565b600061064c82610532565b915061065783610532565b925082820390508181111561066f5761066e61053c565b5b9291505056fea2646970667358221220bdfc51f820fd57489630aa4a33e055b3df0653186bcad5e6f478e7698c3995d564736f6c63430008110033",
  "linkReferences": {},
  "deployedLinkReferences": {}
}