{
  "_format": "hh-sol-artifact-1",
  "contractName": "DeptoToken",
  "sourceName": "contracts/DeptoToken.sol",
  "abi": [
    {
      "inputs": [],
      "stateMutability": "nonpayable",
      "type": "constructor"
    },
    {
      "inputs": [],
      "name": "InvalidShortString",
      "type": "error"
    },
    {
      "inputs": [
        {
          "internalType": "string",
          "name": "str",
          "type": "string"
        }
      ],
      "name": "StringTooLong",
      "type": "error"
    },
    {
      "anonymous": false,
      "inputs": [
        {
          "indexed": true,
          "internalType": "address",
          "name": "owner",
          "type": "address"
        },
        {
          "indexed": true,
          "internalType": "address",
          "name": "spender",
          "type": "address"
        },
        {
          "indexed": false,
          "internalType": "uint256",
          "name": "value",
          "type": "uint256"
        }
      ],
      "name": "Approval",
      "type": "event"
    },
    {
      "anonymous": false,
      "inputs": [
        {
          "indexed": true,
          "internalType": "address",
          "name": "delegator",
          "type": "address"
        },
        {
          "indexed": true,
          "internalType": "address",
          "name": "fromDelegate",
          "type": "address"
        },
        {
          "indexed": true,
          "internalType": "address",
          "name": "toDelegate",
          "type": "address"
        }
      ],
      "name": "DelegateChanged",
      "type": "event"
    },
    {
      "anonymous": false,
      "inputs": [
        {
          "indexed": true,
          "internalType": "address",
          "name": "delegate",
          "type": "address"
        },
        {
          "indexed": false,
          "internalType": "uint256",
          "name": "previousBalance",
          "type": "uint256"
        },
        {
          "indexed": false,
          "internalType": "uint256",
          "name": "newBalance",
          "type": "uint256"
        }
      ],
      "name": "DelegateVotesChanged",
      "type": "event"
    },
    {
      "anonymous": false,
      "inputs": [],
      "name": "EIP712DomainChanged",
      "type": "event"
    },
    {
      "anonymous": false,
      "inputs": [
        {
          "indexed": true,
          "internalType": "address",
          "name": "previousOwner",
          "type": "address"
        },
        {
          "indexed": true,
          "internalType": "address",
          "name": "newOwner",
          "type": "address"
        }
      ],
      "name": "OwnershipTransferred",
      "type": "event"
    },
    {
      "anonymous": false,
      "inputs": [
        {
          "indexed": true,
          "internalType": "address",
          "name": "from",
          "type": "address"
        },
        {
          "indexed": true,
          "internalType": "address",
          "name": "to",
          "type": "address"
        },
        {
          "indexed": false,
          "internalType": "uint256",
          "name": "value",
          "type": "uint256"
        }
      ],
      "name": "Transfer",
      "type": "event"
    },
    {
      "inputs": [],
      "name": "CLOCK_MODE",
      "outputs": [
        {
          "internalType": "string",
          "name": "",
          "type": "string"
        }
      ],
      "stateMutability": "view",
      "type": "function"
    },
    {
      "inputs": [],
      "name": "DOMAIN_SEPARATOR",
      "outputs": [
        {
          "internalType": "bytes32",
          "name": "",
          "type": "bytes32"
        }
      ],
      "stateMutability": "view",
      "type": "function"
    },
    {
      "inputs": [
        {
          "internalType": "address",
          "name": "owner",
          "type": "address"
        },
        {
          "internalType": "address",
          "name": "spender",
          "type": "address"
        }
      ],
      "name": "allowance",
      "outputs": [
        {
          "internalType": "uint256",
          "name": "",
          "type": "uint256"
        }
      ],
      "stateMutability": "view",
      "type": "function"
    },
    {
      "inputs": [
        {
          "internalType": "address",
          "name": "spender",
          "type": "address"
        },
        {
          "internalType": "uint256",
          "name": "amount",
          "type": "uint256"
        }
      ],
      "name": "approve",
      "outputs": [
        {
          "internalType": "bool",
          "name": "",
          "type": "bool"
        }
      ],
      "stateMutability": "nonpayable",
      "type": "function"
    },
    {
      "inputs": [
        {
          "internalType": "address",
          "name": "account",
          "type": "address"
        }
      ],
      "name": "balanceOf",
      "outputs": [
        {
          "internalType": "uint256",
          "name": "",
          "type": "uint256"
        }
      ],
      "stateMutability": "view",
      "type": "function"
    },
    {
      "inputs": [
        {
          "internalType": "address",
          "name": "account",
          "type": "address"
        },
        {
          "internalType": "uint32",
          "name": "pos",
          "type": "uint32"
        }
      ],
      "name": "checkpoints",
      "outputs": [
        {
          "components": [
            {
              "internalType": "uint32",
              "name": "fromBlock",
              "type": "uint32"
            },
            {
              "internalType": "uint224",
              "name": "votes",
              "type": "uint224"
            }
          ],
          "internalType": "struct ERC20Votes.Checkpoint",
          "name": "",
          "type": "tuple"
        }
      ],
      "stateMutability": "view",
      "type": "function"
    },
    {
      "inputs": [],
      "name": "clock",
      "outputs": [
        {
          "internalType": "uint48",
          "name": "",
          "type": "uint48"
        }
      ],
      "stateMutability": "view",
      "type": "function"
    },
    {
      "inputs": [],
      "name": "decimals",
      "outputs": [
        {
          "internalType": "uint8",
          "name": "",
          "type": "uint8"
        }
      ],
      "stateMutability": "view",
      "type": "function"
    },
    {
      "inputs": [
        {
          "internalType": "address",
          "name": "spender",
          "type": "address"
        },
        {
          "internalType": "uint256",
          "name": "subtractedValue",
          "type": "uint256"
        }
      ],
      "name": "decreaseAllowance",
      "outputs": [
        {
          "internalType": "bool",
          "name": "",
          "type": "bool"
        }
      ],
      "stateMutability": "nonpayable",
      "type": "function"
    },
    {
      "inputs": [
        {
          "internalType": "address",
          "name": "delegatee",
          "type": "address"
        }
      ],
      "name": "delegate",
      "outputs": [],
      "stateMutability": "nonpayable",
      "type": "function"
    },
    {
      "inputs": [
        {
          "internalType": "address",
          "name": "delegatee",
          "type": "address"
        },
        {
          "internalType": "uint256",
          "name": "nonce",
          "type": "uint256"
        },
        {
          "internalType": "uint256",
          "name": "expiry",
          "type": "uint256"
        },
        {
          "internalType": "uint8",
          "name": "v",
          "type": "uint8"
        },
        {
          "internalType": "bytes32",
          "name": "r",
          "type": "bytes32"
        },
        {
          "internalType": "bytes32",
          "name": "s",
          "type": "bytes32"
        }
      ],
      "name": "delegateBySig",
      "outputs": [],
      "stateMutability": "nonpayable",
      "type": "function"
    },
    {
      "inputs": [
        {
          "internalType": "address",
          "name": "account",
          "type": "address"
        }
      ],
      "name": "delegates",
      "outputs": [
        {
          "internalType": "address",
          "name": "",
          "type": "address"
        }
      ],
      "stateMutability": "view",
      "type": "function"
    },
    {
      "inputs": [],
      "name": "eip712Domain",
      "outputs": [
        {
          "internalType": "bytes1",
          "name": "fields",
          "type": "bytes1"
        },
        {
          "internalType": "string",
          "name": "name",
          "type": "string"
        },
        {
          "internalType": "string",
          "name": "version",
          "type": "string"
        },
        {
          "internalType": "uint256",
          "name": "chainId",
          "type": "uint256"
        },
        {
          "internalType": "address",
          "name": "verifyingContract",
          "type": "address"
        },
        {
          "internalType": "bytes32",
          "name": "salt",
          "type": "bytes32"
        },
        {
          "internalType": "uint256[]",
          "name": "extensions",
          "type": "uint256[]"
        }
      ],
      "stateMutability": "view",
      "type": "function"
    },
    {
      "inputs": [
        {
          "internalType": "uint256",
          "name": "timepoint",
          "type": "uint256"
        }
      ],
      "name": "getPastTotalSupply",
      "outputs": [
        {
          "internalType": "uint256",
          "name": "",
          "type": "uint256"
        }
      ],
      "stateMutability": "view",
      "type": "function"
    },
    {
      "inputs": [
        {
          "internalType": "address",
          "name": "account",
          "type": "address"
        },
        {
          "internalType": "uint256",
          "name": "timepoint",
          "type": "uint256"
        }
      ],
      "name": "getPastVotes",
      "outputs": [
        {
          "internalType": "uint256",
          "name": "",
          "type": "uint256"
        }
      ],
      "stateMutability": "view",
      "type": "function"
    },
    {
      "inputs": [
        {
          "internalType": "address",
          "name": "account",
          "type": "address"
        }
      ],
      "name": "getVotes",
      "outputs": [
        {
          "internalType": "uint256",
          "name": "",
          "type": "uint256"
        }
      ],
      "stateMutability": "view",
      "type": "function"
    },
    {
      "inputs": [
        {
          "internalType": "address",
          "name": "spender",
          "type": "address"
        },
        {
          "internalType": "uint256",
          "name": "addedValue",
          "type": "uint256"
        }
      ],
      "name": "increaseAllowance",
      "outputs": [
        {
          "internalType": "bool",
          "name": "",
          "type": "bool"
        }
      ],
      "stateMutability": "nonpayable",
      "type": "function"
    },
    {
      "inputs": [],
      "name": "name",
      "outputs": [
        {
          "internalType": "string",
          "name": "",
          "type": "string"
        }
      ],
      "stateMutability": "view",
      "type": "function"
    },
    {
      "inputs": [
        {
          "internalType": "address",
          "name": "owner",
          "type": "address"
        }
      ],
      "name": "nonces",
      "outputs": [
        {
          "internalType": "uint256",
          "name": "",
          "type": "uint256"
        }
      ],
      "stateMutability": "view",
      "type": "function"
    },
    {
      "inputs": [
        {
          "internalType": "address",
          "name": "account",
          "type": "address"
        }
      ],
      "name": "numCheckpoints",
      "outputs": [
        {
          "internalType": "uint32",
          "name": "",
          "type": "uint32"
        }
      ],
      "stateMutability": "view",
      "type": "function"
    },
    {
      "inputs": [],
      "name": "owner",
      "outputs": [
        {
          "internalType": "address",
          "name": "",
          "type": "address"
        }
      ],
      "stateMutability": "view",
      "type": "function"
    },
    {
      "inputs": [
        {
          "internalType": "address",
          "name": "owner",
          "type": "address"
        },
        {
          "internalType": "address",
          "name": "spender",
          "type": "address"
        },
        {
          "internalType": "uint256",
          "name": "value",
          "type": "uint256"
        },
        {
          "internalType": "uint256",
          "name": "deadline",
          "type": "uint256"
        },
        {
          "internalType": "uint8",
          "name": "v",
          "type": "uint8"
        },
        {
          "internalType": "bytes32",
          "name": "r",
          "type": "bytes32"
        },
        {
          "internalType": "bytes32",
          "name": "s",
          "type": "bytes32"
        }
      ],
      "name": "permit",
      "outputs": [],
      "stateMutability": "nonpayable",
      "type": "function"
    },
    {
      "inputs": [
        {
          "internalType": "address",
          "name": "memberAddress",
          "type": "address"
        },
        {
          "internalType": "uint256",
          "name": "tokenAmount",
          "type": "uint256"
        }
      ],
      "name": "recruitDAOMember",
      "outputs": [],
      "stateMutability": "nonpayable",
      "type": "function"
    },
    {
      "inputs": [],
      "name": "renounceOwnership",
      "outputs": [],
      "stateMutability": "nonpayable",
      "type": "function"
    },
    {
      "inputs": [],
      "name": "s_maxSupply",
      "outputs": [
        {
          "internalType": "uint256",
          "name": "",
          "type": "uint256"
        }
      ],
      "stateMutability": "view",
      "type": "function"
    },
    {
      "inputs": [],
      "name": "symbol",
      "outputs": [
        {
          "internalType": "string",
          "name": "",
          "type": "string"
        }
      ],
      "stateMutability": "view",
      "type": "function"
    },
    {
      "inputs": [],
      "name": "totalSupply",
      "outputs": [
        {
          "internalType": "uint256",
          "name": "",
          "type": "uint256"
        }
      ],
      "stateMutability": "view",
      "type": "function"
    },
    {
      "inputs": [
        {
          "internalType": "address",
          "name": "",
          "type": "address"
        },
        {
          "internalType": "uint256",
          "name": "",
          "type": "uint256"
        }
      ],
      "name": "transfer",
      "outputs": [
        {
          "internalType": "bool",
          "name": "",
          "type": "bool"
        }
      ],
      "stateMutability": "pure",
      "type": "function"
    },
    {
      "inputs": [
        {
          "internalType": "address",
          "name": "",
          "type": "address"
        },
        {
          "internalType": "address",
          "name": "",
          "type": "address"
        },
        {
          "internalType": "uint256",
          "name": "",
          "type": "uint256"
        }
      ],
      "name": "transferFrom",
      "outputs": [
        {
          "internalType": "bool",
          "name": "",
          "type": "bool"
        }
      ],
      "stateMutability": "pure",
      "type": "function"
    },
    {
      "inputs": [
        {
          "internalType": "address",
          "name": "newOwner",
          "type": "address"
        }
      ],
      "name": "transferOwnership",
      "outputs": [],
      "stateMutability": "nonpayable",
      "type": "function"
    }
  ],
  "bytecode": "0x61016060405269d3c21bcecceda1000000600d553480156200002057600080fd5b506040518060400160405280600a81526020017f446570746f546f6b656e00000000000000000000000000000000000000000000815250806040518060400160405280600181526020017f31000000000000000000000000000000000000000000000000000000000000008152506040518060400160405280600a81526020017f446570746f546f6b656e000000000000000000000000000000000000000000008152506040518060400160405280600281526020017f445400000000000000000000000000000000000000000000000000000000000081525081600390816200010b91906200067a565b5080600490816200011d91906200067a565b5050506200013b6005836200020160201b620012ab1790919060201c565b61012081815250506200015e6006826200020160201b620012ab1790919060201c565b6101408181525050818051906020012060e08181525050808051906020012061010081815250504660a081815250506200019d6200025e60201b60201c565b608081815250503073ffffffffffffffffffffffffffffffffffffffff1660c08173ffffffffffffffffffffffffffffffffffffffff1681525050505050620001fb620001ef620002bb60201b60201c565b620002c360201b60201c565b62000984565b600060208351101562000227576200021f836200038960201b60201c565b905062000258565b826200023e83620003f660201b620012ef1760201c565b60000190816200024f91906200067a565b5060ff60001b90505b92915050565b60007f8b73c3c69bb8fe3d512ecc4cf759cc79239f7b179b0ffacaa9a75d522b39400f60e051610100514630604051602001620002a0959493929190620007d2565b60405160208183030381529060405280519060200120905090565b600033905090565b6000600c60009054906101000a900473ffffffffffffffffffffffffffffffffffffffff16905081600c60006101000a81548173ffffffffffffffffffffffffffffffffffffffff021916908373ffffffffffffffffffffffffffffffffffffffff1602179055508173ffffffffffffffffffffffffffffffffffffffff168173ffffffffffffffffffffffffffffffffffffffff167f8be0079c531659141344cd1fd0a4f28419497f9722a3daafe3b4186f6b6457e060405160405180910390a35050565b600080829050601f81511115620003d957826040517f305a27a9000000000000000000000000000000000000000000000000000000008152600401620003d09190620008be565b60405180910390fd5b805181620003e79062000914565b60001c1760001b915050919050565b6000819050919050565b600081519050919050565b7f4e487b7100000000000000000000000000000000000000000000000000000000600052604160045260246000fd5b7f4e487b7100000000000000000000000000000000000000000000000000000000600052602260045260246000fd5b600060028204905060018216806200048257607f821691505b6020821081036200049857620004976200043a565b5b50919050565b60008190508160005260206000209050919050565b60006020601f8301049050919050565b600082821b905092915050565b600060088302620005027fffffffffffffffffffffffffffffffffffffffffffffffffffffffffffffffff82620004c3565b6200050e8683620004c3565b95508019841693508086168417925050509392505050565b6000819050919050565b6000819050919050565b60006200055b620005556200054f8462000526565b62000530565b62000526565b9050919050565b6000819050919050565b62000577836200053a565b6200058f620005868262000562565b848454620004d0565b825550505050565b600090565b620005a662000597565b620005b38184846200056c565b505050565b5b81811015620005db57620005cf6000826200059c565b600181019050620005b9565b5050565b601f8211156200062a57620005f4816200049e565b620005ff84620004b3565b810160208510156200060f578190505b620006276200061e85620004b3565b830182620005b8565b50505b505050565b600082821c905092915050565b60006200064f600019846008026200062f565b1980831691505092915050565b60006200066a83836200063c565b9150826002028217905092915050565b620006858262000400565b67ffffffffffffffff811115620006a157620006a06200040b565b5b620006ad825462000469565b620006ba828285620005df565b600060209050601f831160018114620006f25760008415620006dd578287015190505b620006e985826200065c565b86555062000759565b601f19841662000702866200049e565b60005b828110156200072c5784890151825560018201915060208501945060208101905062000705565b868310156200074c578489015162000748601f8916826200063c565b8355505b6001600288020188555050505b505050505050565b6000819050919050565b620007768162000761565b82525050565b620007878162000526565b82525050565b600073ffffffffffffffffffffffffffffffffffffffff82169050919050565b6000620007ba826200078d565b9050919050565b620007cc81620007ad565b82525050565b600060a082019050620007e960008301886200076b565b620007f860208301876200076b565b6200080760408301866200076b565b6200081660608301856200077c565b620008256080830184620007c1565b9695505050505050565b600082825260208201905092915050565b60005b838110156200086057808201518184015260208101905062000843565b60008484015250505050565b6000601f19601f8301169050919050565b60006200088a8262000400565b6200089681856200082f565b9350620008a881856020860162000840565b620008b3816200086c565b840191505092915050565b60006020820190508181036000830152620008da81846200087d565b905092915050565b600081519050919050565b6000819050602082019050919050565b60006200090b825162000761565b80915050919050565b60006200092182620008e2565b826200092d84620008ed565b90506200093a81620008fd565b925060208210156200097d57620009787fffffffffffffffffffffffffffffffffffffffffffffffffffffffffffffffff83602003600802620004c3565b831692505b5050919050565b60805160a05160c05160e051610100516101205161014051614201620009df6000396000610a8d01526000610a5901526000611bec01526000611bcb015260006114ce015260006115240152600061154d01526142016000f3fe608060405234801561001057600080fd5b50600436106101da5760003560e01c80637ecebe0011610104578063a457c2d7116100a2578063dd62ed3e11610071578063dd62ed3e146105af578063f1127ed8146105df578063f2fde38b1461060f578063f95bc32f1461062b576101da565b8063a457c2d714610517578063a9059cbb14610547578063c3cda52014610577578063d505accf14610593576101da565b80638e539e8c116100de5780638e539e8c1461047b57806391ddadf4146104ab57806395d89b41146104c95780639ab24eb0146104e7576101da565b80637ecebe001461040957806384b0196e146104395780638da5cb5b1461045d576101da565b80633a46b1a81161017c5780635d6418471161014b5780635d641847146103815780636fcfff451461039f57806370a08231146103cf578063715018a6146103ff576101da565b80633a46b1a8146102e75780634bf5d7e914610317578063587cde1e146103355780635c19a95c14610365576101da565b806323b872dd116101b857806323b872dd1461024b578063313ce5671461027b5780633644e5151461029957806339509351146102b7576101da565b806306fdde03146101df578063095ea7b3146101fd57806318160ddd1461022d575b600080fd5b6101e7610647565b6040516101f49190612a52565b60405180910390f35b61021760048036038101906102129190612b0d565b6106d9565b6040516102249190612b68565b60405180910390f35b6102356106fc565b6040516102429190612b92565b60405180910390f35b61026560048036038101906102609190612bad565b610706565b6040516102729190612b68565b60405180910390f35b610283610743565b6040516102909190612c1c565b60405180910390f35b6102a161074c565b6040516102ae9190612c50565b60405180910390f35b6102d160048036038101906102cc9190612b0d565b61075b565b6040516102de9190612b68565b60405180910390f35b61030160048036038101906102fc9190612b0d565b610792565b60405161030e9190612b92565b60405180910390f35b61031f610835565b60405161032c9190612a52565b60405180910390f35b61034f600480360381019061034a9190612c6b565b6108c3565b60405161035c9190612ca7565b60405180910390f35b61037f600480360381019061037a9190612c6b565b61092c565b005b610389610940565b6040516103969190612b92565b60405180910390f35b6103b960048036038101906103b49190612c6b565b610946565b6040516103c69190612ce1565b60405180910390f35b6103e960048036038101906103e49190612c6b565b61099a565b6040516103f69190612b92565b60405180910390f35b6104076109e2565b005b610423600480360381019061041e9190612c6b565b6109f6565b6040516104309190612b92565b60405180910390f35b610441610a46565b6040516104549796959493929190612df5565b60405180910390f35b610465610b48565b6040516104729190612ca7565b60405180910390f35b61049560048036038101906104909190612e79565b610b72565b6040516104a29190612b92565b60405180910390f35b6104b3610bd7565b6040516104c09190612ec7565b60405180910390f35b6104d1610be7565b6040516104de9190612a52565b60405180910390f35b61050160048036038101906104fc9190612c6b565b610c79565b60405161050e9190612b92565b60405180910390f35b610531600480360381019061052c9190612b0d565b610d81565b60405161053e9190612b68565b60405180910390f35b610561600480360381019061055c9190612b0d565b610df8565b60405161056e9190612b68565b60405180910390f35b610591600480360381019061058c9190612f3a565b610e35565b005b6105ad60048036038101906105a89190612fc7565b610f39565b005b6105c960048036038101906105c49190613069565b61107b565b6040516105d69190612b92565b60405180910390f35b6105f960048036038101906105f491906130d5565b611102565b604051610606919061318a565b60405180910390f35b61062960048036038101906106249190612c6b565b611212565b005b61064560048036038101906106409190612b0d565b611295565b005b606060038054610656906131d4565b80601f0160208091040260200160405190810160405280929190818152602001828054610682906131d4565b80156106cf5780601f106106a4576101008083540402835291602001916106cf565b820191906000526020600020905b8154815290600101906020018083116106b257829003601f168201915b5050505050905090565b6000806106e46112f9565b90506106f1818585611301565b600191505092915050565b6000600254905090565b60006040517f08c379a000000000000000000000000000000000000000000000000000000000815260040161073a90613251565b60405180910390fd5b60006012905090565b60006107566114ca565b905090565b6000806107666112f9565b9050610787818585610778858961107b565b61078291906132a0565b611301565b600191505092915050565b600061079c610bd7565b65ffffffffffff1682106107e5576040517f08c379a00000000000000000000000000000000000000000000000000000000081526004016107dc90613320565b60405180910390fd5b61082d600a60008573ffffffffffffffffffffffffffffffffffffffff1673ffffffffffffffffffffffffffffffffffffffff16815260200190815260200160002083611581565b905092915050565b606043610840610bd7565b65ffffffffffff1614610888576040517f08c379a000000000000000000000000000000000000000000000000000000000815260040161087f9061338c565b60405180910390fd5b6040518060400160405280601d81526020017f6d6f64653d626c6f636b6e756d6265722666726f6d3d64656661756c74000000815250905090565b6000600960008373ffffffffffffffffffffffffffffffffffffffff1673ffffffffffffffffffffffffffffffffffffffff16815260200190815260200160002060009054906101000a900473ffffffffffffffffffffffffffffffffffffffff169050919050565b61093d6109376112f9565b826116c9565b50565b600d5481565b6000610993600a60008473ffffffffffffffffffffffffffffffffffffffff1673ffffffffffffffffffffffffffffffffffffffff168152602001908152602001600020805490506117e3565b9050919050565b60008060008373ffffffffffffffffffffffffffffffffffffffff1673ffffffffffffffffffffffffffffffffffffffff168152602001908152602001600020549050919050565b6109ea611836565b6109f460006118b4565b565b6000610a3f600760008473ffffffffffffffffffffffffffffffffffffffff1673ffffffffffffffffffffffffffffffffffffffff16815260200190815260200160002061197a565b9050919050565b600060608060008060006060610a8660057f000000000000000000000000000000000000000000000000000000000000000061198890919063ffffffff16565b610aba60067f000000000000000000000000000000000000000000000000000000000000000061198890919063ffffffff16565b46306000801b600067ffffffffffffffff811115610adb57610ada6133ac565b5b604051908082528060200260200182016040528015610b095781602001602082028036833780820191505090505b507f0f00000000000000000000000000000000000000000000000000000000000000959493929190965096509650965096509650965090919293949596565b6000600c60009054906101000a900473ffffffffffffffffffffffffffffffffffffffff16905090565b6000610b7c610bd7565b65ffffffffffff168210610bc5576040517f08c379a0000000000000000000000000000000000000000000000000000000008152600401610bbc90613320565b60405180910390fd5b610bd0600b83611581565b9050919050565b6000610be243611a38565b905090565b606060048054610bf6906131d4565b80601f0160208091040260200160405190810160405280929190818152602001828054610c22906131d4565b8015610c6f5780601f10610c4457610100808354040283529160200191610c6f565b820191906000526020600020905b815481529060010190602001808311610c5257829003601f168201915b5050505050905090565b600080600a60008473ffffffffffffffffffffffffffffffffffffffff1673ffffffffffffffffffffffffffffffffffffffff16815260200190815260200160002080549050905060008114610d5857600a60008473ffffffffffffffffffffffffffffffffffffffff1673ffffffffffffffffffffffffffffffffffffffff1681526020019081526020016000206001820381548110610d1d57610d1c6133db565b5b9060005260206000200160000160049054906101000a90047bffffffffffffffffffffffffffffffffffffffffffffffffffffffff16610d5b565b60005b7bffffffffffffffffffffffffffffffffffffffffffffffffffffffff16915050919050565b600080610d8c6112f9565b90506000610d9a828661107b565b905083811015610ddf576040517f08c379a0000000000000000000000000000000000000000000000000000000008152600401610dd69061347c565b60405180910390fd5b610dec8286868403611301565b60019250505092915050565b60006040517f08c379a0000000000000000000000000000000000000000000000000000000008152600401610e2c90613251565b60405180910390fd5b83421115610e78576040517f08c379a0000000000000000000000000000000000000000000000000000000008152600401610e6f906134e8565b60405180910390fd5b6000610eda610ed27fe48329057bfd03d55e49b547132e39cffd9c1820ad7b9d4c5307691425d15adf898989604051602001610eb79493929190613508565b60405160208183030381529060405280519060200120611a8d565b858585611aa7565b9050610ee581611ad2565b8614610f26576040517f08c379a0000000000000000000000000000000000000000000000000000000008152600401610f1d90613599565b60405180910390fd5b610f3081886116c9565b50505050505050565b83421115610f7c576040517f08c379a0000000000000000000000000000000000000000000000000000000008152600401610f7390613605565b60405180910390fd5b60007f6e71edae12b1b97f4d1f60370fef10105fa2faae0126114a169c64845d6126c9888888610fab8c611ad2565b89604051602001610fc196959493929190613625565b6040516020818303038152906040528051906020012090506000610fe482611a8d565b90506000610ff482878787611aa7565b90508973ffffffffffffffffffffffffffffffffffffffff168173ffffffffffffffffffffffffffffffffffffffff1614611064576040517f08c379a000000000000000000000000000000000000000000000000000000000815260040161105b906136d2565b60405180910390fd5b61106f8a8a8a611301565b50505050505050505050565b6000600160008473ffffffffffffffffffffffffffffffffffffffff1673ffffffffffffffffffffffffffffffffffffffff16815260200190815260200160002060008373ffffffffffffffffffffffffffffffffffffffff1673ffffffffffffffffffffffffffffffffffffffff16815260200190815260200160002054905092915050565b61110a612984565b600a60008473ffffffffffffffffffffffffffffffffffffffff1673ffffffffffffffffffffffffffffffffffffffff1681526020019081526020016000208263ffffffff1681548110611161576111606133db565b5b906000526020600020016040518060400160405290816000820160009054906101000a900463ffffffff1663ffffffff1663ffffffff1681526020016000820160049054906101000a90047bffffffffffffffffffffffffffffffffffffffffffffffffffffffff167bffffffffffffffffffffffffffffffffffffffffffffffffffffffff167bffffffffffffffffffffffffffffffffffffffffffffffffffffffff1681525050905092915050565b61121a611836565b600073ffffffffffffffffffffffffffffffffffffffff168173ffffffffffffffffffffffffffffffffffffffff1603611289576040517f08c379a000000000000000000000000000000000000000000000000000000000815260040161128090613764565b60405180910390fd5b611292816118b4565b50565b61129d611836565b6112a78282611b30565b5050565b60006020835110156112c7576112c083611b3e565b90506112e9565b826112d1836112ef565b60000190816112e09190613930565b5060ff60001b90505b92915050565b6000819050919050565b600033905090565b600073ffffffffffffffffffffffffffffffffffffffff168373ffffffffffffffffffffffffffffffffffffffff1603611370576040517f08c379a000000000000000000000000000000000000000000000000000000000815260040161136790613a74565b60405180910390fd5b600073ffffffffffffffffffffffffffffffffffffffff168273ffffffffffffffffffffffffffffffffffffffff16036113df576040517f08c379a00000000000000000000000000000000000000000000000000000000081526004016113d690613b06565b60405180910390fd5b80600160008573ffffffffffffffffffffffffffffffffffffffff1673ffffffffffffffffffffffffffffffffffffffff16815260200190815260200160002060008473ffffffffffffffffffffffffffffffffffffffff1673ffffffffffffffffffffffffffffffffffffffff168152602001908152602001600020819055508173ffffffffffffffffffffffffffffffffffffffff168373ffffffffffffffffffffffffffffffffffffffff167f8c5be1e5ebec7d5bd14f71427d1e84f3dd0314c0f7b2291e5b200ac8c7c3b925836040516114bd9190612b92565b60405180910390a3505050565b60007f000000000000000000000000000000000000000000000000000000000000000073ffffffffffffffffffffffffffffffffffffffff163073ffffffffffffffffffffffffffffffffffffffff1614801561154657507f000000000000000000000000000000000000000000000000000000000000000046145b15611573577f0000000000000000000000000000000000000000000000000000000000000000905061157e565b61157b611ba6565b90505b90565b6000808380549050905060008082905060058311156115f75760006115a584611c3c565b846115b09190613b26565b9050856115bd8883611d35565b60000160009054906101000a900463ffffffff1663ffffffff1611156115e5578091506115f5565b6001816115f291906132a0565b92505b505b5b8082101561165757600061160c8383611d4a565b9050856116198883611d35565b60000160009054906101000a900463ffffffff1663ffffffff16111561164157809150611651565b60018161164e91906132a0565b92505b506115f8565b6000811461169d5761166c8660018303611d35565b60000160049054906101000a90047bffffffffffffffffffffffffffffffffffffffffffffffffffffffff166116a0565b60005b7bffffffffffffffffffffffffffffffffffffffffffffffffffffffff16935050505092915050565b60006116d4836108c3565b905060006116e18461099a565b905082600960008673ffffffffffffffffffffffffffffffffffffffff1673ffffffffffffffffffffffffffffffffffffffff16815260200190815260200160002060006101000a81548173ffffffffffffffffffffffffffffffffffffffff021916908373ffffffffffffffffffffffffffffffffffffffff1602179055508273ffffffffffffffffffffffffffffffffffffffff168273ffffffffffffffffffffffffffffffffffffffff168573ffffffffffffffffffffffffffffffffffffffff167f3134e8a2e6d97e929a7e54011ea5485d7d196dd5f0ba4d4ef95803e8e3fc257f60405160405180910390a46117dd828483611d70565b50505050565b600063ffffffff801682111561182e576040517f08c379a000000000000000000000000000000000000000000000000000000000815260040161182590613bcc565b60405180910390fd5b819050919050565b61183e6112f9565b73ffffffffffffffffffffffffffffffffffffffff1661185c610b48565b73ffffffffffffffffffffffffffffffffffffffff16146118b2576040517f08c379a00000000000000000000000000000000000000000000000000000000081526004016118a990613c38565b60405180910390fd5b565b6000600c60009054906101000a900473ffffffffffffffffffffffffffffffffffffffff16905081600c60006101000a81548173ffffffffffffffffffffffffffffffffffffffff021916908373ffffffffffffffffffffffffffffffffffffffff1602179055508173ffffffffffffffffffffffffffffffffffffffff168173ffffffffffffffffffffffffffffffffffffffff167f8be0079c531659141344cd1fd0a4f28419497f9722a3daafe3b4186f6b6457e060405160405180910390a35050565b600081600001549050919050565b606060ff60001b83146119a55761199e83611f69565b9050611a32565b8180546119b1906131d4565b80601f01602080910402602001604051908101604052809291908181526020018280546119dd906131d4565b8015611a2a5780601f106119ff57610100808354040283529160200191611a2a565b820191906000526020600020905b815481529060010190602001808311611a0d57829003601f168201915b505050505090505b92915050565b600065ffffffffffff8016821115611a85576040517f08c379a0000000000000000000000000000000000000000000000000000000008152600401611a7c90613cca565b60405180910390fd5b819050919050565b6000611aa0611a9a6114ca565b83611fdd565b9050919050565b6000806000611ab88787878761201e565b91509150611ac581612100565b8192505050949350505050565b600080600760008473ffffffffffffffffffffffffffffffffffffffff1673ffffffffffffffffffffffffffffffffffffffff1681526020019081526020016000209050611b1f8161197a565b9150611b2a81612266565b50919050565b611b3a828261227c565b5050565b600080829050601f81511115611b8b57826040517f305a27a9000000000000000000000000000000000000000000000000000000008152600401611b829190612a52565b60405180910390fd5b805181611b9790613d1a565b60001c1760001b915050919050565b60007f8b73c3c69bb8fe3d512ecc4cf759cc79239f7b179b0ffacaa9a75d522b39400f7f00000000000000000000000000000000000000000000000000000000000000007f00000000000000000000000000000000000000000000000000000000000000004630604051602001611c21959493929190613d81565b60405160208183030381529060405280519060200120905090565b6000808203611c4e5760009050611d30565b60006001611c5b84612309565b901c6001901b90506001818481611c7557611c74613dd4565b5b048201901c90506001818481611c8e57611c8d613dd4565b5b048201901c90506001818481611ca757611ca6613dd4565b5b048201901c90506001818481611cc057611cbf613dd4565b5b048201901c90506001818481611cd957611cd8613dd4565b5b048201901c90506001818481611cf257611cf1613dd4565b5b048201901c90506001818481611d0b57611d0a613dd4565b5b048201901c9050611d2c81828581611d2657611d25613dd4565b5b046123ea565b9150505b919050565b60008260005281602060002001905092915050565b60006002828418611d5b9190613e03565b828416611d6891906132a0565b905092915050565b8173ffffffffffffffffffffffffffffffffffffffff168373ffffffffffffffffffffffffffffffffffffffff1614158015611dac5750600081115b15611f6457600073ffffffffffffffffffffffffffffffffffffffff168373ffffffffffffffffffffffffffffffffffffffff1614611e8a57600080611e33600a60008773ffffffffffffffffffffffffffffffffffffffff1673ffffffffffffffffffffffffffffffffffffffff16815260200190815260200160002061240385612419565b915091508473ffffffffffffffffffffffffffffffffffffffff167fdec2bacdd2f05b59de34da9b523dff8be42e5e38e818c82fdb0bae774387a7248383604051611e7f929190613e34565b60405180910390a250505b600073ffffffffffffffffffffffffffffffffffffffff168273ffffffffffffffffffffffffffffffffffffffff1614611f6357600080611f0c600a60008673ffffffffffffffffffffffffffffffffffffffff1673ffffffffffffffffffffffffffffffffffffffff1681526020019081526020016000206126f485612419565b915091508373ffffffffffffffffffffffffffffffffffffffff167fdec2bacdd2f05b59de34da9b523dff8be42e5e38e818c82fdb0bae774387a7248383604051611f58929190613e34565b60405180910390a250505b5b505050565b60606000611f768361270a565b90506000602067ffffffffffffffff811115611f9557611f946133ac565b5b6040519080825280601f01601f191660200182016040528015611fc75781602001600182028036833780820191505090505b5090508181528360208201528092505050919050565b60006040517f190100000000000000000000000000000000000000000000000000000000000081528360028201528260228201526042812091505092915050565b6000807f7fffffffffffffffffffffffffffffff5d576e7357a4501ddfe92f46681b20a08360001c11156120595760006003915091506120f7565b60006001878787876040516000815260200160405260405161207e9493929190613e5d565b6020604051602081039080840390855afa1580156120a0573d6000803e3d6000fd5b505050602060405103519050600073ffffffffffffffffffffffffffffffffffffffff168173ffffffffffffffffffffffffffffffffffffffff16036120ee576000600192509250506120f7565b80600092509250505b94509492505050565b6000600481111561211457612113613ea2565b5b81600481111561212757612126613ea2565b5b0315612263576001600481111561214157612140613ea2565b5b81600481111561215457612153613ea2565b5b03612194576040517f08c379a000000000000000000000000000000000000000000000000000000000815260040161218b90613f1d565b60405180910390fd5b600260048111156121a8576121a7613ea2565b5b8160048111156121bb576121ba613ea2565b5b036121fb576040517f08c379a00000000000000000000000000000000000000000000000000000000081526004016121f290613f89565b60405180910390fd5b6003600481111561220f5761220e613ea2565b5b81600481111561222257612221613ea2565b5b03612262576040517f08c379a00000000000000000000000000000000000000000000000000000000081526004016122599061401b565b60405180910390fd5b5b50565b6001816000016000828254019250508190555050565b612286828261275a565b61228e6128b0565b7bffffffffffffffffffffffffffffffffffffffffffffffffffffffff166122b46106fc565b11156122f5576040517f08c379a00000000000000000000000000000000000000000000000000000000081526004016122ec906140ad565b60405180910390fd5b612303600b6126f483612419565b50505050565b600080600090506000608084901c111561232b57608083901c92506080810190505b6000604084901c111561234657604083901c92506040810190505b6000602084901c111561236157602083901c92506020810190505b6000601084901c111561237c57601083901c92506010810190505b6000600884901c111561239757600883901c92506008810190505b6000600484901c11156123b257600483901c92506004810190505b6000600284901c11156123cd57600283901c92506002810190505b6000600184901c11156123e1576001810190505b80915050919050565b60008183106123f957816123fb565b825b905092915050565b600081836124119190613b26565b905092915050565b60008060008580549050905060008082146124df5761243b8760018403611d35565b6040518060400160405290816000820160009054906101000a900463ffffffff1663ffffffff1663ffffffff1681526020016000820160049054906101000a90047bffffffffffffffffffffffffffffffffffffffffffffffffffffffff167bffffffffffffffffffffffffffffffffffffffffffffffffffffffff167bffffffffffffffffffffffffffffffffffffffffffffffffffffffff168152505061251b565b6040518060400160405280600063ffffffff16815260200160007bffffffffffffffffffffffffffffffffffffffffffffffffffffffff168152505b905080602001517bffffffffffffffffffffffffffffffffffffffffffffffffffffffff16935061255084868863ffffffff16565b925060008211801561257a5750612565610bd7565b65ffffffffffff16816000015163ffffffff16145b156125eb57612588836128d4565b6125958860018503611d35565b60000160046101000a8154817bffffffffffffffffffffffffffffffffffffffffffffffffffffffff02191690837bffffffffffffffffffffffffffffffffffffffffffffffffffffffff1602179055506126ea565b86604051806040016040528061260f612602610bd7565b65ffffffffffff166117e3565b63ffffffff168152602001612623866128d4565b7bffffffffffffffffffffffffffffffffffffffffffffffffffffffff168152509080600181540180825580915050600190039060005260206000200160009091909190915060008201518160000160006101000a81548163ffffffff021916908363ffffffff16021790555060208201518160000160046101000a8154817bffffffffffffffffffffffffffffffffffffffffffffffffffffffff02191690837bffffffffffffffffffffffffffffffffffffffffffffffffffffffff16021790555050505b5050935093915050565b6000818361270291906132a0565b905092915050565b60008060ff8360001c169050601f811115612751576040517fb3512b0c00000000000000000000000000000000000000000000000000000000815260040160405180910390fd5b80915050919050565b600073ffffffffffffffffffffffffffffffffffffffff168273ffffffffffffffffffffffffffffffffffffffff16036127c9576040517f08c379a00000000000000000000000000000000000000000000000000000000081526004016127c090614119565b60405180910390fd5b6127d56000838361293f565b80600260008282546127e791906132a0565b92505081905550806000808473ffffffffffffffffffffffffffffffffffffffff1673ffffffffffffffffffffffffffffffffffffffff168152602001908152602001600020600082825401925050819055508173ffffffffffffffffffffffffffffffffffffffff16600073ffffffffffffffffffffffffffffffffffffffff167fddf252ad1be2c89b69c2b068fc378daa952ba7f163c4a11628f55a4df523b3ef836040516128989190612b92565b60405180910390a36128ac60008383612944565b5050565b60007bffffffffffffffffffffffffffffffffffffffffffffffffffffffff905090565b60007bffffffffffffffffffffffffffffffffffffffffffffffffffffffff8016821115612937576040517f08c379a000000000000000000000000000000000000000000000000000000000815260040161292e906141ab565b60405180910390fd5b819050919050565b505050565b61294f838383612954565b505050565b61295f83838361297f565b61297a61296b846108c3565b612974846108c3565b83611d70565b505050565b505050565b6040518060400160405280600063ffffffff16815260200160007bffffffffffffffffffffffffffffffffffffffffffffffffffffffff1681525090565b600081519050919050565b600082825260208201905092915050565b60005b838110156129fc5780820151818401526020810190506129e1565b60008484015250505050565b6000601f19601f8301169050919050565b6000612a24826129c2565b612a2e81856129cd565b9350612a3e8185602086016129de565b612a4781612a08565b840191505092915050565b60006020820190508181036000830152612a6c8184612a19565b905092915050565b600080fd5b600073ffffffffffffffffffffffffffffffffffffffff82169050919050565b6000612aa482612a79565b9050919050565b612ab481612a99565b8114612abf57600080fd5b50565b600081359050612ad181612aab565b92915050565b6000819050919050565b612aea81612ad7565b8114612af557600080fd5b50565b600081359050612b0781612ae1565b92915050565b60008060408385031215612b2457612b23612a74565b5b6000612b3285828601612ac2565b9250506020612b4385828601612af8565b9150509250929050565b60008115159050919050565b612b6281612b4d565b82525050565b6000602082019050612b7d6000830184612b59565b92915050565b612b8c81612ad7565b82525050565b6000602082019050612ba76000830184612b83565b92915050565b600080600060608486031215612bc657612bc5612a74565b5b6000612bd486828701612ac2565b9350506020612be586828701612ac2565b9250506040612bf686828701612af8565b9150509250925092565b600060ff82169050919050565b612c1681612c00565b82525050565b6000602082019050612c316000830184612c0d565b92915050565b6000819050919050565b612c4a81612c37565b82525050565b6000602082019050612c656000830184612c41565b92915050565b600060208284031215612c8157612c80612a74565b5b6000612c8f84828501612ac2565b91505092915050565b612ca181612a99565b82525050565b6000602082019050612cbc6000830184612c98565b92915050565b600063ffffffff82169050919050565b612cdb81612cc2565b82525050565b6000602082019050612cf66000830184612cd2565b92915050565b60007fff0000000000000000000000000000000000000000000000000000000000000082169050919050565b612d3181612cfc565b82525050565b600081519050919050565b600082825260208201905092915050565b6000819050602082019050919050565b612d6c81612ad7565b82525050565b6000612d7e8383612d63565b60208301905092915050565b6000602082019050919050565b6000612da282612d37565b612dac8185612d42565b9350612db783612d53565b8060005b83811015612de8578151612dcf8882612d72565b9750612dda83612d8a565b925050600181019050612dbb565b5085935050505092915050565b600060e082019050612e0a600083018a612d28565b8181036020830152612e1c8189612a19565b90508181036040830152612e308188612a19565b9050612e3f6060830187612b83565b612e4c6080830186612c98565b612e5960a0830185612c41565b81810360c0830152612e6b8184612d97565b905098975050505050505050565b600060208284031215612e8f57612e8e612a74565b5b6000612e9d84828501612af8565b91505092915050565b600065ffffffffffff82169050919050565b612ec181612ea6565b82525050565b6000602082019050612edc6000830184612eb8565b92915050565b612eeb81612c00565b8114612ef657600080fd5b50565b600081359050612f0881612ee2565b92915050565b612f1781612c37565b8114612f2257600080fd5b50565b600081359050612f3481612f0e565b92915050565b60008060008060008060c08789031215612f5757612f56612a74565b5b6000612f6589828a01612ac2565b9650506020612f7689828a01612af8565b9550506040612f8789828a01612af8565b9450506060612f9889828a01612ef9565b9350506080612fa989828a01612f25565b92505060a0612fba89828a01612f25565b9150509295509295509295565b600080600080600080600060e0888a031215612fe657612fe5612a74565b5b6000612ff48a828b01612ac2565b97505060206130058a828b01612ac2565b96505060406130168a828b01612af8565b95505060606130278a828b01612af8565b94505060806130388a828b01612ef9565b93505060a06130498a828b01612f25565b92505060c061305a8a828b01612f25565b91505092959891949750929550565b600080604083850312156130805761307f612a74565b5b600061308e85828601612ac2565b925050602061309f85828601612ac2565b9150509250929050565b6130b281612cc2565b81146130bd57600080fd5b50565b6000813590506130cf816130a9565b92915050565b600080604083850312156130ec576130eb612a74565b5b60006130fa85828601612ac2565b925050602061310b858286016130c0565b9150509250929050565b61311e81612cc2565b82525050565b60007bffffffffffffffffffffffffffffffffffffffffffffffffffffffff82169050919050565b61315581613124565b82525050565b6040820160008201516131716000850182613115565b506020820151613184602085018261314c565b50505050565b600060408201905061319f600083018461315b565b92915050565b7f4e487b7100000000000000000000000000000000000000000000000000000000600052602260045260246000fd5b600060028204905060018216806131ec57607f821691505b6020821081036131ff576131fe6131a5565b5b50919050565b7f43616e6e6f74207472616e7366657220736f756c626f756e6420546f6b656e73600082015250565b600061323b6020836129cd565b915061324682613205565b602082019050919050565b6000602082019050818103600083015261326a8161322e565b9050919050565b7f4e487b7100000000000000000000000000000000000000000000000000000000600052601160045260246000fd5b60006132ab82612ad7565b91506132b683612ad7565b92508282019050808211156132ce576132cd613271565b5b92915050565b7f4552433230566f7465733a20667574757265206c6f6f6b757000000000000000600082015250565b600061330a6019836129cd565b9150613315826132d4565b602082019050919050565b60006020820190508181036000830152613339816132fd565b9050919050565b7f4552433230566f7465733a2062726f6b656e20636c6f636b206d6f6465000000600082015250565b6000613376601d836129cd565b915061338182613340565b602082019050919050565b600060208201905081810360008301526133a581613369565b9050919050565b7f4e487b7100000000000000000000000000000000000000000000000000000000600052604160045260246000fd5b7f4e487b7100000000000000000000000000000000000000000000000000000000600052603260045260246000fd5b7f45524332303a2064656372656173656420616c6c6f77616e63652062656c6f7760008201527f207a65726f000000000000000000000000000000000000000000000000000000602082015250565b60006134666025836129cd565b91506134718261340a565b604082019050919050565b6000602082019050818103600083015261349581613459565b9050919050565b7f4552433230566f7465733a207369676e61747572652065787069726564000000600082015250565b60006134d2601d836129cd565b91506134dd8261349c565b602082019050919050565b60006020820190508181036000830152613501816134c5565b9050919050565b600060808201905061351d6000830187612c41565b61352a6020830186612c98565b6135376040830185612b83565b6135446060830184612b83565b95945050505050565b7f4552433230566f7465733a20696e76616c6964206e6f6e636500000000000000600082015250565b60006135836019836129cd565b915061358e8261354d565b602082019050919050565b600060208201905081810360008301526135b281613576565b9050919050565b7f45524332305065726d69743a206578706972656420646561646c696e65000000600082015250565b60006135ef601d836129cd565b91506135fa826135b9565b602082019050919050565b6000602082019050818103600083015261361e816135e2565b9050919050565b600060c08201905061363a6000830189612c41565b6136476020830188612c98565b6136546040830187612c98565b6136616060830186612b83565b61366e6080830185612b83565b61367b60a0830184612b83565b979650505050505050565b7f45524332305065726d69743a20696e76616c6964207369676e61747572650000600082015250565b60006136bc601e836129cd565b91506136c782613686565b602082019050919050565b600060208201905081810360008301526136eb816136af565b9050919050565b7f4f776e61626c653a206e6577206f776e657220697320746865207a65726f206160008201527f6464726573730000000000000000000000000000000000000000000000000000602082015250565b600061374e6026836129cd565b9150613759826136f2565b604082019050919050565b6000602082019050818103600083015261377d81613741565b9050919050565b60008190508160005260206000209050919050565b60006020601f8301049050919050565b600082821b905092915050565b6000600883026137e67fffffffffffffffffffffffffffffffffffffffffffffffffffffffffffffffff826137a9565b6137f086836137a9565b95508019841693508086168417925050509392505050565b6000819050919050565b600061382d61382861382384612ad7565b613808565b612ad7565b9050919050565b6000819050919050565b61384783613812565b61385b61385382613834565b8484546137b6565b825550505050565b600090565b613870613863565b61387b81848461383e565b505050565b5b8181101561389f57613894600082613868565b600181019050613881565b5050565b601f8211156138e4576138b581613784565b6138be84613799565b810160208510156138cd578190505b6138e16138d985613799565b830182613880565b50505b505050565b600082821c905092915050565b6000613907600019846008026138e9565b1980831691505092915050565b600061392083836138f6565b9150826002028217905092915050565b613939826129c2565b67ffffffffffffffff811115613952576139516133ac565b5b61395c82546131d4565b6139678282856138a3565b600060209050601f83116001811461399a5760008415613988578287015190505b6139928582613914565b8655506139fa565b601f1984166139a886613784565b60005b828110156139d0578489015182556001820191506020850194506020810190506139ab565b868310156139ed57848901516139e9601f8916826138f6565b8355505b6001600288020188555050505b505050505050565b7f45524332303a20617070726f76652066726f6d20746865207a65726f2061646460008201527f7265737300000000000000000000000000000000000000000000000000000000602082015250565b6000613a5e6024836129cd565b9150613a6982613a02565b604082019050919050565b60006020820190508181036000830152613a8d81613a51565b9050919050565b7f45524332303a20617070726f766520746f20746865207a65726f20616464726560008201527f7373000000000000000000000000000000000000000000000000000000000000602082015250565b6000613af06022836129cd565b9150613afb82613a94565b604082019050919050565b60006020820190508181036000830152613b1f81613ae3565b9050919050565b6000613b3182612ad7565b9150613b3c83612ad7565b9250828203905081811115613b5457613b53613271565b5b92915050565b7f53616665436173743a2076616c756520646f65736e27742066697420696e203360008201527f3220626974730000000000000000000000000000000000000000000000000000602082015250565b6000613bb66026836129cd565b9150613bc182613b5a565b604082019050919050565b60006020820190508181036000830152613be581613ba9565b9050919050565b7f4f776e61626c653a2063616c6c6572206973206e6f7420746865206f776e6572600082015250565b6000613c226020836129cd565b9150613c2d82613bec565b602082019050919050565b60006020820190508181036000830152613c5181613c15565b9050919050565b7f53616665436173743a2076616c756520646f65736e27742066697420696e203460008201527f3820626974730000000000000000000000000000000000000000000000000000602082015250565b6000613cb46026836129cd565b9150613cbf82613c58565b604082019050919050565b60006020820190508181036000830152613ce381613ca7565b9050919050565b600081519050919050565b6000819050602082019050919050565b6000613d118251612c37565b80915050919050565b6000613d2582613cea565b82613d2f84613cf5565b9050613d3a81613d05565b92506020821015613d7a57613d757fffffffffffffffffffffffffffffffffffffffffffffffffffffffffffffffff836020036008026137a9565b831692505b5050919050565b600060a082019050613d966000830188612c41565b613da36020830187612c41565b613db06040830186612c41565b613dbd6060830185612b83565b613dca6080830184612c98565b9695505050505050565b7f4e487b7100000000000000000000000000000000000000000000000000000000600052601260045260246000fd5b6000613e0e82612ad7565b9150613e1983612ad7565b925082613e2957613e28613dd4565b5b828204905092915050565b6000604082019050613e496000830185612b83565b613e566020830184612b83565b9392505050565b6000608082019050613e726000830187612c41565b613e7f6020830186612c0d565b613e8c6040830185612c41565b613e996060830184612c41565b95945050505050565b7f4e487b7100000000000000000000000000000000000000000000000000000000600052602160045260246000fd5b7f45434453413a20696e76616c6964207369676e61747572650000000000000000600082015250565b6000613f076018836129cd565b9150613f1282613ed1565b602082019050919050565b60006020820190508181036000830152613f3681613efa565b9050919050565b7f45434453413a20696e76616c6964207369676e6174757265206c656e67746800600082015250565b6000613f73601f836129cd565b9150613f7e82613f3d565b602082019050919050565b60006020820190508181036000830152613fa281613f66565b9050919050565b7f45434453413a20696e76616c6964207369676e6174757265202773272076616c60008201527f7565000000000000000000000000000000000000000000000000000000000000602082015250565b60006140056022836129cd565b915061401082613fa9565b604082019050919050565b6000602082019050818103600083015261403481613ff8565b9050919050565b7f4552433230566f7465733a20746f74616c20737570706c79207269736b73206f60008201527f766572666c6f77696e6720766f74657300000000000000000000000000000000602082015250565b60006140976030836129cd565b91506140a28261403b565b604082019050919050565b600060208201905081810360008301526140c68161408a565b9050919050565b7f45524332303a206d696e7420746f20746865207a65726f206164647265737300600082015250565b6000614103601f836129cd565b915061410e826140cd565b602082019050919050565b60006020820190508181036000830152614132816140f6565b9050919050565b7f53616665436173743a2076616c756520646f65736e27742066697420696e203260008201527f3234206269747300000000000000000000000000000000000000000000000000602082015250565b60006141956027836129cd565b91506141a082614139565b604082019050919050565b600060208201905081810360008301526141c481614188565b905091905056fea264697066735822122089eb9ee0c5b917606c89eebdb6ca91b9ce8ed95f6d512f36f127156f6191c92264736f6c63430008110033",
  "linkReferences": {},
  "deployedLinkReferences": {}
}