{
  "_format": "hh-sol-artifact-1",
  "contractName": "SendApiTest",
  "sourceName": "contracts/zondax/filecoin-solidity/contracts/v0.8/tests/send.test.sol",
  "abi": [
    {
      "inputs": [
        {
          "internalType": "int256",
          "name": "errorCode",
          "type": "int256"
        }
      ],
      "name": "ActorError",
      "type": "error"
    },
    {
      "inputs": [],
      "name": "FailToCallActor",
      "type": "error"
    },
    {
      "inputs": [
        {
          "internalType": "bytes",
          "name": "addr",
          "type": "bytes"
        }
      ],
      "name": "InvalidAddress",
      "type": "error"
    },
    {
      "inputs": [
        {
          "internalType": "uint64",
          "name": "",
          "type": "uint64"
        }
      ],
      "name": "InvalidCodec",
      "type": "error"
    },
    {
      "inputs": [],
      "name": "InvalidResponseLength",
      "type": "error"
    },
    {
      "inputs": [
        {
          "internalType": "uint256",
          "name": "balance",
          "type": "uint256"
        },
        {
          "internalType": "uint256",
          "name": "value",
          "type": "uint256"
        }
      ],
      "name": "NotEnoughBalance",
      "type": "error"
    },
    {
      "inputs": [
        {
          "components": [
            {
              "internalType": "bytes",
              "name": "data",
              "type": "bytes"
            }
          ],
          "internalType": "struct CommonTypes.FilAddress",
          "name": "target",
          "type": "tuple"
        },
        {
          "internalType": "uint256",
          "name": "amount",
          "type": "uint256"
        }
      ],
      "name": "send",
      "outputs": [],
      "stateMutability": "nonpayable",
      "type": "function"
    },
    {
      "inputs": [
        {
          "internalType": "CommonTypes.FilActorId",
          "name": "target",
          "type": "uint64"
        },
        {
          "internalType": "uint256",
          "name": "amount",
          "type": "uint256"
        }
      ],
      "name": "send",
      "outputs": [],
      "stateMutability": "nonpayable",
      "type": "function"
    }
  ],
  "bytecode": "0x608060405234801561001057600080fd5b50610d24806100206000396000f3fe608060405234801561001057600080fd5b50600436106100365760003560e01c80630e0e687c1461003b5780636f7ee35e14610057575b600080fd5b6100556004803603810190610050919061083f565b610073565b005b610071600480360381019061006c91906108db565b610081565b005b61007d828261008f565b5050565b61008b8282610134565b5050565b60006100f28360000151600080600067ffffffffffffffff8111156100b7576100b6610677565b5b6040519080825280601f01601f1916602001820160405280156100e95781602001600182028036833780820191505090505b508660006101d5565b9050600081511461012f576040517f0e74990700000000000000000000000000000000000000000000000000000000815260040160405180910390fd5b505050565b600061019383600080600067ffffffffffffffff81111561015857610157610677565b5b6040519080825280601f01601f19166020018201604052801561018a5781602001600182028036833780820191505090505b50866000610371565b905060008151146101d0576040517f0e74990700000000000000000000000000000000000000000000000000000000815260040160405180910390fd5b505050565b606060028751101561021e57866040517f370d875f000000000000000000000000000000000000000000000000000000008152600401610215919061099a565b60405180910390fd5b60004790508381101561026a5780846040517f8f0f42060000000000000000000000000000000000000000000000000000000081526004016102619291906109cb565b60405180910390fd5b60008073fe0000000000000000000000000000000000000373ffffffffffffffffffffffffffffffffffffffff168987876102a65760006102a9565b60015b8b8b8f6040516020016102c196959493929190610a03565b6040516020818303038152906040526040516102dd9190610aae565b600060405180830381855af49150503d8060008114610318576040519150601f19603f3d011682016040523d82523d6000602084013e61031d565b606091505b509150915081610359576040517f8a7db5bf00000000000000000000000000000000000000000000000000000000815260040160405180910390fd5b610362816104c6565b93505050509695505050505050565b60606000479050838110156103bf5780846040517f8f0f42060000000000000000000000000000000000000000000000000000000081526004016103b69291906109cb565b60405180910390fd5b60008073fe0000000000000000000000000000000000000573ffffffffffffffffffffffffffffffffffffffff168987876103fb5760006103fe565b60015b8b8b8f60405160200161041696959493929190610b00565b6040516020818303038152906040526040516104329190610aae565b600060405180830381855af49150503d806000811461046d576040519150601f19603f3d011682016040523d82523d6000602084013e610472565b606091505b5091509150816104ae576040517f8a7db5bf00000000000000000000000000000000000000000000000000000000815260040160405180910390fd5b6104b7816104c6565b93505050509695505050505050565b60606000806000848060200190518101906104e19190610c3a565b925092509250600067ffffffffffffffff168267ffffffffffffffff160361054357600081511461053e576040517f0e74990700000000000000000000000000000000000000000000000000000000815260040160405180910390fd5b6105fd565b605167ffffffffffffffff168267ffffffffffffffff16148061057a5750607167ffffffffffffffff168267ffffffffffffffff16145b156105bf5760008151036105ba576040517f0e74990700000000000000000000000000000000000000000000000000000000815260040160405180910390fd5b6105fc565b816040517ff1f6bced0000000000000000000000000000000000000000000000000000000081526004016105f39190610ca9565b60405180910390fd5b5b6000831461064257826040517fd4bb66710000000000000000000000000000000000000000000000000000000081526004016106399190610cd3565b60405180910390fd5b809350505050919050565b6000604051905090565b600080fd5b600080fd5b600080fd5b6000601f19601f8301169050919050565b7f4e487b7100000000000000000000000000000000000000000000000000000000600052604160045260246000fd5b6106af82610666565b810181811067ffffffffffffffff821117156106ce576106cd610677565b5b80604052505050565b60006106e161064d565b90506106ed82826106a6565b919050565b600080fd5b600080fd5b600080fd5b600067ffffffffffffffff82111561071c5761071b610677565b5b61072582610666565b9050602081019050919050565b82818337600083830152505050565b600061075461074f84610701565b6106d7565b9050828152602081018484840111156107705761076f6106fc565b5b61077b848285610732565b509392505050565b600082601f830112610798576107976106f7565b5b81356107a8848260208601610741565b91505092915050565b6000602082840312156107c7576107c6610661565b5b6107d160206106d7565b9050600082013567ffffffffffffffff8111156107f1576107f06106f2565b5b6107fd84828501610783565b60008301525092915050565b6000819050919050565b61081c81610809565b811461082757600080fd5b50565b60008135905061083981610813565b92915050565b6000806040838503121561085657610855610657565b5b600083013567ffffffffffffffff8111156108745761087361065c565b5b610880858286016107b1565b92505060206108918582860161082a565b9150509250929050565b600067ffffffffffffffff82169050919050565b6108b88161089b565b81146108c357600080fd5b50565b6000813590506108d5816108af565b92915050565b600080604083850312156108f2576108f1610657565b5b6000610900858286016108c6565b92505060206109118582860161082a565b9150509250929050565b600081519050919050565b600082825260208201905092915050565b60005b8381101561095557808201518184015260208101905061093a565b60008484015250505050565b600061096c8261091b565b6109768185610926565b9350610986818560208601610937565b61098f81610666565b840191505092915050565b600060208201905081810360008301526109b48184610961565b905092915050565b6109c581610809565b82525050565b60006040820190506109e060008301856109bc565b6109ed60208301846109bc565b9392505050565b6109fd8161089b565b82525050565b600060c082019050610a1860008301896109f4565b610a2560208301886109bc565b610a3260408301876109f4565b610a3f60608301866109f4565b8181036080830152610a518185610961565b905081810360a0830152610a658184610961565b9050979650505050505050565b600081905092915050565b6000610a888261091b565b610a928185610a72565b9350610aa2818560208601610937565b80840191505092915050565b6000610aba8284610a7d565b915081905092915050565b6000819050919050565b6000610aea610ae5610ae08461089b565b610ac5565b61089b565b9050919050565b610afa81610acf565b82525050565b600060c082019050610b1560008301896109f4565b610b2260208301886109bc565b610b2f60408301876109f4565b610b3c60608301866109f4565b8181036080830152610b4e8185610961565b9050610b5d60a0830184610af1565b979650505050505050565b6000819050919050565b610b7b81610b68565b8114610b8657600080fd5b50565b600081519050610b9881610b72565b92915050565b610ba78161089b565b8114610bb257600080fd5b50565b600081519050610bc481610b9e565b92915050565b6000610bdd610bd884610701565b6106d7565b905082815260208101848484011115610bf957610bf86106fc565b5b610c04848285610937565b509392505050565b600082601f830112610c2157610c206106f7565b5b8151610c31848260208601610bca565b91505092915050565b600080600060608486031215610c5357610c52610657565b5b6000610c6186828701610b89565b9350506020610c7286828701610bb5565b925050604084015167ffffffffffffffff811115610c9357610c9261065c565b5b610c9f86828701610c0c565b9150509250925092565b6000602082019050610cbe60008301846109f4565b92915050565b610ccd81610b68565b82525050565b6000602082019050610ce86000830184610cc4565b9291505056fea264697066735822122012bb390f7d18a21edf221732510ff94739917bbe074f08ac4e5c5f8a227f4d0464736f6c63430008110033",
  "linkReferences": {},
  "deployedLinkReferences": {}
}